:100000000C9463000C948B000C948B000C948B006C
:100010000C948B000C948B000C948B000C948B0034
:100020000C948B000C948B000C948B000C948B0024
:100030000C948B000C948B000C948B000C948B0014
:100040000C9495090C948B000C9463090C943D0955
:100050000C948B000C948B000C948B000C948B00F4
:100060000C94DF090C948B00000000002400270092
:100070002A0000000000250028002B0000000000DE
:1000800023002600290004040404040404040202DA
:100090000202020203030303030301020408102007
:1000A0004080010204081020010204081020000012
:1000B0000008000201000003040700000000000027
:1000C0000000FE0ADA1211241FBECFEFD8E0DEBF17
:1000D000CDBF26E0A2ECB3E001C01D92AA31B20769
:1000E000E1F713E0A0E0B1E0E6EAFFE202C005902C
:1000F0000D92A23CB107D9F710E0C2E6D0E004C0EF
:100100002197FE010E94B615C136D107C9F70E949A
:10011000E50B0C94C6170C940000E6EAF4E0A08905
:10012000B18982E08C93A485B5851C92A685B7859C
:100130008FEC8C93108EA489B58986E08C93A2896C
:10014000B3898C9180618C93A289B3898C918860EA
:100150008C93A289B3898C9180688C930288F389EF
:10016000E02D80818F7D8083089596E0899FD00166
:100170001124A556BA4F90967C936E935F9791E0A9
:1001800091969C939197E0910806F09109069091C1
:100190000706992339F0309751F0811108C08091FA
:1001A000B7050994309719F05C968C91FACF0895B1
:1001B000AF92BF92CF92DF92EF92FF920F931F9375
:1001C000CF93DF936C017B018B01040F151FEB01B3
:1001D0005E01AE18BF08C017D10759F06991D6016A
:1001E000ED91FC910190F081E02DC6010995892BDC
:1001F00079F7C501DF91CF911F910F91FF90EF909B
:10020000DF90CF90BF90AF9008950895089508951E
:10021000FC01538D448D252F30E0842F90E0821B0C
:10022000930B541710F0CF96089501970895FC0191
:10023000918D828D981761F0A28DAE0FBF2FB11DE9
:100240005D968C91928D9F5F9F73928F90E0089541
:100250008FEF9FEF0895FC01918D828D981731F0FB
:10026000828DE80FF11D858D90E008958FEF9FEF4F
:100270000895FC01918D228D892F90E0805C9F4F25
:10028000821B91098F739927089586EA94E00E9452
:10029000390121E0892B09F420E0822F089580E0C4
:1002A00090E0892B29F00E94450181110C940000F7
:1002B0000895FC01A48DA80FB92FB11DA35ABF4FFB
:1002C0002C91848D90E001968F739927848FA68955
:1002D000B7892C93A089B1898C91837080648C93A9
:1002E000938D848D981306C00288F389E02D808158
:1002F0008F7D80830895EF92FF920F931F93CF938A
:10030000DF93EC0181E0888F9B8D8C8D98131AC050
:10031000E889F989808185FF15C09FB7F894EE8937
:10032000FF896083E889F989808183708064808394
:100330009FBF81E090E0DF91CF911F910F91FF90DF
:10034000EF900895F62E0B8D10E00F5F1F4F0F7387
:100350001127E02E8C8D8E110CC00FB607FCFACF42
:10036000E889F989808185FFF5CFCE010E94590186
:10037000F1CFEB8DEC0FFD2FF11DE35AFF4FF08213
:100380009FB7F8940B8FEA89FB8980818062CFCF79
:10039000CF93DF93EC01888D8823B9F0AA89BB89BC
:1003A000E889F9898C9185FD03C0808186FD0DC0A7
:1003B0000FB607FCF7CF8C9185FFF2CF808185FFC8
:1003C000EDCFCE010E945901E9CFDF91CF91089581
:1003D000833081F028F4813099F08230A9F00895BB
:1003E0008730A9F08830C9F08430B1F48091800062
:1003F0008F7D03C0809180008F7780938000089567
:1004000084B58F7784BD089584B58F7DFBCF8091AF
:10041000B0008F778093B00008958091B0008F7DF9
:10042000F9CFCF93DF93282F30E0F901E255FF4F4A
:100430008491F901E656FF4FD491F901EA57FF4F35
:10044000C491CC23A1F081110E94E801EC2FF0E0CF
:10045000EE0FFF1FE458FF4FA591B491EC91ED23EF
:1004600081E090E009F480E0DF91CF91089580E091
:1004700090E0FACF862F0C9411021F93CF93DF9355
:10048000282F30E0F901E255FF4F8491F901E6563B
:10049000FF4FD491F901EA57FF4FC491CC23A9F043
:1004A000162F81110E94E801EC2FF0E0EE0FFF1FE4
:1004B000EE58FF4FA591B4918FB7F894EC911111BC
:1004C00008C0D095DE23DC938FBFDF91CF911F91C1
:1004D0000895DE2BF8CF862F642F0C943D02CF9326
:1004E000DF9390E0FC01E656FF4F24918A579F4F1F
:1004F000FC0184918823C9F090E0880F991FFC01CA
:10050000E859FF4FA591B491FC01EE58FF4FC591FA
:10051000D49161110DC09FB7F8948C9120958223DE
:100520008C938881282328839FBFDF91CF910895E2
:10053000623051F49FB7F8943C91822F80958323C9
:100540008C93E8812E2BEFCF8FB7F894EC912E2B64
:100550002C938FBFEACF862F642F0C946F023FB786
:10056000F8948091880490918904A0918A04B091B4
:100570008B0426B5A89B05C02F3F19F00196A11D3D
:10058000B11D3FBFBA2FA92F982F8827BC01CD01DD
:10059000620F711D811D911D42E0660F771F881F3C
:1005A000991F4A95D1F708958F929F92AF92BF926B
:1005B000CF92DF92EF92FF926B017C010E94AF021B
:1005C0004B015C01C114D104E104F104B9F00E94B3
:1005D000AF02681979098A099B09683E7340810551
:1005E000910580F321E0C21AD108E108F10888EEF4
:1005F000880E83E0981EA11CB11CE4CFFF90EF9001
:10060000DF90CF90BF90AF909F908F9008952FB7BD
:10061000F89460918404709185048091860490918F
:1006200087042FBF08950F931F93CF93DF93C82F95
:10063000D62F86E0C89FF0011124E556FA4F11A28B
:10064000878D90A181309105F1F058F082309105AD
:10065000F1F1039709F440C0DF91CF911F910F9101
:1006600008956623C9F361E070E08C2F0E94B50005
:100670000E9407036093F3057093F4058093F505DA
:100680009093F605E9CF0E9407030091F3051091BE
:10069000F4052091F5053091F605AB01BC01401B36
:1006A000510B620B730B8091050690910606B0E02A
:1006B000A0E084179507A607B70748F462E070E04A
:1006C0008C2FDF91CF911F910F910C94B50063E0B7
:1006D00070E0D111C1CFF4CF70E060E0F1CF6F9244
:1006E0007F928F929F92AF92BF92CF92DF92EF92C2
:1006F000FF920F931F93CF93DF9381E080930706C0
:100700000E9407030091F7051091F8052091F90563
:100710003091FA05AB01BC01401B510B620B730B0E
:100720008091030690910406B0E0A0E0841795073D
:10073000A607B70708F014C1C0E080910106C817EA
:1007400060F4E091FD05F091FE05EC0FF11D62E013
:1007500080810E946F02CF5FF0CF712C812C912C91
:100760005401839480910206781608F05FC0072D2B
:1007700010E0E091FF05F0910006E00FF11F61E04D
:1007800080810E946F02E091FF05F0910006E00F6A
:10079000F11F60E080810E943D02D501C401072C59
:1007A00004C0880F991FAA1FBB1F0A94D2F76C01BF
:1007B0007C01E094F094612C809101066816F8F4B5
:1007C000C62DD0E0E091FD05F091FE05EC0FFD1F78
:1007D00080810E9411022496CC0FDD1FC556DA4F8E
:1007E000892B41F4888199818C299D29998388835B
:1007F0006394E2CF888199818E219F21F7CFE09188
:10080000FF05F0910006E00FF11F61E080810E947A
:100810003D028091FF0590910006080F191F60E0CE
:10082000F80180810E946F0273949CCFCBE9D5E0E0
:10083000FE018FEF9FEF278D30A1232B21F4148E23
:10084000968F858F11A2369625E0E73DF20799F73E
:10085000F12C96E0D92E80910106F81608F050C0D0
:10086000E12C0F2D10E0000F111F0D551A4F209194
:100870000206E21608F042C0F801608171810E2C78
:1008800002C0769567950A94E2F7F29E90011124D2
:100890002E0D311DEBE9F5E080E0458D568D2417D6
:1008A000350709F461C08F5F36968A30B1F760FF73
:1008B00023C0EBE9F5E090E080E0448D411117C0E2
:1008C000E091FB05F091FC05E20FF31F4081D89EFB
:1008D000F001D99EF00D1124E556FA4F448F368F62
:1008E000258F10A2178E61E00E94130305C00196A8
:1008F00036968A30910509F7E394B9CFF394ABCFDC
:1009000010E089A18111182F2696F5E0C73DDF0779
:10091000C1F70E9407036093F7057093F805809371
:10092000F9059093FA051123D9F08091BC0588232D
:10093000B9F08091BA059091BB05019789F4809137
:10094000B705DF91CF911F910F91FF90EF90DF904E
:10095000CF90BF90AF909F908F907F906F900895B1
:100960001092070680E0EDCF6170BECF089585ED4F
:100970008093BC008091BC0084FDFCCF1092920457
:10098000089520911A04260F3327331F2132310591
:10099000ECF420919204FC0190E080E0243069F0B6
:1009A00082E00895A0911A042191AC0146505C4F59
:1009B000A40FB52FB11D2C930196861798F3809143
:1009C0001A04680F60931A0480E0089581E0089586
:1009D000E091960480919504E81730F4F0E0E65237
:1009E000FC4F808190E008958FEF9FEF08959091E4
:1009F0009604809195042FEF3FEF981748F4E92F64
:100A0000F0E0E652FC4F208130E09F5F9093960427
:100A1000C90108958091950490919604891B990BC2
:100A20000895CF92DF92EF92FF920F931F93CF938F
:100A3000DF937C01CB018A0120916104222389F09C
:100A4000EB016B01C40ED51ECC15DD0569F0699173
:100A5000D701ED91FC910190F081E02DC70109953E
:100A6000F3CF642F0E94C104C801DF91CF911F9181
:100A70000F91FF90EF90DF90CF900895CF93DF9389
:100A80001F92CDB7DEB76983209161042223F9F06C
:100A900020919304203258F021E030E0FC013383B0
:100AA000228390E080E00F90DF91CF9108958091B4
:100AB0009404E82FF0E0EE59FB4F998190838F5F0B
:100AC000809394048093930481E090E0ECCF61E004
:100AD000CE0101960E94C104F7CFCF93FC01C481DF
:100AE00021E020936104C093820410929404109238
:100AF00093048385682B83E495E00E943E059091E2
:100B00009304913208F03FC0809192048111FCCF90
:100B100082E08093920481E0809391048FEF809330
:100B2000600410925F0490935E04A2E6B4E0EEE3EA
:100B3000F4E080E098132FC010923D0480913D04B2
:100B4000CC0FC82BC0933D0480919004813039F5BF
:100B50001092900480913D048093BB008091BC0072
:100B600083FDF8CF85EC8093BC00809192048230A5
:100B7000E1F3809160048F3F31F080916004803216
:100B800011F08091600410929404109293041092DA
:100B90006104CF9108952D9121938F5FCBCF85EE86
:100BA000E2CF90E080E008950F931F93CF938C01E4
:100BB000C62F0E946D056C2F6460C8010E946D05F0
:100BC0006C2F6B7FC8010E946D0583EC90E001974C
:100BD000F1F7CF911F910F9108950F931F93CF932A
:100BE000DF938C01D62FC42F607F642B0E94D40525
:100BF00080E1D89FB00111246C2BC801DF91CF9107
:100C00001F910F910C94D405CF93DF93CDB7DEB72E
:100C100028970FB6F894DEBF0FBECDBF98E0E4E290
:100C2000F1E0DE01119601900D929A95E1F7909115
:100C30001206961710F46FEF690F262F30E0220F7F
:100C4000331F41E050E04C0F5D1F240F351FF901A9
:100C50006081680F606840E08AE096E028960FB6F1
:100C6000F894DEBF0FBECDBFDF91CF910C94ED05A0
:100C700040E061E08AE096E00E94ED058BE39FE1B1
:100C80000197F1F7089541E00E94ED0581E090E0C1
:100C90000895FB0101900020E9F73197AF01461B51
:100CA000570BDC01ED91FC910280F381E02D09945A
:100CB0008F929F92AF92BF92EF92FF920F931F93EA
:100CC000CF93DF93CDB7DEB7A1970FB6F894DEBF11
:100CD0000FBECDBF7C01FA01CB0119A2223008F46E
:100CE0002AE08E010F5D1F4F822E912CB12CA12C7A
:100CF000BF01A50194010E943E14F901CA016A30A6
:100D00000CF5605DD8016E938D01232B242B252BD0
:100D100079F790E080E0109721F0BD01C7010E94B3
:100D20004906A1960FB6F894DEBF0FBECDBFDF9186
:100D3000CF911F910F91FF90EF90BF90AF909F9038
:100D40008F900895695CDECFCF92DF92EF92FF9291
:100D50000F931F93CF93DF936B01770FEE08FF087C
:100D6000F7FE1FC0EC01E881F9810190F081E02DD0
:100D70006DE209958C0144275527BA014C195D098C
:100D80006E097F092AE0CE010E945806800F911F4C
:100D9000DF91CF911F910F91FF90EF90DF90CF9057
:100DA00008952AE0B701A601DF91CF911F910F911D
:100DB000FF90EF90DF90CF900C9458060C9449066A
:100DC0000E94380666E671E08AE096E00E94DE0640
:100DD00061E080E00E94040669E771E08AE096E045
:100DE0000E94DE0662E080E00E9404066AE871E08C
:100DF0008AE096E00E94DE0663E080E00E9404063E
:100E000066E971E08AE096E00C94DE064F925F920C
:100E10006F927F928F929F92AF92BF92CF92DF920A
:100E2000EF92FF920F931F93CF93DF930AED13E09E
:100E3000C6ECD3E080E4F82EF0927C0080917A003A
:100E4000806480937A0080917A0086FDFCCF909137
:100E50007800809179008927982789278993999329
:100E60006EE170E080E090E00E94D4020C171D0754
:100E700019F748ED53E0E6ECF3E0DF018081918162
:100E800012962D913C9113972817390734F431832A
:100E9000208313969C938E93129712964A175B07A2
:100EA00069F7329683E0E83DF80739F7EAECF3E0BA
:100EB00026ED33E060E070E0CB01C190D1900D2CC5
:100EC000000CEE08FF086C0D7D1D8E1D9F1D2E175A
:100ED0003F0799F76093C2037093C3038093C403E1
:100EE0009093C5030E941F1320E030E040EA50E4D5
:100EF0000E94801320E030E040E85AE30E94801313
:100F000020E030E040EC50E40E94041526E636E68E
:100F100046EB50EC0E9480132AE037ED49EA51E499
:100F20000E9498146B017C014B015C010E94380601
:100F300061E080E00E94040667EA71E08AE096E0E2
:100F40000E94DE06A7019601C701B6010E94B115F5
:100F500061EB71E081111AC026013701E89477F83E
:100F60002FEF3FEF4FE75FE7C301B2010E94B115DA
:100F7000811126C02FEF3FEF4FE75FE7C301B201BA
:100F80000E941A131816E4F465EB71E08AE096E00B
:100F90000E9449066AE070E080E090E0DF91CF9126
:100FA0001F910F91FF90EF90DF90CF90BF90AF9087
:100FB0009F908F907F906F905F904F900C94D40291
:100FC0002FEF3FEF4FE75FE4C701B6010E94AC157A
:100FD00018161CF469EB71E0D9CF2FEF3FEF4FE704
:100FE0005FECC701B6010E941A1387FDF3CF20E022
:100FF00030E0A901C701B6010E941A1387FF0CC097
:1010000041E06DE28AE096E00E94ED05460157015D
:10101000B7FAB094B7F8B0942AE037ED43EA5BE34F
:10102000C501B4010E9498144B015C010E947D151A
:101030006B017C010E941F139B01AC01C501B4012F
:101040000E9497144B015C012AE0B701A6018AE0D7
:1010500096E00E94580641E06EE28AE096E00E9427
:10106000ED0520E030E040E251E4C501B4010E940A
:1010700080134B015C010E947D156B01F12CE12C6A
:101080002AE0B701A6018AE096E00E945806C7014F
:10109000B6010E941F139B01AC01C501B4010E945F
:1010A000971420E030E040E251E40E9480130E9457
:1010B0007D15AB0170E060E02AE08AE096E00E94D6
:1010C000580668CF8F929F92AF92BF92FF920F9374
:1010D0001F93CF93DF93F82ECB01BA01A90198019A
:1010E0000E94801320E030E04AE754E40E9480131D
:1010F0000E9476158B0160E08F2D0E943D02D0E0AA
:10110000C0E04801012E000CAA08BB088091A4048D
:101110009091A504C817D907B4F4C501B4010E9481
:10112000D402BE0186EA94E00E94A406B80186EAD1
:1011300094E00E94A4066DEB71E086EA94E00E94C0
:1011400049062196E3CF61E08F2DDF91CF911F916A
:101150000F91FF90BF90AF909F908F900C943D02A5
:101160004091990550919A058417950700F52091B3
:101170009505309196054150510950939A05409339
:101180009905481B590BBC016F5F7F4F620F731F9E
:10119000820F931F0E94B717E0919505F091960575
:1011A0008091990590919A05E80FF91F1082089592
:1011B000FC0180819181009711F00C9458160895DC
:1011C0000F931F93CF93DF93EC0188819981009750
:1011D00059F02A813B812617370730F081E0DF91F3
:1011E000CF911F910F9108958B016F5F7F4F0E94E8
:1011F000E116009759F0998388831B830A832C8119
:101200003D81232B59F7FC011082E8CF80E0E7CF26
:10121000EF92FF920F931F93CF93DF93EC017B012B
:101220008A01BA010E94E00828813981811114C025
:101230002115310519F0C9010E945816198218822A
:101240001D821C821B821A82CE01DF91CF911F91D9
:101250000F91FF90EF9008951D830C83B701C90192
:101260000E94B017F1CFFB0101900020E9F7319700
:10127000AF01461B570B0C9408091F920F920FB633
:101280000F9211242F933F934F935F936F937F930C
:101290008F939F93AF93BF93EF93FF9386EA94E06E
:1012A0000E945901FF91EF91BF91AF919F918F9152
:1012B0007F916F915F914F913F912F910F900FBE52
:1012C0000F901F9018951F920F920FB60F92112436
:1012D0002F938F939F93EF93FF93E091B604F09138
:1012E000B7048081E091BC04F091BD0482FD1BC075
:1012F00090818091BF048F5F8F732091C00482170B
:1013000041F0E091BF04F0E0EA55FB4F958F8093E8
:10131000BF04FF91EF919F918F912F910F900FBE7E
:101320000F901F9018958081F4CF1F920F920FB6E7
:101330000F9211242F933F938F939F93AF93BF935B
:101340008091840490918504A0918604B0918704D3
:101350003091830423E0230F2D3758F50196A11D0A
:10136000B11D209383048093840490938504A093FB
:101370008604B09387048091880490918904A09199
:101380008A04B0918B040196A11DB11D809388043D
:1013900090938904A0938A04B0938B04BF91AF917A
:1013A0009F918F913F912F910F900FBE0F901F90A3
:1013B000189526E8230F0296A11DB11DD2CF1F92CA
:1013C0000F920FB60F9211242F933F934F935F9379
:1013D0006F937F938F939F93AF93BF93EF93FF93FD
:1013E0008091B900887F803609F44AC0F0F58832D0
:1013F00009F4A7C018F5803109F49BC0B8F488231C
:1014000009F4F9C0883009F494C0FF91EF91BF91BD
:10141000AF919F918F917F916F915F914F913F918C
:101420002F910F900FBE0F901F901895883109F4DF
:1014300088C0803251F78093600414C0803409F46E
:101440009DC040F48033B9F38833F9F6809360048B
:1014500085ECB0C0803509F485C0883509F496C0A4
:10146000883499F60E94B704D0CF883909F48CC02B
:1014700038F5883729F050F4883611F0803729F68E
:1014800083E08093920410923C0457C0883809F49A
:101490007BC0803919F0803809F0B7CF80913C04C7
:1014A000803208F071C0E0913C0481E08E0F80939F
:1014B0003C048091BB00F0E0E45EFB4F80833DC0C4
:1014C000803B39F0E0F4803A09F479C0883A09F0B9
:1014D0009CCF84E08093920410921B0410921A0413
:1014E000E0918E04F0918F04099580911A04811186
:1014F0000FC081E080931A041092FA0309C0803C67
:1015000009F4A6CF883C09F4A3CF883B09F07DCF2E
:10151000E0911B0481E08E0F80931B04F0E0E65005
:10152000FC4F80818093BB0090911B0480911A0432
:1015300029C080913D048093BB0085EC8093BC0062
:1015400064CF90915F0480915E04981758F5E09104
:101550005F0481E08E0F80935F04F0E0E25CFB4F5C
:101560008081E9CFE0915F0481E08E0F80935F047A
:101570008091BB00F0E0E25CFB4F808390915F04C0
:1015800080915E049817C8F285E8D8CFE0915F0497
:1015900081E08E0F80935F048091BB00F0E0E25CFD
:1015A000FB4F80838091910481115CCF81E0809317
:1015B000900484EA8093BC001092920426CF85ECBC
:1015C0008093BC001092920480913C04803230F4ED
:1015D000E0913C04F0E0E45EFB4F108260913C043B
:1015E00070E0E0918C04F0918D048CE194E0099519
:1015F00010923C040ACF1092600434CF1092A904D8
:101600001092A80488EE93E0A0E0B0E08093AA04D2
:101610009093AB04A093AC04B093AD0420E331E00D
:101620003093A7042093A60425EC30E03093B30454
:101630002093B20424EC30E03093B5042093B4043A
:1016400020EC30E03093B7042093B60421EC30E076
:101650003093B9042093B80422EC30E03093BB04FB
:101660002093BA0426EC30E03093BD042093BC04F0
:101670001092BF041092C0041092C1041092C204D0
:1016800010924605109245058093470590934805B2
:10169000A0934905B0934A0582E491E090934405F4
:1016A00080934305109255051092560510925705E8
:1016B000109258051092590510925A0510925B0528
:1016C00010925C0510925D0510925E0510925F0508
:1016D00010926005109261051092620510926305E8
:1016E0001092640510920D0610920C068EE591E0A2
:1016F00090930B0680930A0687E280930E0684E19E
:101700008093130684E080931406109215061092BD
:101710009D051092A1051092A0051092A20584E5E6
:1017200091E090939C0580939B05E7EBF5E0108298
:10173000148213821582369685E0E33FF807B9F7E5
:101740008AE091E09093FE058093FD0586E091E0AC
:10175000909300068093FF0584E0809301068093B8
:1017600002068EE091E09093FC058093FB058AE0F1
:1017700090E0909304068093030684EF91E09093A9
:10178000060680930506109209061092080610922C
:10179000F7051092F8051092F9051092FA051092CB
:1017A00007061092960510929505109298051092D2
:1017B000970510929A051092990550E040E06FEB62
:1017C00071E085E995E00C940809CF93DF93CDB7DC
:1017D000DEB72A970FB6F894DEBF0FBECDBF789460
:1017E00084B5826084BD84B5816084BD85B5826026
:1017F00085BD85B5816085BD80916E0081608093D7
:101800006E0010928100809181008260809381003F
:10181000809181008160809381008091800081604F
:10182000809380008091B10084608093B1008091AA
:10183000B00081608093B00080917A0084608093D2
:101840007A0080917A00826080937A0080917A0099
:10185000816080937A0080917A00806880937A001A
:101860001092C1001092910510929205109293056A
:101870001092940510925105109252051092530542
:10188000109254050E9407034B015C017C016B011F
:1018900088EBC80E8BE0D81EE11CF11C0E940703E8
:1018A000681579058A059B0528F0C616D706E8064F
:1018B000F906A0F768EE73E080E090E00E94D402A1
:1018C0000E948D000E94070360935105709352059A
:1018D000809353059093540560EC71E086EA94E0A0
:1018E0000E94DE060E9407034B015C017C016B0134
:1018F0009AE0C90ED11CE11CF11C0E940703681577
:1019000079058A059B0528F0C616D706E806F9066C
:10191000A0F711E0109365050E940703609351053D
:1019200070935205809353059093540561ED71E0D7
:1019300086EA94E00E94DE061092960410929504C6
:1019400010929404109293041092920410939104B4
:101950001092900461E082E10E943D0261E083E127
:101960000E943D028091B9008E7F8093B9008091E2
:10197000B9008D7F8093B90088E48093B80085E436
:101980008093BC0085E091E090938F0480938E0457
:1019900086E091E090938D0480938C0410920F0662
:1019A00080911406823018F098E090930F0680938F
:1019B000120662E370E080E090E00E94D402609141
:1019C00015068AE096E00E946D0568EE73E080E0FF
:1019D00090E00E94D40260E38AE096E00E94D40581
:1019E0000BE416E4C8010197F1F760E38AE096E0A2
:1019F0000E94D405C8010197F1F760E38AE096E000
:101A00000E94D40583E592E00197F1F760E28AE055
:101A100096E00E94D40560910F06606240E08AE083
:101A200096E00E94ED0584E08093100640E06CE0B3
:101A30008AE096E00E94ED050E94380682E08093DD
:101A4000110640E066E08AE096E00E94ED0540E085
:101A500062E08AE096E00E94ED058BE39FE101974A
:101A6000F1F788E08093150660E08AE096E00E9436
:101A70006D050E948D0068ED71E08AE096E00E949D
:101A8000DE0661E080E00E94040667EE71E08AE015
:101A900096E00E94DE0662E080E00E94040666EFA7
:101AA00071E08AE096E00E94DE0663E080E00E943A
:101AB000040665E072E08AE096E00E94DE0661E0DE
:101AC00083E00E946F0261E082E00E946F0261E0A9
:101AD00085E00E946F0261E084E00E946F02109135
:101AE0000301612F83E00E943D026091020182E0C8
:101AF0000E943D02612F85E00E943D02612F84E03B
:101B00000E943D0268EE73E080E090E00E94D40203
:101B10000E94E006812C912C80EFA82E80E4B82E44
:101B2000412C512C90E2692E90E4792EFF24F394FD
:101B3000CC24C394DD24D3940E946F03E82E882321
:101B400009F4A7C089831A820091990510919A051A
:101B50000F5F1F4FB80185E995E00E94E0088823D8
:101B600099F0209195053091960580919905909175
:101B70009A05BE016F5F7F4F820F931F0E94B017BF
:101B800010939A0500939905A3E2EA128FC00E9470
:101B900038068091990590919A0501970E94B008A6
:101BA0001A8219821C821B821E821D8260919505F9
:101BB000709196056115710541F04091990550911C
:101BC0009A05CE0101960E9408098D819E81892B7C
:101BD00009F443C062E172E089819A810E94A717EB
:101BE000892BD9F50E94380663E080E00E94040644
:101BF00066E172E08AE096E00E94DE0664E082E040
:101C00000E9404066DE172E08AE096E00E94DE0622
:101C100018E0BAE02B163104F4F41092150660E0D7
:101C20008AE096E00E946D0562E370E080E090E05B
:101C30000E94D4021093150660E08AE096E00E94AC
:101C40006D0562E370E080E090E00E94D4028FEFC7
:101C5000281A380ADECF0E943806CE0101960E946B
:101C6000D8084091990550919A0560919505709119
:101C7000960586EA94E00E94D8006DEB71E086EA52
:101C800094E00E9449066FEB71E085E995E00E94BF
:101C90003309A0E0B0E0AB2B09F44ECF0E94450120
:101CA000882309F443CF0E94000040CF91E4E91259
:101CB000D2C00E9438060E946F03E82E1A82198251
:101CC0001C821B821E821D8248E050E067E272E0A7
:101CD000CE0101960E94080901E010E0A4E4EA1692
:101CE00009F4B2C00E946F03E82E60E080E00E9419
:101CF000040660E372E08AE096E00E94DE0661E09E
:101D000080E00E94040665E472E08AE096E00E94AA
:101D1000DE0662E080E00E94040663E572E08AE08D
:101D200096E00E94DE06EE2009F45AC0B1E3EB1201
:101D300016C00830110509F47EC00F5F1F4FF8016F
:101D40003297E730F105E0F4E855F14F0C94B61501
:101D5000050F0C0F0F0F120F150F180F1B0F82E33B
:101D6000E81206C00130110559F001501109E7CF02
:101D700093E2E912E4CF1093050100930401DFCF51
:101D800067E272E0CE0101960E94330901E010E0A3
:101D900062E088E00E94040667EA72E08AE096E06A
:101DA0000E94DE0662E088E00E9404064D815E81AA
:101DB00069817A818AE096E00E94D80063E080E041
:101DC0000E94040664EB72E08AE096E00E94DE0660
:101DD00060910401709105018AE096E00E94A406DA
:101DE000609104017091050186EA94E00E94A406C6
:101DF0006DEB71E086EA94E00E9449066AE070E0CB
:101E000080E090E00E94D40269CF6CE572E0CE01E0
:101E100001960E943309BCCF69E672E0F8CF65E70E
:101E200072E0F5CF60E872E0F2CF6CE872E0EFCFDD
:101E300066E972E0ECCF61EA72E0CE0101960E94A1
:101E4000330908E010E0A4CF0E94E006CE0101961D
:101E50000E94D8081ECFA2E4EA12FCC00E943806F5
:101E60000E946F03182F60E080E00E9404066DE777
:101E700071E08AE096E00E94DE0661E080E00E9468
:101E8000040662EC72E08AE096E00E94DE0661E001
:101E900085E00E940406609103016F2570E08AE0EE
:101EA00096E00E94A40661E087E00E94040667ECC9
:101EB00072E08AE096E00E94DE0661E08BE00E941C
:101EC0000406609102016F2570E08AE096E00E94AE
:101ED000A40662E080E00E9404066CEC72E08AE0F6
:101EE00096E00E94DE0662E085E00E9404066091B2
:101EF00001016F2570E08AE096E00E94A40662E08E
:101F000087E00E94040661ED72E08AE096E00E949C
:101F1000DE0662E08BE00E940406609100016F25FE
:101F200070E08AE096E00E94A406143409F493C29B
:101F30000E946F03182F8823D9F3813331F58091E4
:101F400003018823C9F01092030160E083E00E943E
:101F50003D0270E060E086EA94E00E94A40661E041
:101F600085E00E940406609103016F2570E08AE01D
:101F700096E00E94A406DCCFD092030161E083E0EA
:101F80000E943D0261E070E0E6CF823301F580916E
:101F90000201882399F01092020160E082E00E9421
:101FA0003D0270E060E086EA94E00E94A40661E0F1
:101FB0008BE00E94040660910201D7CFD09202010B
:101FC00061E082E00E943D0261E070E0ECCF83338B
:101FD00009F0E9C280910101882399F01092010172
:101FE00060E085E00E943D0270E060E086EA94E0F7
:101FF0000E94A40662E085E00E940406609101014F
:10200000B4CFD092010161E085E00E943D0261E021
:1020100070E0ECCF80910001882399F010920001CC
:1020200060E084E00E943D0270E060E086EA94E0B7
:102030000E94A40662E08BE00E9404066091000109
:1020400094CFD092000161E084E00E943D0261E003
:1020500070E0ECCFB3E4EB12C0C00E9406070E9410
:102060006F03182F0E9406071434C9F70E94E00678
:102070000E9438060E946F03E82E6FEB71E085E93D
:1020800095E00E94330994E4E91609F4E4C10E9442
:102090006F03E82E60E080E00E94040666ED72E0C7
:1020A0008AE096E00E94DE0661E080E00E9404067D
:1020B00068EE72E08AE096E00E94DE0661E089E068
:1020C0000E940406EE2019F3E9821A820091990514
:1020D00010919A050F5F1F4FB80185E995E00E94A6
:1020E000E008882399F0209195053091960580911C
:1020F000990590919A05BE016F5F7F4F820F931FE4
:102100000E94B01710939A05009399054091990584
:1021100050919A0560919505709196058AE096E038
:102120000E94D800A3E2EA12AECF80919905909167
:102130009A0501970E94B0088091950590919605A7
:10214000009709F44EC00E94DE127093A5046093BC
:10215000A4046FEB71E085E995E00E9433090E94C9
:1021600038060E946F0360E080E00E94040662EF80
:1021700072E08AE096E00E94DE0661E080E00E9464
:10218000040663E073E08AE096E00E94DE0662E007
:1021900080E00E94040664E173E08AE096E00E9419
:1021A000DE060E946F038823E1F38133F1F4C092CD
:1021B000A304E0910401F09105013197E830F105A5
:1021C00088F5EB51FF4E0C94B615FA102E124312FF
:1021D00064127D129212A712BC1284E4E81259CD47
:1021E00047CF60E070E0CB01B0CF8233D1F61092E0
:1021F000A304DFCF40929704509298046092990410
:1022000070929A0440929B0450929C0460929D04A8
:1022100070929E0440929F045092A0046092A10488
:102220007092A2040E9438060E946F03182F60E08B
:1022300080E00E94040667E273E08AE096E00E9474
:10224000DE0660910401709105018AE096E00E942B
:10225000A40661E080E00E94040664E373E08AE083
:1022600096E00E94DE066091A4047091A5048AE0C5
:1022700096E00E94A40662E080E00E94040663E407
:1022800073E08AE096E00E94DE0663E080E00E9450
:10229000040660E573E08AE096E00E94DE061434EE
:1022A00009F4D9C00E946F03182F8134C1F78091BF
:1022B000970490919804A0919904B0919A048F8307
:1022C0009887A987BA872FE632E143E85AE3BC0131
:1022D000CD010E94AC15181664F40F81188529856C
:1022E0003A8549E25CE56FE47FE382E090E00E949A
:1022F00062080E94380669E573E08AE096E00E9471
:10230000DE0661E080E00E9404066AE673E08AE08F
:1023100096E00E94DE0662E080E00E9404066EE71E
:1023200073E08AE096E00E94DE068091A304882391
:1023300009F42FC168EE73E080E090E00E94D402BF
:1023400080919B0490919C04A0919D04B0919E0467
:102350008F839887A987BA872FE632E143E85AE34B
:10236000BC01CD010E94AC15181664F40F811885CC
:1023700029853A8549E25CE56FE47FE385E090E0FA
:102380000E9462080E94380661E973E08AE096E0E4
:102390000E94DE0661E080E00E9404066AE673E0C7
:1023A0008AE096E00E94DE0662E080E00E94040679
:1023B0006EE773E08AE096E00E94DE068091A30457
:1023C000882309F4EBC068EE73E080E090E00E949F
:1023D000D40280919F049091A004A091A104B09197
:1023E000A2048F839887A987BA872FE632E143E852
:1023F0005AE3BC01CD010E94AC15181664F40F819C
:10240000188529853A8541E75DE36AE47FE384E046
:1024100090E00E9462080E94380664E670E080E066
:1024200090E00E94D40260E080E00E94040660EA2E
:1024300073E08AE096E00E94DE0661E080E00E94A0
:10244000040661EB73E08AE096E00E94DE060E94DB
:102450006F038434E1F70E94E0061BCC809297045E
:1024600090929804A0929904B0929A0480E090E02F
:10247000A0E2B1E480939B0490939C04A0939D04FC
:10248000B0939E04C7CE80E090E0A0E2B1E48093D8
:10249000970490939804A0939904B0939A0480931E
:1024A0009B0490939C04A0939D04B0939E0480E0B1
:1024B00090E0A0EAB0E480939F049093A004A093DE
:1024C000A104B093A204AECE809297049092980497
:1024D000A0929904B0929A0480929B0490929C04DA
:1024E000A0929D04B0929E0480929F049092A004BA
:1024F000A092A104B092A20495CE809297049092EB
:102500009804A0929904B0929A0440929B0450922D
:102510009C0460929D0470929E0480E090E0A0E292
:10252000B1E4C9CF8092970490929804A092990444
:10253000B0929A0440929B0450929C0460929D0435
:1025400070929E0480E090E0A8E4B1E4B4CF809261
:10255000970490929804A0929904B0929A041092D1
:102560009B0410929C0410929D0410929E0480E0A3
:1025700090E0A0E7B1E49FCF80E090E0A0EAB0E473
:102580008093970490939804A0939904B0939A042D
:10259000E6CF0E946F038134E1F7D2CE0E946F0331
:1025A0008134E1F716CF843309F434CD843409F44F
:1025B00052CFBBCC85E995E00C94D8081F93FC0161
:1025C00099278827BC01E89411911032E9F319305A
:1025D00010F01E30C8F31B3251F01D3249F46894DC
:1025E00006C00E940513610F711D811D911D11917F
:1025F00010531A30B0F33EF4909580957095619524
:102600007F4F8F4F9F4F1F910895592F482F372F7E
:10261000262F660F771F881F991F660F771F881F49
:10262000991F620F731F841F951F660F771F881FE6
:10263000991F08950E945C1308F481E00895E894BE
:1026400009C097FB3EF490958095709561957F4FFA
:102650008F4F9F4F9923A9F0F92F96E9BB279395A8
:10266000F695879577956795B795F111F8CFFAF4B8
:10267000BB0F11F460FF1BC06F5F7F4F8F4F9F4FE9
:1026800016C0882311F096E911C0772321F09EE847
:10269000872F762F05C0662371F096E8862F70E0AD
:1026A00060E02AF09A95660F771F881FDAF7880F87
:1026B0009695879597F90895990F0008550FAA0BDD
:1026C000E0E8FEEF16161706E807F907C0F0121645
:1026D0001306E407F50798F0621B730B840B950B48
:1026E00039F40A2661F0232B242B252B21F408959D
:1026F0000A2609F4A140A6958FEF811D811D08953A
:102700000E9493130C9404140E94F61338F00E9454
:10271000FD1320F0952311F00C94ED130C94F3139A
:1027200011240C9438140E94151470F3959FC1F372
:10273000950F50E0551F629FF001729FBB27F00D6F
:10274000B11D639FAA27F00DB11DAA1F649F6627C4
:10275000B00DA11D661F829F2227B00DA11D621F13
:10276000739FB00DA11D621F839FA00D611D221FCD
:10277000749F3327A00D611D231F849F600D211DB1
:10278000822F762F6A2F11249F5750409AF0F1F034
:1027900088234AF0EE0FFF1FBB1F661F771F881F9D
:1027A00091505040A9F79E3F510580F00C94ED13D5
:1027B0000C9438145F3FE4F3983ED4F386957795F4
:1027C0006795B795F795E7959F5FC1F7FE2B880F43
:1027D000911D9695879597F9089597F99F6780E8D9
:1027E00070E060E008959FEF80EC089500240A9463
:1027F0001616170618060906089500240A941216DC
:102800001306140605060895092E0394000C11F40E
:10281000882352F0BB0F40F4BF2B11F460FF04C0BB
:102820006F5F7F4F8F4F9F4F089557FD9058440F14
:10283000551F59F05F3F71F04795880F97FB991F1F
:1028400061F09F3F79F087950895121613061406DC
:10285000551FF2CF4695F1DF08C016161706180669
:10286000991FF1CF86957105610508940895E89444
:10287000BB2766277727CB0197F90895A1E21A2E87
:10288000AA1BBB1BFD010DC0AA1FBB1FEE1FFF1F14
:10289000A217B307E407F50720F0A21BB30BE40B64
:1028A000F50B661F771F881F991F1A9469F76095AB
:1028B0007095809590959B01AC01BD01CF01089565
:1028C0002F923F924F925F926F927F928F929F9240
:1028D000AF92BF92CF92DF92EF92FF920F931F932E
:1028E000CF93DF93CDB7DEB7CA1BDB0B0FB6F894DF
:1028F000DEBF0FBECDBF09942A88398848885F841F
:102900006E847D848C849B84AA84B984C884DF808F
:10291000EE80FD800C811B81AA81B981CE0FD11D73
:102920000FB6F894DEBF0FBECDBFED01089550582D
:10293000BB27AA270E94AF140C9404140E94F6131C
:1029400038F00E94FD1320F039F49F3F19F426F46B
:102950000C94F3130EF4E095E7FB0C94ED13E92FC0
:102960000E94151458F3BA17620773078407950776
:1029700020F079F4A6F50C9437140EF4E0950B2EA4
:10298000BA2FA02D0B01B90190010C01CA01A001C1
:102990001124FF27591B99F0593F50F4503E68F11C
:1029A0001A16F040A22F232F342F4427585FF3CF5D
:1029B000469537952795A795F0405395C9F77EF42E
:1029C0001F16BA0B620B730B840BBAF09150A1F077
:1029D000FF0FBB1F661F771F881FC2F70EC0BA0FFD
:1029E000621F731F841F48F4879577956795B79585
:1029F000F7959E3F08F0B0CF9395880F08F0992780
:102A0000EE0F9795879508950E9418150C9404145D
:102A10000E94FD1358F00E94F61340F029F45F3F26
:102A200029F00C94ED1351110C9438140C94F313F9
:102A30000E94151468F39923B1F3552391F3951B64
:102A4000550BBB27AA2762177307840738F09F5FCF
:102A50005F4F220F331F441FAA1FA9F335D00E2E3C
:102A60003AF0E0E832D091505040E695001CCAF7A9
:102A70002BD0FE2F29D0660F771F881FBB1F26176C
:102A800037074807AB07B0E809F0BB0B802DBF0143
:102A9000FF2793585F4F3AF09E3F510578F00C9412
:102AA000ED130C9438145F3FE4F3983ED4F386950D
:102AB00077956795B795F7959F5FC9F7880F911D33
:102AC0009695879597F90895E1E0660F771F881F1F
:102AD000BB1F621773078407BA0720F0621B730BD2
:102AE000840BBA0BEE1F88F7E09508950E947D15C0
:102AF0006894B1110C94381408950E941D1488F044
:102B00009F5798F0B92F9927B751B0F0E1F0660FB1
:102B1000771F881F991F1AF0BA95C9F714C0B130F2
:102B200091F00E943714B1E008950C943714672F88
:102B3000782F8827B85F39F0B93FCCF38695779521
:102B40006795B395D9F73EF490958095709561950A
:102B50007F4F8F4F9F4F08950E945C1308F48FEFB3
:102B600008950E945C13880B990B0895EE0FFF1FC8
:102B70000590F491E02D09940F931F93CF93DF9369
:102B80008230910510F482E090E0E0911806F09117
:102B9000190630E020E0B0E0A0E0309799F421156C
:102BA000310509F44AC0281B390B24303105D8F50A
:102BB0008A819B816115710589F1FB019383828371
:102BC000FE0111C0408151810281138148175907CC
:102BD000E0F04817590799F4109761F012960C939A
:102BE000129713961C933296CF01DF91CF911F91CC
:102BF0000F9108950093180610931906F4CF21152C
:102C0000310551F04217530738F0A901DB019A0151
:102C1000BD01DF01F801C1CFEF01F9CF9093190693
:102C200080931806CDCFFE01E20FF31F819391939D
:102C30002250310939832883D7CF2091160630914D
:102C40001706232B41F4209120013091210130936C
:102C500017062093160620911E0130911F012115A1
:102C6000310541F42DB73EB7409122015091230127
:102C7000241B350BE0911606F0911706E217F307B7
:102C8000A0F42E1B3F0B2817390778F0AC014E5FDC
:102C90005F4F2417350748F04E0F5F1F50931706FC
:102CA00040931606819391939FCFF0E0E0E09CCF94
:102CB000CF93DF930097E9F0FC01329713821282E1
:102CC000A0911806B0911906ED0130E020E01097B0
:102CD000A1F420813181820F931F2091160630913B
:102CE00017062817390709F061C0F0931706E0931B
:102CF0001606DF91CF910895EA01CE17DF07E8F5B8
:102D00004A815B819E0141155105B1F7E901FB83C1
:102D1000EA8349915991C40FD51FEC17FD0761F45F
:102D2000808191810296840F951FE90199838883A0
:102D3000828193819B838A83F0E0E0E012968D91FB
:102D40009C9113970097B9F52D913C911197CD0166
:102D50000296820F931F20911606309117062817AE
:102D6000390739F6309751F5109219061092180666
:102D7000B0931706A0931606BCCFD383C2834081BD
:102D80005181840F951FC817D90761F44E5F5F4FBB
:102D900088819981480F591F518340838A819B8183
:102DA000938382832115310509F0B0CFF093190682
:102DB000E09318069ECFFD01DC01C0CF1382128282
:102DC000D7CFB0E0A0E0E7EEF6E10C9462148C01FE
:102DD000009751F4CB010E94BC158C01C801CDB7FE
:102DE000DEB7E0E10C947E14FC01E60FF71F9C01B6
:102DF00022503109E217F30708F49DC0D901CD91A3
:102E0000DC911197C617D70798F0C530D10530F37C
:102E1000CE0104978617970708F3C61BD70B229796
:102E2000C193D1936D937C93CF010E945816D6CF56
:102E30005B01AC1ABD0A4C018C0E9D1EA0911806B8
:102E4000B0911906512C412CF12CE12C109731F541
:102E500080911606909117068815990509F05CC0B7
:102E60004616570608F058C080911E0190911F0128
:102E7000009741F48DB79EB74091220150912301F4
:102E8000841B950BE817F90708F055C0F093170657
:102E9000E0931606F90171836083A0CF8D919C9118
:102EA000119712966C90129713967C901397A81511
:102EB000B90559F56C0142E0C40ED11CCA14DB04FB
:102EC00020F1AC014A195B09DA011296159780F0DE
:102ED0006282738251834083D9016D937C93E114A4
:102EE000F10471F0D7011396FC93EE93129776CF0D
:102EF00022968C0F9D1FF90191838083F301EFCF00
:102F0000F0931906E093180669CF4816590608F49D
:102F10002C017D01D3019ACFCB010E94BC157C010D
:102F2000009749F0AE01B8010E949E17C8010E94A7
:102F30005816870153CF10E000E050CFFB01DC01B1
:102F400002C001900D9241505040D8F70895FB0106
:102F5000DC018D91019080190110D9F3990B08952E
:102F6000FB01DC0101900D920020E1F70895FB01C7
:102F7000DC014150504048F001900D920020C9F70B
:102F800001C01D9241505040E0F7089510E0C2E6A4
:102F9000D0E004C0FE010E94B6152196C336D107C9
:062FA000C9F7F894FFCF11
:102FA600010101010100060708090A0B0C0D313267
:102FB600334134353642373839432A30234400000A
:102FC6001A068000000040001400540000000000B3
:102FD6007B01D8000801C801390117012B01000047
:102FE60000003E051105D10507010A05F704E804AE
:102FF60000000000AB026B023A020000000043062C
:10300600D800D105B60441202D20536574205761A0
:1030160074657220446F73650042202D20546F67DB
:10302600676C652050756D70730043202D205265C6
:1030360061642050480044202D20426567696E2057
:10304600446F73696E670073656E736F72203D20FF
:10305600006E616E00696E66006F7666000D0A008E
:10306600564D4450565F317C315F564D4450560A9A
:1030760000564D4450525F00202020202041757498
:103086006F6D61746564002020202020204E7574C9
:103096007269656E74002020202020417373697365
:1030A60074616E74002020202020202028414E418B
:1030B6002900313137005441594C4F5200552052A6
:1030C60020474159595900536565646C696E67001C
:1030D60043686F6F736520646F73696E67206C65F4
:1030E60076656C3A00313A20496E6320323A2044C4
:1030F60065630043757272656E743A004561726C61
:10310600792047726F777468004C61746520477246
:103116006F777468005472616E736974696F6E00BC
:103126004561726C7920426C6F6F6D004D69642049
:10313600426C6F6F6D004C61746520426C6F6F6DF1
:1031460000526970656E002020202020202020205B
:103156002020200053656C65637465642049443AF9
:10316600200050313A200050323A200050333A20A5
:103176000050343A20004E756D626572206F6620ED
:1031860047616C6C6F6E7300746F20446F73653AA1
:1031960020004175746F206F72204D616E75616CF1
:1031A6006C7900537769746368204E75747269652B
:1031B6006E74730031202D204175746F207C20328F
:1031C600202D204D616E00646F7365206C657665F9
:1031D6006C3A200023206F662067616C6C6F6E73FB
:1031E6003A200041202D20436F6E74696E7565008C
:1031F60044202D204578697400466C6F72614D69D4
:1032060063726F20446F7365640050726573732038
:103216004120746F20436F6E74696E756500496650
:10322600204D616E75616C6C7920446F73696E67B1
:1032360000466C6F726147726F20446F736564005D
:10324600466C6F7261426C6F6F6D20446F7365647C
:10325600005072657373204420746F20457869743A
:02326600000066
:107E0000112484B714BE81FFF0D085E080938100F7
:107E100082E08093C00088E18093C10086E0809377
:107E2000C20080E18093C4008EE0C9D0259A86E02C
:107E300020E33CEF91E0309385002093840096BBD3
:107E4000B09BFECF1D9AA8958150A9F7CC24DD24C4
:107E500088248394B5E0AB2EA1E19A2EF3E0BF2EE7
:107E6000A2D0813461F49FD0082FAFD0023811F036
:107E7000013811F484E001C083E08DD089C08234E0
:107E800011F484E103C0853419F485E0A6D080C0E4
:107E9000853579F488D0E82EFF2485D0082F10E0AE
:107EA000102F00270E291F29000F111F8ED06801E7
:107EB0006FC0863521F484E090D080E0DECF843638
:107EC00009F040C070D06FD0082F6DD080E0C81688
:107ED00080E7D80618F4F601B7BEE895C0E0D1E017
:107EE00062D089930C17E1F7F0E0CF16F0E7DF06D8
:107EF00018F0F601B7BEE89568D007B600FCFDCFD4
:107F0000A601A0E0B1E02C9130E011968C91119780
:107F100090E0982F8827822B932B1296FA010C0160
:107F200087BEE89511244E5F5F4FF1E0A038BF0790
:107F300051F7F601A7BEE89507B600FCFDCF97BE46
:107F4000E89526C08437B1F42ED02DD0F82E2BD052
:107F50003CD0F601EF2C8F010F5F1F4F84911BD097
:107F6000EA94F801C1F70894C11CD11CFA94CF0C13
:107F7000D11C0EC0853739F428D08EE10CD085E9AC
:107F80000AD08FE07ACF813511F488E018D01DD067
:107F900080E101D065CF982F8091C00085FFFCCF94
:107FA0009093C60008958091C00087FFFCCF809118
:107FB000C00084FD01C0A8958091C6000895E0E648
:107FC000F0E098E1908380830895EDDF803219F02E
:107FD00088E0F5DFFFCF84E1DECF1F93182FE3DFCA
:107FE0001150E9F7F2DF1F91089580E0E8DFEE27F6
:047FF000FF270994CA
:027FFE00040479
:0400000300007E007B
:00000001FF