:100000000C9463000C948B000C948B000C948B006C
:100010000C948B000C948B000C948B000C948B0034
:100020000C948B000C948B000C948B000C948B0024
:100030000C948B000C948B000C948B000C948B0014
:100040000C94260B0C948B000C94F40A0C94CE0A9E
:100050000C948B000C948B000C948B000C948B00F4
:100060000C94700B0C948B000000000024002700FF
:100070002A0000000000250028002B0000000000DE
:1000800023002600290004040404040404040202DA
:100090000202020203030303030301020408102007
:1000A0004080010204081020010204081020000012
:1000B0000008000201000003040700000000000027
:1000C00000008F0CE51511241FBECFEFD8E0DEBF76
:1000D000CDBF26E0A0E3B4E001C01D92A239B20773
:1000E000E1F714E0A0E0B1E0E8E0F6E302C005903B
:1000F0000D92A033B107D9F710E0C2E6D0E004C0FA
:100100002197FE010E94E718C136D107C9F70E9466
:10011000760D0C94F71A0C940000EEE1F5E0A0893E
:10012000B18982E08C93A485B5851C92A685B7859C
:100130008FEC8C93108EA489B58986E08C93A2896C
:10014000B3898C9180618C93A289B3898C918860EA
:100150008C93A289B3898C9180688C930288F389EF
:10016000E02D80818F7D8083089596E0899FD00166
:100170001124AD5EB94F90967C936E935F9791E09A
:1001800091969C939197E0918006F09181069091D1
:100190007F06992339F0309751F0811108C0809182
:1001A0002F060994309719F05C968C91FACF089538
:1001B000AF92BF92CF92DF92EF92FF920F931F9375
:1001C000CF93DF936C017B018B01040F151FEB01B3
:1001D0005E01AE18BF08C017D10759F06991D6016A
:1001E000ED91FC910190F081E02DC6010995892BDC
:1001F00079F7C501DF91CF911F910F91FF90EF909B
:10020000DF90CF90BF90AF9008950895089508951E
:10021000FC01538D448D252F30E0842F90E0821B0C
:10022000930B541710F0CF96089501970895FC0191
:10023000918D828D981761F0A28DAE0FBF2FB11DE9
:100240005D968C91928D9F5F9F73928F90E0089541
:100250008FEF9FEF0895FC01918D828D981731F0FB
:10026000828DE80FF11D858D90E008958FEF9FEF4F
:100270000895FC01918D228D892F90E0805C9F4F25
:10028000821B91098F73992708958EE195E00E9452
:10029000390121E0892B09F420E0822F089580E0C4
:1002A00090E0892B29F00E94450181110C940000F7
:1002B0000895FC01A48DA80FB92FB11DA35ABF4FFB
:1002C0002C91848D90E001968F739927848FA68955
:1002D000B7892C93A089B1898C91837080648C93A9
:1002E000938D848D981306C00288F389E02D808158
:1002F0008F7D80830895EF92FF920F931F93CF938A
:10030000DF93EC0181E0888F9B8D8C8D98131AC050
:10031000E889F989808185FF15C09FB7F894EE8937
:10032000FF896083E889F989808183708064808394
:100330009FBF81E090E0DF91CF911F910F91FF90DF
:10034000EF900895F62E0B8D10E00F5F1F4F0F7387
:100350001127E02E8C8D8E110CC00FB607FCFACF42
:10036000E889F989808185FFF5CFCE010E94590186
:10037000F1CFEB8DEC0FFD2FF11DE35AFF4FF08213
:100380009FB7F8940B8FEA89FB8980818062CFCF79
:10039000CF93DF93EC01888D8823B9F0AA89BB89BC
:1003A000E889F9898C9185FD03C0808186FD0DC0A7
:1003B0000FB607FCF7CF8C9185FFF2CF808185FFC8
:1003C000EDCFCE010E945901E9CFDF91CF91089581
:1003D000833081F028F4813099F08230A9F00895BB
:1003E0008730A9F08830C9F08430B1F48091800062
:1003F0008F7D03C0809180008F7780938000089567
:1004000084B58F7784BD089584B58F7DFBCF8091AF
:10041000B0008F778093B00008958091B0008F7DF9
:10042000F9CFCF93DF93282F30E0F901E255FF4F4A
:100430008491F901E656FF4FD491F901EA57FF4F35
:10044000C491CC23A1F081110E94E801EC2FF0E0CF
:10045000EE0FFF1FE458FF4FA591B491EC91ED23EF
:1004600081E090E009F480E0DF91CF91089580E091
:1004700090E0FACF862F0C9411021F93CF93DF9355
:10048000282F30E0F901E255FF4F8491F901E6563B
:10049000FF4FD491F901EA57FF4FC491CC23A9F043
:1004A000162F81110E94E801EC2FF0E0EE0FFF1FE4
:1004B000EE58FF4FA591B4918FB7F894EC911111BC
:1004C00008C0D095DE23DC938FBFDF91CF911F91C1
:1004D0000895DE2BF8CF862F642F0C943D02CF9326
:1004E000DF9390E0FC01E656FF4F24918A579F4F1F
:1004F000FC0184918823C9F090E0880F991FFC01CA
:10050000E859FF4FA591B491FC01EE58FF4FC591FA
:10051000D49161110DC09FB7F8948C9120958223DE
:100520008C938881282328839FBFDF91CF910895E2
:10053000623051F49FB7F8943C91822F80958323C9
:100540008C93E8812E2BEFCF8FB7F894EC912E2B64
:100550002C938FBFEACF862F642F0C946F023FB786
:10056000F8948091FF0490910005A0910105B0914D
:10057000020526B5A89B05C02F3F19F00196A11DC5
:10058000B11D3FBFBA2FA92F982F8827BC01CD01DD
:10059000620F711D811D911D42E0660F771F881F3C
:1005A000991F4A95D1F708958F929F92AF92BF926B
:1005B000CF92DF92EF92FF926B017C010E94AF021B
:1005C0004B015C01C114D104E104F104B9F00E94B3
:1005D000AF02681979098A099B09683E7340810551
:1005E000910580F321E0C21AD108E108F10888EEF4
:1005F000880E83E0981EA11CB11CE4CFFF90EF9001
:10060000DF90CF90BF90AF909F908F9008952FB7BD
:10061000F8946091FB047091FC048091FD0490912A
:10062000FE042FBF08950F931F93CF93DF93C82F1E
:10063000D62F86E0C89FF0011124ED5EF94F11A27C
:10064000878D90A181309105F1F058F082309105AD
:10065000F1F1039709F440C0DF91CF911F910F9101
:1006600008956623C9F361E070E08C2F0E94B50005
:100670000E94070360936B0670936C0680936D066F
:1006800090936E06E9CF0E94070300916B061091CC
:100690006C0620916D0630916E06AB01BC01401BCB
:1006A000510B620B730B80917D0690917E06B0E03A
:1006B000A0E084179507A607B70748F462E070E04A
:1006C0008C2FDF91CF911F910F910C94B50063E0B7
:1006D00070E0D111C1CFF4CF70E060E0F1CF6F9244
:1006E0007F928F929F92AF92BF92CF92DF92EF92C2
:1006F000FF920F931F93CF93DF9381E080937F0648
:100700000E94070300916F061091700620917106F8
:1007100030917206AB01BC01401B510B620B730B95
:1007200080917B0690917C06B0E0A0E0841795074D
:10073000A607B70708F014C1C0E080917906C81772
:1007400060F4E0917506F0917606EC0FF11D62E021
:1007500080810E946F02CF5FF0CF712C812C912C91
:100760005401839480917A06781608F05FC0072DB3
:1007700010E0E0917706F0917806E00FF11F61E05C
:1007800080810E946F02E0917706F0917806E00F79
:10079000F11F60E080810E943D02D501C401072C59
:1007A00004C0880F991FAA1FBB1F0A94D2F76C01BF
:1007B0007C01E094F094612C809179066816F8F43D
:1007C000C62DD0E0E0917506F0917606EC0FFD1F86
:1007D00080810E9411022496CC0FDD1FCD5ED94F7F
:1007E000892B41F4888199818C299D29998388835B
:1007F0006394E2CF888199818E219F21F7CFE09188
:100800007706F0917806E00FF11F61E080810E9489
:100810003D028091770690917806080F191F60E0DD
:10082000F80180810E946F0273949CCFC3E1D6E0EF
:10083000FE018FEF9FEF278D30A1232B21F4148E23
:10084000968F858F11A2369626E0EF34F20799F73E
:10085000F12C96E0D92E80917906F81608F050C058
:10086000E12C0F2D10E0000F111F055E194F209194
:100870007A06E21608F042C0F801608171810E2C00
:1008800002C0769567950A94E2F7F29E90011124D2
:100890002E0D311DE3E1F6E080E0458D568D2417E5
:1008A000350709F461C08F5F36968A30B1F760FF73
:1008B00023C0E3E1F6E090E080E0448D411117C0F1
:1008C000E0917306F0917406E20FF31F4081D89E09
:1008D000F001D99EF00D1124ED5EF94F448F368F53
:1008E000258F10A2178E61E00E94130305C00196A8
:1008F00036968A30910509F7E394B9CFF394ABCFDC
:1009000010E089A18111182F2696F6E0CF34DF0779
:10091000C1F70E94070360936F067093700680937F
:100920007106909372061123D9F0809134068823C2
:10093000B9F08091320690913306019789F4809145
:100940002F06DF91CF911F910F91FF90EF90DF90D5
:10095000CF90BF90AF909F908F907F906F900895B1
:1009600010927F0680E0EDCF6170BECF0895209198
:100970008904260F3327331F21323105ECF42091EF
:10098000D204FC0190E080E0243069F082E0089518
:10099000A09189042191AC0147595B4FA40FB52F59
:1009A000B11D2C930196861798F380918904680FE6
:1009B0006093890480E0089581E008951092D20444
:1009C00081E08093D1041092AC0461E082E10E9446
:1009D0003D0261E083E10E943D02E9EBF0E08081AD
:1009E0008E7F808380818D7F808388E48093B800B0
:1009F00085E48093BC000895CF93DF9391E09093BA
:100A000068048823B9F0C091B800D091BA008091F1
:100A1000BC008A7B8093BC0060E082E10E943D02C2
:100A200060E083E10E943D020E94DE04D093BA00A0
:100A3000C093B800DF91CF910895E0910A058091AD
:100A40000905E81730F4F0E0E85BFB4F808190E0A7
:100A500008958FEF9FEF089590910A058091090501
:100A60002FEF3FEF981748F4E92FF0E0E85BFB4FDA
:100A7000208130E09F5F90930A05C901089580911D
:100A8000090590910A05891B990B0895CF92DF9271
:100A9000EF92FF920F931F93CF93DF937C01CB01D3
:100AA0008A012091D804222389F0EB016B01C40E46
:100AB000D51ECC15DD0569F06991D701ED91FC914A
:100AC0000190F081E02DC7010995F3CF642F0E94BA
:100AD000B704C801DF91CF911F910F91FF90EF9064
:100AE000DF90CF900895CF93DF931F92CDB7DEB7FD
:100AF00069832091D8042223F9F020910705203240
:100B000058F021E030E0FC013383228390E080E064
:100B10000F90DF91CF91089580910805E82FF0E0C4
:100B2000E752FB4F998190838F5F809308058093F4
:100B3000070581E090E0ECCF61E0CE0101960E94D4
:100B4000B704F7CFCF92DF92EF92FF920F931F93EC
:100B5000CF93DF93FC01C48121E02093D804C0939C
:100B6000F90410920805109207058385682B8BEB1A
:100B700095E00E947305D0910705D13208F092C02C
:100B80000E94AF026B017C018091D204811165C08B
:100B900082E08093D20481E08093D1048FEF809330
:100BA000D0041092CF04D093CE04A9EDB4E0EEEAC5
:100BB000F4E080E0D81385C01092AD048091AD04BC
:100BC000CC0FC82BC093AD048091AC04813009F0E8
:100BD0007CC01092AC040E94AF026B017C0180913A
:100BE000AD048093BB008091D4049091D504A09172
:100BF000D604B091D704892B8A2B8B2B99F00E94B5
:100C0000AF020091D4041091D5042091D604309104
:100C1000D7046C197D098E099F0906171707280745
:100C20003907E0F18091BC0083FDD9CF85EC80933A
:100C3000BC000E94AF026B017C018091D204823023
:100C400009F445C08091D0048F3F61F18091D004B8
:100C5000803241F18091D00425C08091D4049091DC
:100C6000D504A091D604B091D704892B8A2B8B2B65
:100C700009F48ACF0E94AF020091D4041091D504E8
:100C80002091D6043091D7046C197D098E099F09F3
:100C9000061717072807390708F076CF8091D30485
:100CA0000E94FC0410920805109207051092D804C7
:100CB000DF91CF911F910F91FF90EF90DF90CF9038
:100CC00008959D9191938F5F75CF85EEB0CF809100
:100CD000D4049091D504A091D604B091D704892B67
:100CE0008A2B8B2B09F4A9CF0E94AF020091D40468
:100CF0001091D5042091D6043091D7046C197D0948
:100D00008E099F09061717072807390708F095CF9E
:100D1000C5CF90E080E008950F931F93CF938C018F
:100D2000C62F0E94A2056C2F6460C8010E94A20514
:100D30006C2F6B7FC8010E94A20583EC90E00197A5
:100D4000F1F7CF911F910F9108950F931F93CF93B8
:100D5000DF938C01D62FC42F607F642B0E948C06FA
:100D600080E1D89FB00111246C2BC801DF91CF9195
:100D70001F910F910C948C06CF93DF93CDB7DEB704
:100D800028970FB6F894DEBF0FBECDBF98E0E4E21F
:100D9000F1E0DE01119601900D929A95E1F79091A4
:100DA0008A06961710F46FEF690F262F30E0220F96
:100DB000331F41E050E04C0F5D1F240F351FF90138
:100DC0006081680F606840E082E896E028960FB680
:100DD000F894DEBF0FBECDBFDF91CF910C94A50676
:100DE00040E061E082E896E00E94A5068BE39FE187
:100DF0000197F1F7089541E00E94A50681E090E097
:100E00000895FB0101900020E9F73197AF01461BDF
:100E1000570BDC01ED91FC910280F381E02D0994E8
:100E20008F929F92AF92BF92EF92FF920F931F9378
:100E3000CF93DF93CDB7DEB7A1970FB6F894DEBF9F
:100E40000FBECDBF7C01FA01CB0119A2223008F4FC
:100E50002AE08E010F5D1F4F822E912CB12CA12C08
:100E6000BF01A50194010E946F17F901CA016A3000
:100E70000CF5605DD8016E938D01232B242B252B5F
:100E800079F790E080E0109721F0BD01C7010E9442
:100E90000107A1960FB6F894DEBF0FBECDBFDF915C
:100EA000CF911F910F91FF90EF90BF90AF909F90C7
:100EB0008F900895695CDECFCF92DF92EF92FF9220
:100EC0000F931F93CF93DF936B01770FEE08FF080B
:100ED000F7FE1FC0EC01E881F9810190F081E02D5F
:100EE0006DE209958C0144275527BA014C195D091B
:100EF0006E097F092AE0CE010E941007800F911F22
:100F0000DF91CF911F910F91FF90EF90DF90CF90E5
:100F100008952AE0B701A601DF91CF911F910F91AB
:100F2000FF90EF90DF90CF900C941007CF93DF935A
:100F3000BC018EE195E00E945C07EC0166E671E081
:100F40008EE195E00E9401078C0F9D1FDF91CF91EC
:100F500008950C9401078F929F92AF92BF92FF92D7
:100F60000F931F93CF93DF93F82ECB01BA01A90102
:100F700098010E94B11620E030E04AE754E40E9454
:100F8000B1160E94A7188B0160E08F2D0E943D02D0
:100F900069E671E08EE195E00E94A907809118054D
:100FA000909119050E949607D0E0C0E04801012EFB
:100FB000000CAA08BB088091180590911905C81764
:100FC000D907D4F4C501B4010E94D4026BE771E0E3
:100FD0008EE195E00E94A907BE018EE195E00E9496
:100FE0005C0768E871E08EE195E00E94A907C801FE
:100FF0000E9496072196DFCF61E08F2DDF91CF9180
:101000001F910F91FF90BF90AF909F908F900C9485
:101010003D020E94F00665E971E082E896E00E94D8
:10102000A90761E080E00E94BC0668EA71E082E8FE
:1010300096E00E94A90762E080E00E94BC0669EB8E
:1010400071E082E896E00E94A90763E080E00E94D8
:10105000BC0665EC71E082E896E00C94A9074F921B
:101060005F926F927F928F929F92AF92BF92CF9238
:10107000DF92EF92FF920F931F93CF93DF9308E4D9
:1010800014E0C4E3D4E080E4F82EF0927C00809178
:101090007A00806480937A0080917A0086FDFCCF8C
:1010A00090917800809179008927982789278993E2
:1010B00099936EE170E080E090E00E94D4020C17FA
:1010C0001D0719F746E454E0E4E3F4E0DF01808112
:1010D000918112962D913C9113972817390734F47A
:1010E0003183208313969C938E93129712964A17FE
:1010F0005B0769F7329684E0E634F80739F7E8E3EE
:10110000F4E024E434E060E070E0CB01C190D190E1
:101110000D2C000CEE08FF086C0D7D1D8E1D9F1D13
:101120002E173F0799F76093300470933104809332
:101130003204909333040E94501620E030E040EADD
:1011400050E40E94B11620E030E040E85AE30E94EB
:10115000B11620E030E040EC50E40E94351826E65D
:1011600036E646EB50EC0E94B1162AE037ED49EA2C
:1011700051E40E94C9176B017C014B015C010E9484
:10118000F00661E080E00E94BC0666ED71E082E856
:1011900096E00E94A907A7019601C701B6010E9427
:1011A000E21860EE71E081111AC026013701E8945F
:1011B00077F82FEF3FEF4FE75FE7C301B2010E94DF
:1011C000E218811126C02FEF3FEF4FE75FE7C30121
:1011D000B2010E944B161816E4F464EE71E082E846
:1011E00096E00E9401076AE070E080E090E0DF9105
:1011F000CF911F910F91FF90EF90DF90CF90BF9014
:10120000AF909F908F907F906F905F904F900C94D5
:10121000D4022FEF3FEF4FE75FE4C701B6010E9412
:10122000DD1818161CF468EE71E0D9CF2FEF3FEFF0
:101230004FE75FECC701B6010E944B1687FDF3CF65
:1012400020E030E0A901C701B6010E944B1687FFDC
:101250000CC041E06DE282E896E00E94A5064601DE
:101260005701B7FAB094B7F8B0942AE037ED43EAE3
:101270005BE3C501B4010E94C9174B015C010E94E8
:10128000AE186B017C010E9450169B01AC01C50198
:10129000B4010E94C8174B015C012AE0B701A60106
:1012A00082E896E00E94100741E06EE282E896E054
:1012B0000E94A50620E030E040E251E4C501B401FF
:1012C0000E94B1164B015C010E94AE186B01F12C1B
:1012D000E12C2AE0B701A60182E896E00E941007FF
:1012E000C701B6010E9450169B01AC01C501B401B3
:1012F0000E94C81720E030E040E251E40E94B1169D
:101300000E94AE18AB0170E060E02AE082E896E04F
:101310000E94100768CF4091110650911206841761
:10132000950700F520910D0630910E0641505109A8
:101330005093120640931106481B590BBC016F5F76
:101340007F4F620F731F820F931F0E94E81AE09174
:101350000D06F0910E068091110690911206E80F8D
:10136000F91F108208951F93CF93DF9300D000D010
:10137000CDB7DEB78EE195E00E9417018EE195E0D2
:101380000E94170110E08A3379F0E1E0F0E0EC0F01
:10139000FD1FE10FF11D17FDFA9580831F5F8EE1A0
:1013A00095E00E941701EFCFCE0101960E94E9154A
:1013B000182F8EE195E00E9417018053990B82301F
:1013C000910520F4682F812F0E943D028EE195E067
:1013D0000E9417018A3011F08D30C1F78EE195E03F
:1013E0000E942B018A3021F48EE195E00E941701C2
:1013F0000F900F900F900F90DF91CF911F91089554
:10140000FC0180819181009711F00C948919089555
:101410000F931F93CF93DF93EC01888199810097FD
:1014200059F02A813B812617370730F081E0DF91A0
:10143000CF911F910F9108958B016F5F7F4F0E9495
:10144000121A009759F0998388831B830A832C8191
:101450003D81232B59F7FC011082E8CF80E0E7CFD4
:101460000F931F93CF93DF9300D0CDB7DEB789835F
:101470001A8200911106109112060F5F1F4FB801DA
:101480008DE096E00E94080A8823A1F020910D06C5
:1014900030910E068091110690911206BE016F5F89
:1014A0007F4F820F931F0E94E11A10931206009340
:1014B000110681E00F900F90DF91CF911F910F9156
:1014C0000895EF92FF920F931F93CF93DF93EC0158
:1014D0007B018A01BA010E94080A288139818111A1
:1014E00014C02115310519F0C9010E94891919820A
:1014F00018821D821C821B821A82CE01DF91CF913D
:101500001F910F91FF90EF9008951D830C83B701F9
:10151000C9010E94E11AF1CFFB0101900020E9F717
:101520003197AF01461B570B0C94610A85ED8093F0
:10153000BC008091D4049091D504A091D604B091C0
:10154000D7040796A11DB11D23E0B695A7959795E1
:1015500087952A95D1F72091BC0024FD03C01092F5
:10156000D20408954091D4045091D5046091D604DA
:101570007091D704452B462B472B69F30097A105A3
:10158000B10541F025E32A95F1F700000197A10983
:10159000B109E1CF8091D3040C94FC041F920F9207
:1015A0000FB60F9211242F933F934F935F936F9336
:1015B0007F938F939F93AF93BF93EF93FF938EE1AE
:1015C00095E00E945901FF91EF91BF91AF919F91DA
:1015D0008F917F916F915F914F913F912F910F90DC
:1015E0000FBE0F901F9018951F920F920FB60F927B
:1015F00011242F938F939F93EF93FF93E0912E05E8
:10160000F0912F058081E0913405F091350582FD40
:101610001BC09081809137058F5F8F7320913805B3
:10162000821741F0E0913705F0E0E25EFA4F958FC6
:1016300080933705FF91EF919F918F912F910F909C
:101640000FBE0F901F9018958081F4CF1F920F92BC
:101650000FB60F9211242F933F938F939F93AF93C5
:10166000BF938091FB049091FC04A091FD04B09184
:10167000FE043091FA0423E0230F2D3758F501962C
:10168000A11DB11D2093FA048093FB049093FC04E8
:10169000A093FD04B093FE048091FF049091000597
:1016A000A0910105B09102050196A11DB11D809385
:1016B000FF0490930005A0930105B0930205BF912C
:1016C000AF919F918F913F912F910F900FBE0F90EF
:1016D0001F90189526E8230F0296A11DB11DD2CFA9
:1016E0001F920F920FB60F9211242F933F934F9397
:1016F0005F936F937F938F939F93AF93BF93EF937A
:10170000FF938091B900887F803609F44AC0F0F5D4
:10171000883209F4A7C018F5803109F49BC0B8F4E9
:10172000882309F4F9C0883009F494C0FF91EF913F
:10173000BF91AF919F918F917F916F915F914F91E9
:101740003F912F910F900FBE0F901F9018958831E9
:1017500009F488C0803251F78093D00414C08034DB
:1017600009F49DC040F48033B9F38833F9F68093CF
:10177000D00485ECB0C0803509F485C0883509F403
:1017800096C0883499F60E94960AD0CF883909F419
:101790008CC038F5883729F050F4883611F080373E
:1017A00029F683E08093D2041092AB0457C08838A6
:1017B00009F47BC0803919F0803809F0B7CF8091E7
:1017C000AB04803208F071C0E091AB0481E08E0F71
:1017D0008093AB048091BB00F0E0E557FB4F808322
:1017E0003DC0803B39F0E0F4803A09F479C0883A92
:1017F00009F09CCF84E08093D20410928A04109266
:101800008904E0910505F091060509958091890408
:1018100081110FC081E0809389041092690409C08E
:10182000803C09F4A6CF883C09F4A3CF883B09F09B
:101830007DCFE0918A0481E08E0F80938A04F0E0EE
:10184000E759FB4F80818093BB0090918A0480917F
:10185000890429C08091AD048093BB0085EC8093FE
:10186000BC0064CF9091CF048091CE04981758F5B6
:10187000E091CF0481E08E0F8093CF04F0E0E25539
:10188000FB4F8081E9CFE091CF0481E08E0F809300
:10189000CF048091BB00F0E0E255FB4F8083909134
:1018A000CF048091CE049817C8F285E8D8CFE09194
:1018B000CF0481E08E0F8093CF048091BB00F0E0D5
:1018C000E255FB4F80838091D10481115CCF81E090
:1018D0008093AC0484EA8093BC001092D20426CF9B
:1018E00085EC8093BC001092D2048091AB048032CE
:1018F00030F4E091AB04F0E0E557FB4F10826091CB
:10190000AB0470E0E0910305F09104058BE894E0EE
:1019100009951092AB040ACF1092D00434CF1092E4
:1019200021051092200588EE93E0A0E0B0E08093BE
:10193000220590932305A0932405B093250520E369
:1019400031E030931F0520931E0525EC30E03093E5
:101950002B0520932A0524EC30E030932D052093AD
:101960002C0520EC30E030932F0520932E0521EC40
:1019700030E0309331052093300522EC30E0309395
:1019800033052093320526EC30E030933505209363
:1019900034051092370510923805109239051092CF
:1019A0003A051092BE051092BD058093BF05909335
:1019B000C005A093C105B093C20582E491E0909365
:1019C000BC058093BB051092CD051092CE051092F8
:1019D000CF051092D0051092D1051092D205109229
:1019E000D3051092D4051092D5051092D605109209
:1019F000D7051092D8051092D9051092DA051092E9
:101A0000DB051092DC0510928506109284068EE5A7
:101A100091E0909383068093820687E28093860606
:101A200084E180938B0684E080938C0610928D066F
:101A300010921506109219061092180610921A06A6
:101A400084E591E09093140680931306EFE2F6E0AC
:101A50001082148213821582369686E0EB36F807E0
:101A6000B9F78AE091E0909376068093750686E058
:101A700091E0909378068093770684E080937906CE
:101A800080937A068EE091E09093740680937306BB
:101A90008AE090E090937C0680937B0684EF91E04F
:101AA00090937E0680937D061092810610928006A8
:101AB00010926F06109270061092710610927206C4
:101AC00010927F0610920E0610920D0610921006CC
:101AD00010920F06109212061092110650E040E08C
:101AE00068E671E08DE096E00C94610ACF93DF9395
:101AF000CDB7DEB72C970FB6F894DEBF0FBECDBFC3
:101B0000789484B5826084BD84B5816084BD85B5D8
:101B1000826085BD85B5816085BD80916E008160E4
:101B200080936E001092810080918100826080938A
:101B3000810080918100816080938100809180008C
:101B40008160809380008091B10084608093B100B7
:101B50008091B00081608093B00080917A008460B1
:101B600080937A0080917A00826080937A008091DD
:101B70007A00816080937A0080917A0080688093F7
:101B80007A001092C1001092090610920A06109273
:101B90000B0610920C061092C9051092CA051092FD
:101BA000CB051092CC050E9407032B013C015C0180
:101BB0004B0128EB820E2BE0921EA11CB11C0E944F
:101BC0000703641575058605970528F086169706A0
:101BD000A806B906A0F768EE73E080E090E00E94E6
:101BE000D4020E948D000E9407036093C905709380
:101BF000CA058093CB059093CC056CEE71E08EE125
:101C000095E00E94A9070E9407032B013C015C019B
:101C10004B013AE0830E911CA11CB11C0E940703EA
:101C2000641575058605970528F086169706A8069B
:101C3000B906A0F781E08093DD050E940703609359
:101C4000C9057093CA058093CB059093CC056DEFC1
:101C500071E08EE195E00E94A90710920A051092AA
:101C6000090510920805109207050E94DE0486E01F
:101C700091E0909306058093050587E091E09093AD
:101C80000405809303051092870680918C068230AC
:101C900018F098E09093870680938A0662E370E0DC
:101CA00080E090E00E94D40260918D0682E896E088
:101CB0000E94A20568EE73E080E090E00E94D402EA
:101CC00060E382E896E00E948C060BE416E4C8010B
:101CD0000197F1F760E382E896E00E948C06C80164
:101CE0000197F1F760E382E896E00E948C0683E5B5
:101CF00092E00197F1F760E282E896E00E948C069C
:101D000060918706606240E082E896E00E94A50646
:101D100084E08093880640E06CE082E896E00E94D0
:101D2000A5060E94F00682E08093890640E066E006
:101D300082E896E00E94A50640E062E082E896E034
:101D40000E94A5068BE39FE10197F1F788E080935D
:101D50008D0660E082E896E00E94A2050E948D0058
:101D600064E072E082E896E00E94A90761E080E00A
:101D70000E94BC0663E172E082E896E00E94A90737
:101D800062E080E00E94BC0662E272E082E896E0D7
:101D90000E94A90763E080E00E94BC0661E372E054
:101DA00082E896E00E94A90761E083E00E946F024A
:101DB00061E082E00E946F0261E085E00E946F02B4
:101DC00061E084E00E946F0210910301612F83E0C3
:101DD0000E943D026091020182E00E943D02612F5B
:101DE00085E00E943D02612F84E00E943D0268EE82
:101DF00073E080E090E00E94D4020E940908812CE8
:101E0000912C60E2A62E61E4B62EC12CD12C70EA92
:101E1000E72E70E4F72E50E0252E50E0352E0E947C
:101E20000703672B682B692B09F411C10E94070374
:101E300000911A0510911B0520911C0530911D057C
:101E4000601771078207930708F47CC100911A0597
:101E500010911B0520911C0530911D052B013C01A3
:101E6000401A510A620A730A930182010A3F11055E
:101E70002105310508F4F3C060931A0570931B0522
:101E800080931C0590931D0524EF31E040E050E065
:101E90002093D5053093D6054093D7055093D805A8
:101EA0001092D9051092DA051092DB051092DC052C
:101EB0008091CD059091CE05A091CF05B091D00530
:101EC0008093D1059093D205A093D305B093D40508
:101ED0000E9407036093CD057093CE058093CF05D4
:101EE0009093D0058EE195E00E942B01843611F489
:101EF0000E94B3090E9407036093C9057093CA0545
:101F00008093CB059093CC050E9407032B013C01E5
:101F10006EE372E08EE195E00E94A9072AE041E0BD
:101F200050E060E070E08EE195E00E94100765E40B
:101F300072E08EE195E00E94A9072AE0B301A201B8
:101F40008EE195E00E94100767E472E08EE195E073
:101F50000E94A9078091CD059091CE05A091CF0553
:101F6000B091D005B301A201481B590B6A0B7B0B42
:101F70002AE08EE195E00E94100767E472E08EE1AE
:101F800095E00E94A9074091CD055091CE05609142
:101F9000CF057091D0058091D1059091D205A09187
:101FA000D305B091D405481B590B6A0B7B0B2AE073
:101FB0008EE195E00E94100769E472E08EE195E001
:101FC0000E94A9070E940703AB01BC012AE08EE131
:101FD00095E00E9410076BE472E08EE195E00E94AC
:101FE000010766E671E08EE195E00E9401070E941C
:101FF00007032B013C01DC01CB010596A11DB11D9E
:1020000089879A87AB87BC870E940703641575058B
:102010008605970548F029853A854B855C85261706
:1020200037074807590780F78EE195E00E942B019A
:10203000843611F40E94B3090E9407036093CD0512
:102040007093CE058093CF059093D00508C00E9471
:102050000703623071058105910508F0E7CE0E9403
:102060006F03182F882309F494C00E94300A13329A
:1020700009F09BC00E94F006809111069091120613
:1020800001970E948B091A8219821C821B821E8270
:102090001D8260910D0670910E066115710541F06B
:1020A0004091110650911206CE0101960E94610ADC
:1020B0008D819E81892B09F450C062E572E089818F
:1020C0009A810E94D81A892B09F047C00E94F00615
:1020D00063E080E00E94BC0666E572E082E896E07C
:1020E0000E94A90764E082E00E94BC066DE572E0F0
:1020F00082E896E00E94A90718E04F8158854A308F
:1021000051054CF510928D0660E082E896E00E9441
:10211000A20562E370E080E090E00E94D402109398
:102120008D0660E082E896E00E94A20562E370E01E
:1021300080E090E00E94D4028F8198850196988774
:102140008F83DBCF60931A0570931B0580931C056A
:1021500090931D057BCE0E94F006CE0101960E9451
:10216000000A409111065091120660910D0670917F
:102170000E068EE195E00E94D80066E671E08EE1E1
:1021800095E00E94010768E671E08DE096E00E940C
:102190008C0A2114310409F442CE0E94450188239F
:1021A00009F439CE0E94000036CE113409F0DFC0A8
:1021B0000E94F0060E946F03782E1A8219821C82F8
:1021C0001B821E821D8248E050E067E672E0CE016D
:1021D00001960E94610A01E010E094E4791609F486
:1021E000BFC00E946F03782E60E080E00E94BC06B2
:1021F00060E772E082E896E00E94A90761E080E073
:102200000E94BC0665E872E082E896E00E94A90799
:1022100062E080E00E94BC0663E972E082E896E03A
:102220000E94A907772009F460C0A1E37A121BC0BD
:102230000D30110509F48BC00F5F1F4FF801329765
:10224000EC30F10510F5E95DFE4E0C94E7188211B3
:1022500089118C118F119211951198119B119E115A
:10226000A111A411A711B2E37B1206C00130110520
:1022700061F001501109E2CF43E2442E7410DECF29
:102280001093050100930401D9CF6CE972E0CE01EF
:1022900001960E948C0A01E010E062E088E00E9452
:1022A000BC066FE173E082E896E00E94A90762E055
:1022B00088E00E94BC064D815E8169817A8182E856
:1022C00096E00E94D80063E080E00E94BC066CE2C9
:1022D00073E082E896E00E94A90760910401709182
:1022E000050182E896E00E945C07809104019091CC
:1022F00005010E9496076AE070E080E090E00E948D
:10230000D4026BCF66EA72E0CE0101960E948C0A7D
:10231000C4CF62EB72E0F8CF6DEB72E0F5CF69EC01
:1023200072E0F2CF67E672E0EFCF64ED72E0ECCFDF
:1023300061EE72E0E9CF6DEE72E0E6CF68EF72E039
:10234000E3CF64E073E0E0CF6EE073E0DDCF69E1FE
:1023500073E0CE0101960E948C0A0DE010E09DCF43
:102360000E940908CE0101960E94000A12CF123481
:1023700009F03DC10E94F0060E946F03182F60E033
:1023800080E00E94BC066CEA71E082E896E00E9460
:10239000A90761E080E00E94BC066AE373E082E87E
:1023A00096E00E94A90761E085E00E94BC0660916A
:1023B000030155245394652570E082E896E00E945D
:1023C0005C0761E087E00E94BC066FE373E082E88F
:1023D00096E00E94A90761E08BE00E94BC06609134
:1023E0000201652570E082E896E00E945C0762E0E9
:1023F00080E00E94BC0664E473E082E896E00E94FC
:10240000A90762E085E00E94BC0660910101652594
:1024100070E082E896E00E945C0762E087E00E943C
:10242000BC0669E473E082E896E00E94A90762E0D6
:102430008BE00E94BC0660910001652570E082E897
:1024400096E00E945C07143409F4C4C20E946F0332
:10245000182F8823D9F38133B1F5809103018823A4
:10246000D9F01092030160E083E00E943D0270E029
:1024700060E08EE195E00E945C0761E085E00E94EB
:10248000BC066091030166246394662570E082E8CF
:1024900096E00E945C07DACF772473947092030170
:1024A00061E083E00E943D0261E070E08EE195E032
:1024B0000E945C0761E085E00E94BC066091030118
:1024C00021E06227E3CF823379F5809102018823EE
:1024D000A9F01092020160E082E00E943D0270E0EB
:1024E00060E08EE195E00E945C0761E08BE00E9475
:1024F000BC066091020131E06327C8CF41E0409300
:10250000020161E082E00E943D0261E070E08EE144
:1025100095E00E945C0761E08BE00E94BC06609140
:10252000020151E06527B2CF833309F047C38091A0
:1025300001018823A9F01092010160E085E00E946A
:102540003D0270E060E08EE195E00E945C0762E091
:1025500085E00E94BC066091010181E0682796CF6A
:1025600091E09093010161E085E00E943D0261E00D
:1025700070E08EE195E00E945C0762E085E00E94D9
:10258000BC0660910101A1E06A2780CF8091000123
:102590008823A9F01092000160E084E00E943D02CF
:1025A00070E060E08EE195E00E945C0762E08BE005
:1025B0000E94BC0660910001B1E06B2767CF442404
:1025C00043944092000161E084E00E943D0261E09A
:1025D00070E08EE195E00E945C0762E08BE00E9473
:1025E000BC06609100015524539465254FCF1334E8
:1025F00009F0A7C00E942F080E946F03182F0E94A5
:102600002F081434C9F70E9409080E94F0060E949E
:102610006F03182F68E671E08DE096E00E948C0A47
:10262000143409F4D7C10E946F03182F60E080E0D2
:102630000E94BC066EE473E082E896E00E94A9075F
:1026400061E080E00E94BC0661E771E082E896E00C
:102650000E94A90761E089E00E94BC06112319F3DA
:10266000812F0E94300A409111065091120660910C
:102670000D0670910E0682E896E00E94D800133293
:1026800079F6809111069091120601970E948B09AC
:1026900080910D0690910E06009709F456C00E9495
:1026A0000716709319056093180568E671E08DE0D0
:1026B00096E00E948C0A0E94F0060E946F0360E080
:1026C00080E00E94BC0660E673E082E896E00E942B
:1026D000A90761E080E00E94BC0661E773E082E840
:1026E00096E00E94A90762E080E00E94BC0662E8D2
:1026F00073E082E896E00E94A9070E946F03882396
:10270000E1F3813331F56624639460921705E0911B
:102710000401F09105013197ED30F10508F053C047
:10272000EC56FC4E0C94E718AE13CB13ED140215C7
:102730001B15321537155A15631568158315A21523
:10274000C315143409F025CD60CF60E070E0CB01F3
:10275000A8CF823391F610921705D9CF20E030E050
:1027600040EA5FE320930B0530930C0540930D0581
:1027700050930E0520930F053093100540931105DB
:1027800050931205209313053093140540931505BB
:102790005093160518C0C0920B05D0920C05E0921C
:1027A0000D05F0920E05C0920F05D0921005E09233
:1027B0001105F0921205C0921305D0921405E09213
:1027C0001505F09216050E94F0060E946F03182F5F
:1027D00060E080E00E94BC0665E973E082E896E074
:1027E0000E94A907609104017091050182E896E0BA
:1027F0000E945C0761E080E00E94BC0662EA73E030
:1028000082E896E00E94A907609118057091190569
:1028100082E896E00E945C0762E080E00E94BC06CD
:1028200061EB73E082E896E00E94A90763E080E034
:102830000E94BC066EEB73E082E896E00E94A90756
:10284000143409F4C7C00E946F03182F8134C1F7F4
:1028500040900B0550900C0560900D0570900E0592
:102860002FE632E143E85AE3C301B2010E94DD18CA
:10287000181654F49301820149E25CE56FE47FE3AA
:1028800082E090E00E94AB070E94F00667EC73E0E4
:1028900082E896E00E94A90761E080E00E94BC0601
:1028A00068ED73E082E896E00E94A90762E080E0AC
:1028B0000E94BC066CEE73E082E896E00E94A907D5
:1028C00080911705882309F46FC168EE73E080E0FA
:1028D00090E00E94D40240900F0550901005609047
:1028E0001105709012052FE632E143E85AE3C30167
:1028F000B2010E94DD18181654F49301820149E2D6
:102900005CE56FE47FE385E090E00E94AB070E9406
:10291000F0066FEF73E082E896E00E94A90761E09D
:1029200080E00E94BC0668ED73E082E896E00E94B9
:10293000A90762E080E00E94BC066CEE73E082E8CA
:1029400096E00E94A90780911705882309F431C1F8
:1029500068EE73E080E090E00E94D402409013059E
:102960005090140560901505709016052FE632E121
:1029700043E85AE3C301B2010E94DD18181654F46B
:102980009301820141E75DE36AE47FE384E090E044
:102990000E94AB070E94F00664E670E080E090E0E1
:1029A0000E94D40260E080E00E94BC066EE074E009
:1029B00082E896E00E94A90761E080E00E94BC06E0
:1029C0006FE174E082E896E00E94A9070E946F031D
:1029D0008434E1F70E940908DCCB80E090E0A0E7B6
:1029E000B1E480930B0590930C05A0930D05B09373
:1029F0000E0580920F0590921005A0921105B092DD
:102A00001205D9CE80920B0590920C05A0920D056F
:102A1000B0920E0580920F0590921005A0921105BC
:102A2000B09212058092130590921405A09215059C
:102A3000B0921605C8CEC0920B05D0920C05E0925C
:102A40000D05F0920E0580920F0590921005A09250
:102A50001105B0921205412C512C80E7682E81E4BB
:102A6000782E1FC020E030E040E250E47BCE80E0D2
:102A700090E0A0EFB0E480930B0590930C05A09339
:102A80000D05B0930E0580920F0590921005A0924F
:102A90001105B0921205412C512C30E2632E30E426
:102AA000732E409213055092140560921505709292
:102AB000160589CE80920B0590920C05A0920D050B
:102AC000B0920E0596CF20E030E040EF50E44ACEC1
:102AD00080E090E0A0EFB0E480930B0590930C05AC
:102AE000A0930D05B0930E05412C512C20E2622ECF
:102AF00020E4722E40920F0550921005609211054D
:102B0000709212058FCF20E030E040EF50E4209328
:102B10000B0530930C0540930D0550930E0580E096
:102B200090E0A0E2B0E480930F0590931005A0938D
:102B30001105B0931205412C512C98E4692E91E4B3
:102B4000792EAFCF20E030E040EF50E420930B052A
:102B500030930C0540930D0550930E0510920F0510
:102B600010921005109211051092120580E090E06D
:102B7000A0E7B1E48093130590931405A093150585
:102B8000B093160520CEC0920B05D0920C05E092B2
:102B90000D05F0920E0510920F051092100510927F
:102BA00011051092120557CF0E946F038134E1F78F
:102BB00092CE0E946F038134E1F7D0CE843309F4C2
:102BC000E5CC843409F406CF3ECC8DE096E00C943D
:102BD000000AFC0188279927E89421912032E9F323
:102BE000293010F02E30C8F32B3241F02D3239F459
:102BF000689404C00E944316820F911D21912053B6
:102C00002A30C0F31EF4909581959F4F08951F932D
:102C1000FC0199278827BC01E89411911032E9F34F
:102C2000193010F01E30C8F31B3251F01D3249F438
:102C3000689406C00E942E16610F711D811D911DA2
:102C4000119110531A30B0F33EF490958095709521
:102C500061957F4F8F4F9F4F1F910895592F482F98
:102C6000372F262F660F771F881F991F660F771F34
:102C7000881F991F620F731F841F951F660F771F90
:102C8000881F991F08957AE0979F902D879F802D28
:102C9000910D112408950E948D1608F481E0089585
:102CA000E89409C097FB3EF49095809570956195E6
:102CB0007F4F8F4F9F4F9923A9F0F92F96E9BB279C
:102CC0009395F695879577956795B795F111F8CF18
:102CD000FAF4BB0F11F460FF1BC06F5F7F4F8F4F83
:102CE0009F4F16C0882311F096E911C0772321F079
:102CF0009EE8872F762F05C0662371F096E8862F11
:102D000070E060E02AF09A95660F771F881FDAF767
:102D1000880F9695879597F90895990F0008550F94
:102D2000AA0BE0E8FEEF16161706E807F907C0F051
:102D300012161306E407F50798F0621B730B840B59
:102D4000950B39F40A2661F0232B242B252B21F433
:102D500008950A2609F4A140A6958FEF811D811DD3
:102D600008950E94C4160C9435170E94271738F056
:102D70000E942E1720F0952311F00C941E170C942E
:102D8000241711240C9469170E94461770F3959F1D
:102D9000C1F3950F50E0551F629FF001729FBB2752
:102DA000F00DB11D639FAA27F00DB11DAA1F649FEE
:102DB0006627B00DA11D661F829F2227B00DA11DA1
:102DC000621F739FB00DA11D621F839FA00D611D27
:102DD000221F749F3327A00D611D231F849F600D48
:102DE000211D822F762F6A2F11249F5750409AF071
:102DF000F1F088234AF0EE0FFF1FBB1F661F771FFD
:102E0000881F91505040A9F79E3F510580F00C94C7
:102E10001E170C9469175F3FE4F3983ED4F3869530
:102E200077956795B795F795E7959F5FC1F7FE2B67
:102E3000880F911D9695879597F9089597F99F6743
:102E400080E870E060E008959FEF80EC0895002432
:102E50000A941616170618060906089500240A94FF
:102E600012161306140605060895092E0394000C85
:102E700011F4882352F0BB0F40F4BF2B11F460FF14
:102E800004C06F5F7F4F8F4F9F4F089557FD90583D
:102E9000440F551F59F05F3F71F04795880F97FB1E
:102EA000991F61F09F3F79F08795089512161306D8
:102EB0001406551FF2CF4695F1DF08C01616170607
:102EC0001806991FF1CF869571056105089408953C
:102ED000E894BB2766277727CB0197F90895A1E2ED
:102EE0001A2EAA1BBB1BFD010DC0AA1FBB1FEE1F84
:102EF000FF1FA217B307E407F50720F0A21BB30BCF
:102F0000E40BF50B661F771F881F991F1A9469F74A
:102F100060957095809590959B01AC01BD01CF01A6
:102F200008952F923F924F925F926F927F928F926D
:102F30009F92AF92BF92CF92DF92EF92FF920F9348
:102F40001F93CF93DF93CDB7DEB7CA1BDB0B0FB652
:102F5000F894DEBF0FBECDBF09942A88398848880F
:102F60005F846E847D848C849B84AA84B984C884A5
:102F7000DF80EE80FD800C811B81AA81B981CE0F9C
:102F8000D11D0FB6F894DEBF0FBECDBFED01089581
:102F90005058BB27AA270E94E0170C9435170E94AF
:102FA000271738F00E942E1720F039F49F3F19F4AC
:102FB00026F40C9424170EF4E095E7FB0C941E17EE
:102FC000E92F0E94461758F3BA1762077307840760
:102FD000950720F079F4A6F50C9468170EF4E095A7
:102FE0000B2EBA2FA02D0B01B90190010C01CA01C3
:102FF000A0011124FF27591B99F0593F50F4503E6E
:1030000068F11A16F040A22F232F342F4427585F5F
:10301000F3CF469537952795A795F0405395C9F777
:103020007EF41F16BA0B620B730B840BBAF091502F
:10303000A1F0FF0FBB1F661F771F881FC2F70EC0CE
:10304000BA0F621F731F841F48F4879577956795A1
:10305000B795F7959E3F08F0B0CF9395880F08F08D
:103060009927EE0F9795879508950E9449180C941B
:1030700035170E942E1758F00E94271740F029F4A8
:103080005F3F29F00C941E1751110C9469170C9492
:1030900024170E94461768F39923B1F3552391F33F
:1030A000951B550BBB27AA2762177307840738F0B7
:1030B0009F5F5F4F220F331F441FAA1FA9F335D014
:1030C0000E2E3AF0E0E832D091505040E695001CC8
:1030D000CAF72BD0FE2F29D0660F771F881FBB1F82
:1030E000261737074807AB07B0E809F0BB0B802D60
:1030F000BF01FF2793585F4F3AF09E3F510578F08C
:103100000C941E170C9469175F3FE4F3983ED4F3B8
:10311000869577956795B795F7959F5FC9F7880F5F
:10312000911D9695879597F90895E1E0660F771FB1
:10313000881FBB1F621773078407BA0720F0621B42
:10314000730B840BBA0BEE1F88F7E09508950E946D
:10315000AE186894B1110C94691708950E944E1727
:1031600088F09F5798F0B92F9927B751B0F0E1F048
:10317000660F771F881F991F1AF0BA95C9F714C0F8
:10318000B13091F00E946817B1E008950C9468176F
:10319000672F782F8827B85F39F0B93FCCF3869531
:1031A00077956795B395D9F73EF49095809570958E
:1031B00061957F4F8F4F9F4F08950E948D1608F4A1
:1031C0008FEF08950E948D16880B990B0895EE0FCE
:1031D000FF1F0590F491E02D09940F931F93CF9357
:1031E000DF938230910510F482E090E0E091900648
:1031F000F091910630E020E0B0E0A0E0309799F443
:103200002115310509F44AC0281B390B243031053A
:10321000D8F58A819B816115710589F1FB01938342
:103220008283FE0111C040815181028113814817C0
:103230005907E0F04817590799F4109761F0129672
:103240000C93129713961C933296CF01DF91CF9176
:103250001F910F9108950093900610939106F4CF5B
:103260002115310551F04217530738F0A901DB0150
:103270009A01BD01DF01F801C1CFEF01F9CF9093B1
:10328000910680939006CDCFFE01E20FF31F81934C
:1032900091932250310939832883D7CF20918E060C
:1032A00030918F06232B41F4209120013091210190
:1032B00030938F0620938E0620911E0130911F01BE
:1032C0002115310541F42DB73EB7409122015091AF
:1032D0002301241B350BE0918E06F0918F06E21737
:1032E000F307A0F42E1B3F0B2817390778F0AC0129
:1032F0004E5F5F4F2417350748F04E0F5F1F509306
:103300008F0640938E06819391939FCFF0E0E0E08B
:103310009CCFCF93DF930097E9F0FC0132971382A3
:103320001282A0919006B0919106ED0130E020E06C
:103330001097A1F420813181820F931F20918E0676
:1033400030918F062817390709F061C0F0938F0676
:10335000E0938E06DF91CF910895EA01CE17DF0743
:10336000E8F54A815B819E0141155105B1F7E901FC
:10337000FB83EA8349915991C40FD51FEC17FD07D0
:1033800061F4808191810296840F951FE9019983F0
:103390008883828193819B838A83F0E0E0E01296A8
:1033A0008D919C9113970097B9F52D913C911197B0
:1033B000CD010296820F931F20918E0630918F06C9
:1033C0002817390739F6309751F510929106109267
:1033D0009006B0938F06A0938E06BCCFD383C28392
:1033E00040815181840F951FC817D90761F44E5F42
:1033F0005F4F88819981480F591F518340838A818B
:103400009B81938382832115310509F0B0CFF0931E
:103410009106E09390069ECFFD01DC01C0CF1382A0
:103420001282D7CFB0E0A0E0E8E1FAE10C94931764
:103430008C01009751F4CB010E94ED188C01C8015A
:10344000CDB7DEB7E0E10C94AF17FC01E60FF71F34
:103450009C0122503109E217F30708F49DC0D901FD
:10346000CD91DC911197C617D70798F0C530D105DB
:1034700030F3CE0104978617970708F3C61BD70BC6
:103480002297C193D1936D937C93CF010E948919A8
:10349000D6CF5B01AC1ABD0A4C018C0E9D1EA091CB
:1034A0009006B0919106512C412CF12CE12C1097F3
:1034B00031F580918E0690918F068815990509F057
:1034C0005CC04616570608F058C080911E019091C6
:1034D0001F01009741F48DB79EB740912201509192
:1034E0002301841B950BE817F90708F055C0F093EA
:1034F0008F06E0938E06F90171836083A0CF8D91D2
:103500009C91119712966C90129713967C9013973A
:10351000A815B90559F56C0142E0C40ED11CCA14B6
:10352000DB0420F1AC014A195B09DA011296159708
:1035300080F06282738251834083D9016D937C93C2
:10354000E114F10471F0D7011396FC93EE931297F6
:1035500076CF22968C0F9D1FF90191838083F30112
:10356000EFCFF0939106E093900669CF4816590685
:1035700008F42C017D01D3019ACFCB010E94ED18F4
:103580007C01009749F0AE01B8010E94CF1AC80132
:103590000E948919870153CF10E000E050CFFB0152
:1035A000DC0102C001900D9241505040D8F70895BF
:1035B000FB01DC018D91019080190110D9F3990B69
:1035C0000895FB01DC0101900D920020E1F70895C0
:1035D000FB01DC014150504048F001900D92002069
:1035E000C9F701C01D9241505040E0F7089510E026
:1035F000C2E6D0E004C0FE010E94E7182196C3365F
:08360000D107C9F7F894FFCFD0
:10360800010101010100060708090A0B0C0D3132FE
:10361800334134353642373839432A3023440000A1
:1036280092068000000040001400540000000000D2
:103638007B01D8000801C801390117012B010000DE
:10364800000073054605890605013F052C051D0583
:1036580000000000AB026B023A0200000000FB060B
:10366800D8008906B6040D0A0067616C6C6F6E732A
:1036780020746F20446F73653A200050756D702078
:103688004379636C653A20004379636C65207469FB
:103698006D653A200041202D2053657420576174D0
:1036A800657220446F73650042202D20546F676750
:1036B8006C652050756D70730043202D2052656134
:1036C800642050480044202D20426567696E2044DC
:1036D8006F73696E670073656E736F72203D2000AB
:1036E8006E616E00696E66006F766600564D4450D6
:1036F800565F317C315F564D4450560A00564D4452
:1037080050525F0020202020204175746F6D617435
:103718006564002020202020204E75747269656E33
:1037280074002020202020417373697374616E74C3
:10373800002020202020202028414E412900564DDD
:103748004450455F003A323A007C005F564D445081
:103758004500313137005441594C4F5200552052E1
:1037680020474159595900536565646C696E670073
:1037780043686F6F736520646F73696E67206C654B
:1037880076656C3A00313A20496E6320323A20441B
:1037980065630043757272656E743A0053656564BB
:1037A8006C696E67310047656E20507572706F7373
:1037B80065004167672047726F77746800547261CB
:1037C8006E7332426C6F6F6D00426C6F6F6D265274
:1037D800697065004561726C792047726F7774680B
:1037E800004C6174652047726F7774680054726189
:1037F8006E736974696F6E004561726C7920426CF2
:103808006F6F6D004D696420426C6F6F6D004C6185
:10381800746520426C6F6F6D00526970656E002090
:1038280020202020202020202020200053656C65A7
:10383800637465642049443A200050313A200050AE
:10384800323A200050333A200050343A20004E7566
:103858006D626572206F662047616C6C6F6E7300D5
:103868004175746F206F72204D616E75616C6C7953
:1038780000537769746368204E75747269656E7455
:10388800730031202D204175746F207C2032202D4B
:10389800204D616E00646F7365206C6576656C3AC7
:1038A800200023206F662067616C6C6F6E733A206E
:1038B8000041202D20436F6E74696E7565004420A9
:1038C8002D204578697400466C6F72614D6963728A
:1038D8006F20446F736564005072657373204120D4
:1038E800746F20436F6E74696E7565004966204D6C
:1038F800616E75616C6C7920446F73696E67004600
:103908006C6F726147726F20446F73656400466C18
:103918006F7261426C6F6F6D20446F736564005005
:1039280072657373204420746F20457869740000B1
:00000001FF
