:100000000C9463000C948B000C948B000C948B006C
:100010000C948B000C948B000C948B000C948B0034
:100020000C948B000C948B000C948B000C948B0024
:100030000C948B000C948B000C948B000C948B0014
:100040000C945B0B0C948B000C94290B0C94030BFD
:100050000C948B000C948B000C948B000C948B00F4
:100060000C94A50B0C948B000000000024002700CA
:100070002A0000000000250028002B0000000000DE
:1000800023002600290004040404040404040202DA
:100090000202020203030303030301020408102007
:1000A0004080010204081020010204081020000012
:1000B0000008000201000003040700000000000027
:1000C0000000C40CA21511241FBECFEFD8E0DEBF84
:1000D000CDBF26E0AAE1B4E001C01D92AC37B20763
:1000E000E1F714E0A0E0B1E0EAE7F5E302C0059033
:1000F0000D92AA31B107D9F710E0C2E6D0E004C0F2
:100100002197FE010E94A918C136D107C9F70E94A4
:100110009D0D0C94B01A0C940000E8E0F5E0A08965
:10012000B18982E08C93A485B5851C92A685B7859C
:100130008FEC8C93108EA489B58986E08C93A2896C
:10014000B3898C9180618C93A289B3898C918860EA
:100150008C93A289B3898C9180688C930288F389EF
:10016000E02D80818F7D8083089596E0899FD00166
:100170001124A350BA4F90967C936E935F9791E0B1
:1001800091969C939197E0916A06F0916B069091FD
:100190006906992339F0309751F0811108C0809198
:1001A00019060994309719F05C968C91FACF08954E
:1001B000AF92BF92CF92DF92EF92FF920F931F9375
:1001C000CF93DF936C017B018B01040F151FEB01B3
:1001D0005E01AE18BF08C017D10759F06991D6016A
:1001E000ED91FC910190F081E02DC6010995892BDC
:1001F00079F7C501DF91CF911F910F91FF90EF909B
:10020000DF90CF90BF90AF9008950895089508951E
:10021000FC01538D448D252F30E0842F90E0821B0C
:10022000930B541710F0CF96089501970895FC0191
:10023000918D828D981761F0A28DAE0FBF2FB11DE9
:100240005D968C91928D9F5F9F73928F90E0089541
:100250008FEF9FEF0895FC01918D828D981731F0FB
:10026000828DE80FF11D858D90E008958FEF9FEF4F
:100270000895FC01918D228D892F90E0805C9F4F25
:10028000821B91098F739927089588E095E00E9459
:10029000390121E0892B09F420E0822F089580E0C4
:1002A00090E0892B29F00E94450181110C940000F7
:1002B0000895FC01A48DA80FB92FB11DA35ABF4FFB
:1002C0002C91848D90E001968F739927848FA68955
:1002D000B7892C93A089B1898C91837080648C93A9
:1002E000938D848D981306C00288F389E02D808158
:1002F0008F7D80830895EF92FF920F931F93CF938A
:10030000DF93EC0181E0888F9B8D8C8D98131AC050
:10031000E889F989808185FF15C09FB7F894EE8937
:10032000FF896083E889F989808183708064808394
:100330009FBF81E090E0DF91CF911F910F91FF90DF
:10034000EF900895F62E0B8D10E00F5F1F4F0F7387
:100350001127E02E8C8D8E110CC00FB607FCFACF42
:10036000E889F989808185FFF5CFCE010E94590186
:10037000F1CFEB8DEC0FFD2FF11DE35AFF4FF08213
:100380009FB7F8940B8FEA89FB8980818062CFCF79
:10039000CF93DF93EC01888D8823B9F0AA89BB89BC
:1003A000E889F9898C9185FD03C0808186FD0DC0A7
:1003B0000FB607FCF7CF8C9185FFF2CF808185FFC8
:1003C000EDCFCE010E945901E9CFDF91CF91089581
:1003D000833081F028F4813099F08230A9F00895BB
:1003E0008730A9F08830C9F08430B1F48091800062
:1003F0008F7D03C0809180008F7780938000089567
:1004000084B58F7784BD089584B58F7DFBCF8091AF
:10041000B0008F778093B00008958091B0008F7DF9
:10042000F9CFCF93DF93282F30E0F901E255FF4F4A
:100430008491F901E656FF4FD491F901EA57FF4F35
:10044000C491CC23A1F081110E94E801EC2FF0E0CF
:10045000EE0FFF1FE458FF4FA591B491EC91ED23EF
:1004600081E090E009F480E0DF91CF91089580E091
:1004700090E0FACF862F0C9411021F93CF93DF9355
:10048000282F30E0F901E255FF4F8491F901E6563B
:10049000FF4FD491F901EA57FF4FC491CC23A9F043
:1004A000162F81110E94E801EC2FF0E0EE0FFF1FE4
:1004B000EE58FF4FA591B4918FB7F894EC911111BC
:1004C00008C0D095DE23DC938FBFDF91CF911F91C1
:1004D0000895DE2BF8CF862F642F0C943D02CF9326
:1004E000DF9390E0FC01E656FF4F24918A579F4F1F
:1004F000FC0184918823C9F090E0880F991FFC01CA
:10050000E859FF4FA591B491FC01EE58FF4FC591FA
:10051000D49161110DC09FB7F8948C9120958223DE
:100520008C938881282328839FBFDF91CF910895E2
:10053000623051F49FB7F8943C91822F80958323C9
:100540008C93E8812E2BEFCF8FB7F894EC912E2B64
:100550002C938FBFEACF862F642F0C946F023FB786
:10056000F8948091E9049091EA04A091EB04B09191
:10057000EC0426B5A89B05C02F3F19F00196A11DDC
:10058000B11D3FBFBA2FA92F982F8827BC01CD01DD
:10059000620F711D811D911D42E0660F771F881F3C
:1005A000991F4A95D1F708958F929F92AF92BF926B
:1005B000CF92DF92EF92FF926B017C010E94AF021B
:1005C0004B015C01C114D104E104F104B9F00E94B3
:1005D000AF02681979098A099B09683E7340810551
:1005E000910580F321E0C21AD108E108F10888EEF4
:1005F000880E83E0981EA11CB11CE4CFFF90EF9001
:10060000DF90CF90BF90AF909F908F9008952FB7BD
:10061000F8946091E5047091E6048091E70490916C
:10062000E8042FBF08950F931F93CF93DF93C82F34
:10063000D62F86E0C89FF0011124E350FA4F11A293
:10064000878D90A181309105F1F058F082309105AD
:10065000F1F1039709F440C0DF91CF911F910F9101
:1006600008956623C9F361E070E08C2F0E94B50005
:100670000E940703609355067093560680935706B1
:1006800090935806E9CF0E940703009155061091F8
:1006900056062091570630915806AB01BC01401B0D
:1006A000510B620B730B8091670690916806B0E066
:1006B000A0E084179507A607B70748F462E070E04A
:1006C0008C2FDF91CF911F910F910C94B50063E0B7
:1006D00070E0D111C1CFF4CF70E060E0F1CF6F9244
:1006E0007F928F929F92AF92BF92CF92DF92EF92C2
:1006F000FF920F931F93CF93DF9381E0809369065E
:100700000E9407030091590610915A0620915B063A
:1007100030915C06AB01BC01401B510B620B730BAB
:100720008091650690916606B0E0A0E08417950779
:10073000A607B70708F014C1C0E080916306C81788
:1007400060F4E0915F06F0916006EC0FF11D62E04D
:1007500080810E946F02CF5FF0CF712C812C912C91
:100760005401839480916406781608F05FC0072DC9
:1007700010E0E0916106F0916206E00FF11F61E088
:1007800080810E946F02E0916106F0916206E00FA5
:10079000F11F60E080810E943D02D501C401072C59
:1007A00004C0880F991FAA1FBB1F0A94D2F76C01BF
:1007B0007C01E094F094612C809163066816F8F453
:1007C000C62DD0E0E0915F06F0916006EC0FFD1FB2
:1007D00080810E9411022496CC0FDD1FC350DA4F96
:1007E000892B41F4888199818C299D29998388835B
:1007F0006394E2CF888199818E219F21F7CFE09188
:100800006106F0916206E00FF11F61E080810E94B5
:100810003D028091610690916206080F191F60E009
:10082000F80180810E946F0273949CCFCDEFD5E0D8
:10083000FE018FEF9FEF278D30A1232B21F4148E23
:10084000968F858F11A2369626E0E933F20799F745
:10085000F12C96E0D92E80916306F81608F050C06E
:10086000E12C0F2D10E0000F111F0B5F194F20918D
:100870006406E21608F042C0F801608171810E2C16
:1008800002C0769567950A94E2F7F29E90011124D2
:100890002E0D311DEDEFF5E080E0458D568D2417CE
:1008A000350709F461C08F5F36968A30B1F760FF73
:1008B00023C0EDEFF5E090E080E0448D411117C0DA
:1008C000E0915D06F0915E06E20FF31F4081D89E35
:1008D000F001D99EF00D1124E350FA4F448F368F6A
:1008E000258F10A2178E61E00E94130305C00196A8
:1008F00036968A30910509F7E394B9CFF394ABCFDC
:1009000010E089A18111182F2696F6E0C933DF0780
:10091000C1F70E9407036093590670935A068093AB
:100920005B0690935C061123D9F080911E06882304
:10093000B9F080911C0690911D06019789F4809171
:100940001906DF91CF911F910F91FF90EF90DF90EB
:10095000CF90BF90AF909F908F907F906F900895B1
:100960001092690680E0EDCF6170BECF08952091AE
:100970007304260F3327331F21323105ECF4209105
:10098000BC04FC0190E080E0243069F082E008952E
:10099000A09173042191AC014D5A5B4FA40FB52F68
:1009A000B11D2C930196861798F380917304680FFC
:1009B0006093730480E0089581E008951092BC0470
:1009C00081E08093BB041092960461E082E10E9472
:1009D0003D0261E083E10E943D02E9EBF0E08081AD
:1009E0008E7F808380818D7F808388E48093B800B0
:1009F00085E48093BC000895CF93DF9391E09093BA
:100A000052048823B9F0C091B800D091BA00809107
:100A1000BC008A7B8093BC0060E082E10E943D02C2
:100A200060E083E10E943D020E94DE04D093BA00A0
:100A3000C093B800DF91CF910895E091F4048091C4
:100A4000F304E81730F4F0E0EE5CFB4F808190E0B7
:100A500008958FEF9FEF08959091F4048091F3042F
:100A60002FEF3FEF981748F4E92FF0E0EE5CFB4FD3
:100A7000208130E09F5F9093F404C9010895809134
:100A8000F3049091F404891B990B0895CF92DF929F
:100A9000EF92FF920F931F93CF93DF937C01CB01D3
:100AA0008A012091C204222389F0EB016B01C40E5C
:100AB000D51ECC15DD0569F06991D701ED91FC914A
:100AC0000190F081E02DC7010995F3CF642F0E94BA
:100AD000B704C801DF91CF911F910F91FF90EF9064
:100AE000DF90CF900895CF93DF931F92CDB7DEB7FD
:100AF00069832091C2042223F9F02091F10420326D
:100B000058F021E030E0FC013383228390E080E064
:100B10000F90DF91CF9108958091F204E82FF0E0DB
:100B2000ED53FB4F998190838F5F8093F204809304
:100B3000F10481E090E0ECCF61E0CE0101960E94EB
:100B4000B704F7CFCF92DF92EF92FF920F931F93EC
:100B5000CF93DF93FC01C48121E02093C204C093B2
:100B6000E3041092F2041092F1048385682B85EA65
:100B700095E00E947305D091F104D13208F092C043
:100B80000E94AF026B017C018091BC04811165C0A1
:100B900082E08093BC0481E08093BB048FEF80935C
:100BA000BA041092B904D093B804A3ECB4E0E8E915
:100BB000F4E080E0D81385C01092970480919704E8
:100BC000CC0FC82BC093970480919604813009F014
:100BD0007CC0109296040E94AF026B017C01809150
:100BE00097048093BB008091BE049091BF04A091B4
:100BF000C004B091C104892B8A2B8B2B99F00E94E1
:100C0000AF020091BE041091BF042091C004309146
:100C1000C1046C197D098E099F090617170728075B
:100C20003907E0F18091BC0083FDD9CF85EC80933A
:100C3000BC000E94AF026B017C018091BC04823039
:100C400009F445C08091BA048F3F61F18091BA04E4
:100C5000803241F18091BA0425C08091BE04909108
:100C6000BF04A091C004B091C104892B8A2B8B2BA7
:100C700009F48ACF0E94AF020091BE041091BF0414
:100C80002091C0043091C1046C197D098E099F091F
:100C9000061717072807390708F076CF8091BD049B
:100CA0000E94FC041092F2041092F1041092C2040B
:100CB000DF91CF911F910F91FF90EF90DF90CF9038
:100CC00008959D9191938F5F75CF85EEB0CF809100
:100CD000BE049091BF04A091C004B091C104892BBF
:100CE0008A2B8B2B09F4A9CF0E94AF020091BE047E
:100CF0001091BF042091C0043091C1046C197D098A
:100D00008E099F09061717072807390708F095CF9E
:100D1000C5CF90E080E008950F931F93CF938C018F
:100D2000C62F0E94A2056C2F6460C8010E94A20514
:100D30006C2F6B7FC8010E94A20583EC90E00197A5
:100D4000F1F7CF911F910F9108950F931F93CF93B8
:100D5000DF938C01D62FC42F607F642B0E948C06FA
:100D600080E1D89FB00111246C2BC801DF91CF9195
:100D70001F910F910C948C06CF93DF93CDB7DEB704
:100D800028970FB6F894DEBF0FBECDBF98E0E4E21F
:100D9000F1E0DE01119601900D929A95E1F79091A4
:100DA0007406961710F46FEF690F262F30E0220FAC
:100DB000331F41E050E04C0F5D1F240F351FF90138
:100DC0006081680F606840E08CE696E028960FB678
:100DD000F894DEBF0FBECDBFDF91CF910C94A50676
:100DE00040E061E08CE696E00E94A5068BE39FE17F
:100DF0000197F1F7089541E00E94A50681E090E097
:100E000008954091FB055091FC058417950700F566
:100E10002091F7053091F805415051095093FC0598
:100E20004093FB05481B590BBC016F5F7F4F620F5E
:100E3000731F820F931F0E94A11AE091F705F09192
:100E4000F8058091FB059091FC05E80FF91F1082D1
:100E500008951F93CF93DF9300D000D0CDB7DEB7B6
:100E600088E095E00E94170188E095E00E94170154
:100E700010E08A3379F0E1E0F0E0EC0FFD1FE10FC4
:100E8000F11D17FDFA9580831F5F88E095E00E94B1
:100E90001701EFCFCE0101960E94AB15182F88E005
:100EA00095E00E9417018053990B8230910520F440
:100EB000682F812F0E943D0288E095E00E94170173
:100EC0008A3011F08D30C1F788E095E00E942B0147
:100ED0008A3021F488E095E00E9417010F900F906E
:100EE0000F900F90DF91CF911F910895FB0101901A
:100EF0000020E9F73197AF01461B570BDC01ED915C
:100F0000FC910280F381E02D09948F929F92AF9221
:100F1000BF92EF92FF920F931F93CF93DF93CDB7C2
:100F2000DEB7A1970FB6F894DEBF0FBECDBF7C0130
:100F3000FA01CB0119A2223008F42AE08E010F5DDC
:100F40001F4F822E912CB12CA12CBF01A501940121
:100F50000E943117F901CA016A300CF5605DD801B1
:100F60006E938D01232B242B252B79F790E080E0C5
:100F7000109721F0BD01C7010E947607A1960FB618
:100F8000F894DEBF0FBECDBFDF91CF911F910F91BF
:100F9000FF90EF90BF90AF909F908F900895695C05
:100FA000DECFCF92DF92EF92FF920F931F93CF93FA
:100FB000DF936B01770FEE08FF08F7FE1FC0EC010F
:100FC000E881F9810190F081E02D6DE209958C01B5
:100FD00044275527BA014C195D096E097F092AE09B
:100FE000CE010E948507800F911FDF91CF911F9145
:100FF0000F91FF90EF90DF90CF9008952AE0B70116
:10100000A601DF91CF911F910F91FF90EF90DF909C
:10101000CF900C948507CF93DF93BC0188E095E0D7
:101020000E94D107EC0166E671E088E095E00E943D
:1010300076078C0F9D1FDF91CF9108950C94760752
:101040008F929F92AF92BF92FF920F931F93CF9375
:10105000DF93F82ECB01BA01A90198010E94731603
:1010600020E030E04AE754E40E9473160E946918B9
:101070008B0160E08F2D0E943D0269E671E088E0FF
:1010800095E00E941E0880910205909103050E9440
:101090000B08D0E0C0E04801012E000CAA08BB08F4
:1010A0008091020590910305C817D907D4F4C501B2
:1010B000B4010E94D4026BE771E088E095E00E94E1
:1010C0001E08BE0188E095E00E94D10768E871E043
:1010D00088E095E00E941E08C8010E940B08219636
:1010E000DFCF61E08F2DDF91CF911F910F91FF90A6
:1010F000BF90AF909F908F900C943D020E94F0069D
:1011000065E971E08CE696E00E941E0861E080E0EF
:101110000E94BC0668EA71E08CE696E00E941E0818
:1011200062E080E00E94BC0669EB71E08CE696E02C
:101130000E941E0863E080E00E94BC0665EC71E03E
:101140008CE696E00C941E084F925F926F927F920D
:101150008F929F92AF92BF92CF92DF92EF92FF92C7
:101160000F931F93CF93DF9302E314E0CEE1D4E01B
:1011700080E4F82EF0927C0080917A008064809365
:101180007A0080917A0086FDFCCF90917800809162
:101190007900892798278927899399936EE170E0D0
:1011A00080E090E00E94D4020C171D0719F740E37D
:1011B00054E0EEE1F4E0DF018081918112962D91FF
:1011C0003C9113972817390734F431832083139601
:1011D0009C938E93129712964A175B0769F7329683
:1011E00084E0E033F80739F7E2E2F4E02EE234E09D
:1011F00060E070E0CB01C190D1900D2C000CEE08A6
:10120000FF086C0D7D1D8E1D9F1D2E173F0799F742
:1012100060931A0470931B0480931C0490931D0424
:101220000E94121620E030E040EA50E40E9473165B
:1012300020E030E040E85AE30E94731620E030E0FE
:1012400040EC50E40E94F71726E636E646EB50ECF9
:101250000E9473162AE037ED49EA51E40E948B1789
:101260006B017C014B015C010E94F00661E080E0B3
:101270000E94BC0666ED71E08CE696E00E941E08B6
:10128000A7019601C701B6010E94A41860EE71E0A3
:1012900081111AC026013701E89477F82FEF3FEF4C
:1012A0004FE75FE7C301B2010E94A418811126C075
:1012B0002FEF3FEF4FE75FE7C301B2010E940D162A
:1012C0001816E4F464EE71E08CE696E00E9476076E
:1012D0006AE070E080E090E0DF91CF911F910F9184
:1012E000FF90EF90DF90CF90BF90AF909F908F9046
:1012F0007F906F905F904F900C94D4022FEF3FEF50
:101300004FE75FE4C701B6010E949F1818161CF44E
:1013100068EE71E0D9CF2FEF3FEF4FE75FECC701E9
:10132000B6010E940D1687FDF3CF20E030E0A90141
:10133000C701B6010E940D1687FF0CC041E06DE2A7
:101340008CE696E00E94A50646015701B7FAB094D4
:10135000B7F8B0942AE037ED43EA5BE3C501B40186
:101360000E948B174B015C010E9470186B017C017D
:101370000E9412169B01AC01C501B4010E948A179C
:101380004B015C012AE0B701A6018CE696E00E94C1
:10139000850741E06EE28CE696E00E94A50620E01B
:1013A00030E040E251E4C501B4010E9473164B01E4
:1013B0005C010E9470186B01F12CE12C2AE0B7014E
:1013C000A6018CE696E00E948507C701B6010E943F
:1013D00012169B01AC01C501B4010E948A1720E0DE
:1013E00030E040E251E40E9473160E947018AB0195
:1013F00070E060E02AE08CE696E00E94850768CF06
:101400000F931F93CF93DF93EC018881998100970D
:1014100059F02A813B812617370730F081E0DF91B0
:10142000CF911F910F9108958B016F5F7F4F0E94A5
:10143000D419009759F0998388831B830A832C81E0
:101440003D81232B59F7FC011082E8CF80E0E7CFE4
:101450000F931F93CF93DF9300D0CDB7DEB789836F
:101460001A820091FB051091FC050F5F1F4FB80118
:1014700087EF95E00E94000A8823A1F02091F705EC
:101480003091F8058091FB059091FC05BE016F5FDE
:101490007F4F820F931F0E949A1A1093FC050093AE
:1014A000FB0581E00F900F90DF91CF911F910F917D
:1014B0000895EF92FF920F931F93CF93DF93EC0168
:1014C0007B01198218821B821A821D821C82FB01F9
:1014D00001900020E9F731978F01061B170BB80127
:1014E0000E94000A28813981811113C0211531051C
:1014F00019F0C9010E944B19198218821D821C82A1
:101500001B821A82DF91CF911F910F91FF90EF9074
:1015100008951D830C83B701C901DF91CF911F91FD
:101520000F91FF90EF900C949A1AEF92FF920F9305
:101530001F93CF93DF93EC017B01FB01019000200F
:10154000E9F731978F01061B170BB8010E94000ABB
:1015500028813981811113C02115310519F0C90184
:101560000E944B19198218821D821C821B821A82CA
:10157000DF91CF911F910F91FF90EF9008951D8300
:101580000C83B701C901DF91CF911F910F91FF909B
:10159000EF900C949A1A85ED8093BC008091BE0464
:1015A0009091BF04A091C004B091C1040796A11D01
:1015B000B11D23E0B695A795979587952A95D1F704
:1015C0002091BC0024FD03C01092BC0408954091FA
:1015D000BE045091BF046091C0047091C104452BBA
:1015E000462B472B69F30097A105B10541F025E390
:1015F0002A95F1F700000197A109B109E1CF809187
:10160000BD040C94FC041F920F920FB60F9211248C
:101610002F933F934F935F936F937F938F939F93FA
:10162000AF93BF93EF93FF9388E095E00E94590139
:10163000FF91EF91BF91AF919F918F917F916F91AA
:101640005F914F913F912F910F900FBE0F901F9080
:1016500018951F920F920FB60F9211242F938F930C
:101660009F93EF93FF93E0911805F0911905808106
:10167000E0911E05F0911F0582FD1BC090818091B5
:1016800021058F5F8F7320912205821741F0E09131
:101690002105F0E0E85FFA4F958F80932105FF91D7
:1016A000EF919F918F912F910F900FBE0F901F90F0
:1016B00018958081F4CF1F920F920FB60F921124CC
:1016C0002F933F938F939F93AF93BF938091E504A4
:1016D0009091E604A091E704B091E8043091E4040D
:1016E00023E0230F2D3758F50196A11DB11D20933E
:1016F000E4048093E5049093E604A093E704B09398
:10170000E8048091E9049091EA04A091EB04B0917F
:10171000EC040196A11DB11D8093E9049093EA04A5
:10172000A093EB04B093EC04BF91AF919F918F9184
:101730003F912F910F900FBE0F901F90189526E8A4
:10174000230F0296A11DB11DD2CF1F920F920FB68B
:101750000F9211242F933F934F935F936F937F9337
:101760008F939F93AF93BF93EF93FF938091B900B3
:10177000887F803609F44AC0F0F5883209F4A7C0A2
:1017800018F5803109F49BC0B8F4882309F4F9C036
:10179000883009F494C0FF91EF91BF91AF919F9170
:1017A0008F917F916F915F914F913F912F910F900A
:1017B0000FBE0F901F901895883109F488C08032B1
:1017C00051F78093BA0414C0803409F49DC040F4EA
:1017D0008033B9F38833F9F68093BA0485ECB0C04E
:1017E000803509F485C0883509F496C0883499F6A7
:1017F0000E94CB0AD0CF883909F48CC038F58837DD
:1018000029F050F4883611F0803729F683E0809370
:10181000BC041092950457C0883809F47BC0803905
:1018200019F0803809F0B7CF80919504803208F024
:1018300071C0E091950481E08E0F809395048091B2
:10184000BB00F0E0EB58FB4F80833DC0803B39F09C
:10185000E0F4803A09F479C0883A09F09CCF84E03A
:101860008093BC041092740410927304E091EF040E
:10187000F091F00409958091730481110FC081E00B
:10188000809373041092530409C0803C09F4A6CFDE
:10189000883C09F4A3CF883B09F07DCFE091740424
:1018A00081E08E0F80937404F0E0ED5AFB4F80814D
:1018B0008093BB00909174048091730429C080913F
:1018C00097048093BB0085EC8093BC0064CF90911B
:1018D000B9048091B804981758F5E091B90481E0F3
:1018E0008E0F8093B904F0E0E856FB4F8081E9CF7A
:1018F000E091B90481E08E0F8093B9048091BB0020
:10190000F0E0E856FB4F80839091B9048091B804D1
:101910009817C8F285E8D8CFE091B90481E08E0F1E
:101920008093B9048091BB00F0E0E856FB4F8083C0
:101930008091BB0481115CCF81E08093960484EA9E
:101940008093BC001092BC0426CF85EC8093BC0031
:101950001092BC0480919504803230F4E09195049B
:10196000F0E0EB58FB4F10826091950470E0E0913D
:10197000ED04F091EE0485E794E00995109295044A
:101980000ACF1092BA0434CF10920B0510920A05B8
:1019900088EE93E0A0E0B0E080930C0590930D05F5
:1019A000A0930E05B0930F0520E331E030930905B5
:1019B0002093080525EC30E030931505209314059D
:1019C00024EC30E0309317052093160520EC30E02E
:1019D000309319052093180521EC30E030931B0556
:1019E00020931A0522EC30E030931D0520931C054E
:1019F00026EC30E030931F0520931E051092210540
:101A00001092220510922305109224051092A80529
:101A10001092A7058093A9059093AA05A093AB0502
:101A2000B093AC0582E491E09093A6058093A50560
:101A30001092B7051092B8051092B9051092BA0528
:101A40001092BB051092BC051092BD051092BE0508
:101A50001092BF051092C0051092C1051092C205E8
:101A60001092C3051092C4051092C5051092C605C8
:101A700010926F0610926E068EE591E090936D06BF
:101A800080936C0687E28093700684E180937506EC
:101A900084E080937606109277061092FF051092EC
:101AA0000306109202061092040684E591E09093DA
:101AB000FE058093FD05E9E1F6E0108214821382B1
:101AC0001582369686E0E535F807B9F78AE091E0A9
:101AD0009093600680935F0686E091E090936206A3
:101AE0008093610684E080936306809364068EE0B1
:101AF00091E090935E0680935D068AE090E090937B
:101B000066068093650684EF91E090936806809363
:101B1000670610926B0610926A0610925906109290
:101B20005A0610925B0610925C061092690668E6EF
:101B300071E087EF95E00C94590ACF93DF93CDB70E
:101B4000DEB72A970FB6F894DEBF0FBECDBF7894EC
:101B500084B5826084BD84B5816084BD85B58260B2
:101B600085BD85B5816085BD80916E008160809363
:101B70006E001092810080918100826080938100CC
:101B800080918100816080938100809180008160DC
:101B9000809380008091B10084608093B100809137
:101BA000B00081608093B00080917A00846080935F
:101BB0007A0080917A00826080937A0080917A0026
:101BC000816080937A0080917A00806880937A00A7
:101BD0001092C1001092F3051092F4051092F505D1
:101BE0001092F6051092B3051092B4051092B50547
:101BF0001092B6050E9407034B015C012B013C01CA
:101C000028EB420E2BE0521E611C711C0E94070340
:101C1000681579058A059B0528F04616570668065B
:101C20007906A0F768EE73E080E090E00E94D402AD
:101C30000E948D000E9407036093B3057093B40562
:101C40008093B5059093B6056CEE71E088E095E061
:101C50000E941E080E9407034B015C012B013C01FE
:101C60003AE0430E511C611C711C0E940703681569
:101C700079058A059B0528F04616570668067906F9
:101C8000A0F781E08093C7050E9407036093B30526
:101C90007093B4058093B5059093B6056DEF71E030
:101CA00088E095E00E941E081092F4041092F3045C
:101CB0001092F2041092F1040E94DE0486E091E09A
:101CC0009093F0048093EF0487E091E09093EE040A
:101CD0008093ED041092710680917606823018F0A0
:101CE00098E0909371068093740662E370E080E060
:101CF00090E00E94D402609177068CE696E00E9404
:101D0000A20568EE73E080E090E00E94D40260E3F8
:101D10008CE696E00E948C060BE416E4C80101975D
:101D2000F1F760E38CE696E00E948C06C80101970B
:101D3000F1F760E38CE696E00E948C0683E592E082
:101D40000197F1F760E28CE696E00E948C066091C4
:101D50007106606240E08CE696E00E94A50684E091
:101D60008093720640E06CE08CE696E00E94A50647
:101D70000E94F00682E08093730640E066E08CE605
:101D800096E00E94A50640E062E08CE696E00E94A4
:101D9000A5068BE39FE10197F1F788E08093770632
:101DA00060E08CE696E00E94A2050E948D0064E04F
:101DB00072E08CE696E00E941E0861E080E00E94DE
:101DC000BC0663E172E08CE696E00E941E0862E0C9
:101DD00080E00E94BC0662E272E08CE696E00E941F
:101DE0001E0863E080E00E94BC0661E372E08CE6BE
:101DF00096E00E941E0861E083E00E946F0261E0AD
:101E000082E00E946F0261E085E00E946F0261E063
:101E100084E00E946F0210910301612F83E00E9411
:101E20003D026091020182E00E943D02612F85E047
:101E30000E943D02612F84E00E943D0268EE73E043
:101E400080E090E00E94D4020E947E08812C912CB8
:101E500050E2A52E51E4B52EC12CD12C60EAE62E1D
:101E600060E4F62E40E0242E40E0342E0E9407036A
:101E7000672B682B692B09F411C10E94070300919D
:101E8000040510910505209106053091070560179E
:101E900071078207930708F43FC100910405109170
:101EA000050520910605309107052B013C01401ADC
:101EB000510A620A730A930182010A3F1105210542
:101EC000310508F4F3C06093040570930505809311
:101ED00006059093070524EF31E040E050E02093A1
:101EE000BF053093C0054093C1055093C2051092C1
:101EF000C3051092C4051092C5051092C6058091C5
:101F0000B7059091B805A091B905B091BA05809335
:101F1000BB059093BC05A093BD05B093BE050E9480
:101F200007036093B7057093B8058093B905909344
:101F3000BA0588E095E00E942B01843611F40E94D6
:101F400029070E9407036093B3057093B40580933B
:101F5000B5059093B6050E9407032B013C016EE383
:101F600072E088E095E00E941E082AE041E050E01F
:101F700060E070E088E095E00E94850765E472E02B
:101F800088E095E00E941E082AE0B301A20188E0E3
:101F900095E00E94850767E472E088E095E00E9482
:101FA0001E088091B7059091B805A091B905B09130
:101FB000BA05B301A201481B590B6A0B7B0B2AE03F
:101FC00088E095E00E94850767E472E088E095E08C
:101FD0000E941E084091B7055091B8056091B9055F
:101FE0007091BA058091BB059091BC05A091BD058B
:101FF000B091BE05481B590B6A0B7B0B2AE088E0A9
:1020000095E00E94850769E472E088E095E00E940F
:102010001E080E940703AB01BC012AE088E095E09E
:102020000E9485076BE472E088E095E00E947607E5
:1020300066E671E088E095E00E9476070E9407035B
:102040002B013C01DC01CB010596A11DB11D8F8345
:102050009887A987BA870E940703641575058605C6
:10206000970548F02F81388549855A852617370707
:102070004807590780F788E095E00E942B018436D5
:1020800011F40E9429070E9407036093B70570931B
:10209000B8058093B9059093BA0508C00E9407035C
:1020A000623071058105910508F0E7CE0E946F034B
:1020B000182F882329F10E94280A1332B1F50E94B3
:1020C000F0068091FB059091FC0501970E940107A5
:1020D0004091FB055091FC056091F7057091F80562
:1020E00088E095E00E94D80066E671E088E095E01F
:1020F0000E94760768E671E087EF95E00E94950AF6
:102100002114310409F4B2CE0E944501882309F458
:10211000A9CE0E940000A6CE609304057093050529
:102120008093060590930705B8CE113409F0D9C005
:102130000E94F0060E946F03782E62E572E0CE01E5
:1021400001960E94590A01E010E034E4731609F484
:10215000BEC00E946F03782E60E080E00E94BC0643
:102160006BE572E08CE696E00E941E0861E080E07C
:102170000E94BC0660E772E08CE696E00E941E08B2
:1021800062E080E00E94BC066EE772E08CE696E0BA
:102190000E941E08772009F45FC041E374121BC03F
:1021A0000D30110509F48AC00F5F1F4FF8013297F7
:1021B000EC30F10508F5E152FF4E0C94A9183911E5
:1021C00040114311461149114C114F115211551133
:1021D00058115B115E1152E3751206C001301105F2
:1021E00059F001501109E2CF83E27812DFCF10934A
:1021F000050100930401DACF67E872E0CE01019691
:102200000E94950A01E010E062E088E00E94BC06AE
:102210006AE073E08CE696E00E941E0862E088E0C7
:102220000E94BC064D815E8169817A818CE696E0D0
:102230000E94D80063E080E00E94BC0667E173E082
:102240008CE696E00E941E086091040170910501E1
:102250008CE696E00E94D1078091040190910501DF
:102260000E940B086AE070E080E090E00E94D402D7
:102270006CCF61E972E0CE0101960E94950AC4CF4D
:102280006DE972E0F8CF68EA72E0F5CF64EB72E0D6
:10229000F2CF62E572E0EFCF6FEB72E0ECCF6CEC67
:1022A00072E0E9CF68ED72E0E6CF63EE72E0E3CF73
:1022B0006FEE72E0E0CF69EF72E0DDCF64E073E0D3
:1022C000CE0101960E94950A0DE010E09DCF0E947C
:1022D0007E0889819A81009709F412CF0E944B19D8
:1022E0000FCF123409F040C10E94F0060E946F0324
:1022F000182F60E080E00E94BC066CEA71E08CE67A
:1023000096E00E941E0861E080E00E94BC0665E243
:1023100073E08CE696E00E941E0861E085E00E9472
:10232000BC066091030191E0692770E08CE696E0BD
:102330000E94D10761E087E00E94BC066AE273E078
:102340008CE696E00E941E0861E08BE00E94BC06CD
:1023500060910201A1E06A2770E08CE696E00E949D
:10236000D10762E080E00E94BC066FE273E08CE679
:1023700096E00E941E0862E085E00E94BC06609123
:102380000101B1E06B2770E08CE696E00E94D10776
:1023900062E087E00E94BC0664E373E08CE696E0AE
:1023A0000E941E0862E08BE00E94BC066091000162
:1023B00044244394642570E08CE696E00E94D107A3
:1023C000143409F4C4C20E946F03182F8823D9F370
:1023D0008133B9F5809103018823D9F0109203016C
:1023E00060E083E00E943D0270E060E088E095E0FC
:1023F0000E94D10761E085E00E94BC066091030164
:1024000055245394652570E08CE696E00E94D10730
:10241000DACF662463946092030161E083E00E9456
:102420003D0261E070E088E095E00E94D10761E044
:1024300085E00E94BC0660910301772473946725B0
:10244000E2CF823379F5809102018823A9F01092BE
:10245000020160E082E00E943D0270E060E088E0FE
:1024600095E00E94D10761E08BE00E94BC0660917C
:10247000020121E06227C7CF31E03093020161E021
:1024800082E00E943D0261E070E088E095E00E94F9
:10249000D10761E08BE00E94BC066091020141E03F
:1024A0006427B1CF833309F046C3809101018823AB
:1024B000A9F01092010160E085E00E943D0270E009
:1024C00060E088E095E00E94D10762E085E00E942C
:1024D000BC066091010151E0652795CF81E08093B2
:1024E000010161E085E00E943D0261E070E088E06A
:1024F00095E00E94D10762E085E00E94BC066091F1
:10250000010191E069277FCF809100018823A9F024
:102510001092000160E084E00E943D0270E060E003
:1025200088E095E00E94D10762E08BE00E94BC0643
:1025300060910001A1E06A2766CFB1E0B09300018D
:1025400061E084E00E943D0261E070E088E095E097
:102550000E94D10762E08BE00E94BC0660910001FE
:102560004424439464254FCF133409F0A7C00E943C
:10257000A4080E946F03182F0E94A4081434C9F7FE
:102580000E947E080E94F0060E946F03182F68E6E2
:1025900071E087EF95E00E94950A143409F4D7C1E1
:1025A0000E946F03182F60E080E00E94BC0669E380
:1025B00073E08CE696E00E941E0861E080E00E94D5
:1025C000BC0661E771E08CE696E00E941E0861E0BF
:1025D00089E00E94BC06112319F3812F0E94280A6A
:1025E0004091FB055091FC056091F7057091F8054D
:1025F0008CE696E00E94D800133279F68091FB05B4
:102600009091FC0501970E9401078091F705909138
:10261000F805009709F456C00E94C9157093030588
:102620006093020568E671E087EF95E00E94950AE5
:102630000E94F0060E946F0360E080E00E94BC06EA
:102640006BE473E08CE696E00E941E0861E080E097
:102650000E94BC066CE573E08CE696E00E941E08C2
:1026600062E080E00E94BC066DE673E08CE696E0D6
:102670000E941E080E946F038823E1F3813331F525
:102680005524539450920105E0910401F091050105
:102690003197ED30F10508F053C0EF5AFC4E0C9421
:1026A000A9186B138813AA14BF14D814EF14F414C8
:1026B00017152015251540155F158015143409F0E0
:1026C0001FCD60CF60E070E0CB01A8CF823391F6E0
:1026D00010920105D9CF20E030E040EA5FE320937B
:1026E000F5043093F6044093F7045093F8042093D4
:1026F000F9043093FA044093FB045093FC042093B4
:10270000FD043093FE044093FF045093000518C06D
:10271000C092F504D092F604E092F704F092F80427
:10272000C092F904D092FA04E092FB04F092FC0407
:10273000C092FD04D092FE04E092FF04F0920005E6
:102740000E94F0060E946F03182F60E080E00E9454
:10275000BC0660E873E08CE696E00E941E0860917B
:102760000401709105018CE696E00E94D10761E0BA
:1027700080E00E94BC066DE873E08CE696E00E9463
:102780001E0860910205709103058CE696E00E9498
:10279000D10762E080E00E94BC066CE973E08CE641
:1027A00096E00E941E0863E080E00E94BC0669EA91
:1027B00073E08CE696E00E941E08143409F4C7C04A
:1027C0000E946F03182F8134C1F74090F504509098
:1027D000F6046090F7047090F8042FE632E143E8C5
:1027E0005AE3C301B2010E949F18181654F49301D2
:1027F000820149E25CE56FE47FE382E090E00E94C1
:1028000020080E94F00662EB73E08CE696E00E94DE
:102810001E0861E080E00E94BC0663EC73E08CE679
:1028200096E00E941E0862E080E00E94BC0667ED10
:1028300073E08CE696E00E941E08809101058823D3
:1028400009F46FC168EE73E080E090E00E94D4026A
:102850004090F9045090FA046090FB047090FC04DE
:102860002FE632E143E85AE3C301B2010E949F1808
:10287000181654F49301820149E25CE56FE47FE3AA
:1028800085E090E00E9420080E94F0066AEE73E066
:102890008CE696E00E941E0861E080E00E94BC0683
:1028A00063EC73E08CE696E00E941E0862E080E034
:1028B0000E94BC0667ED73E08CE696E00E941E085D
:1028C00080910105882309F431C168EE73E080E04E
:1028D00090E00E94D4024090FD045090FE0460906D
:1028E000FF04709000052FE632E143E85AE3C3018C
:1028F000B2010E949F18181654F49301820141E717
:102900005DE36AE47FE384E090E00E9420080E9497
:10291000F00664E670E080E090E00E94D40260E09F
:1029200080E00E94BC0669EF73E08CE696E00E94AE
:102930001E0861E080E00E94BC066AE074E08CE65C
:1029400096E00E941E080E946F038434E1F70E9403
:102950007E08D6CB80E090E0A0E7B1E48093F50458
:102960009093F604A093F704B093F8048092F904CE
:102970009092FA04A092FB04B092FC04D9CE80920B
:10298000F5049092F604A092F704B092F8048092B5
:10299000F9049092FA04A092FB04B092FC04809295
:1029A000FD049092FE04A092FF04B0920005C8CEF0
:1029B000C092F504D092F604E092F704F092F80485
:1029C0008092F9049092FA04A092FB04B092FC0465
:1029D000412C512C80E7682E81E4782E1FC020E026
:1029E00030E040E250E47BCE80E090E0A0EFB0E445
:1029F0008093F5049093F604A093F704B093F80441
:102A00008092F9049092FA04A092FB04B092FC0424
:102A1000412C512C30E2632E30E4732E4092FD04A1
:102A20005092FE046092FF047092000589CE80925D
:102A3000F5049092F604A092F704B092F80496CFB1
:102A400020E030E040EF50E44ACE80E090E0A0EF9C
:102A5000B0E48093F5049093F604A093F704B09348
:102A6000F804412C512C20E2622E20E4722E409278
:102A7000F9045092FA046092FB047092FC048FCF28
:102A800020E030E040EF50E42093F5043093F6046A
:102A90004093F7045093F80480E090E0A0E2B0E4A3
:102AA0008093F9049093FA04A093FB04B093FC0480
:102AB000412C512C98E4692E91E4792EAFCF20E07F
:102AC00030E040EF50E42093F5043093F604409357
:102AD000F7045093F8041092F9041092FA0410923B
:102AE000FB041092FC0480E090E0A0E7B1E4809346
:102AF000FD049093FE04A093FF04B093000520CE44
:102B0000C092F504D092F604E092F704F092F80433
:102B10001092F9041092FA041092FB041092FC0433
:102B200057CF0E946F038134E1F792CE0E946F036A
:102B30008134E1F7D0CE843309F4E6CC843409F44F
:102B400006CF3ECC8091F7059091F805009711F0E3
:102B50000C944B190895FC0188279927E89421913A
:102B60002032E9F3293010F02E30C8F32B3241F037
:102B70002D3239F4689404C00E940516820F911D0D
:102B8000219120532A30C0F31EF4909581959F4FD8
:102B900008951F93FC0199278827BC01E89411919F
:102BA0001032E9F3193010F01E30C8F31B3251F027
:102BB0001D3249F4689406C00E94F015610F711D22
:102BC000811D911D119110531A30B0F33EF4909570
:102BD0008095709561957F4F8F4F9F4F1F910895FE
:102BE000592F482F372F262F660F771F881F991FC1
:102BF000660F771F881F991F620F731F841F951F11
:102C0000660F771F881F991F08957AE0979F902D70
:102C1000879F802D910D112408950E944F1608F46E
:102C200081E00895E89409C097FB3EF49095809563
:102C3000709561957F4F8F4F9F4F9923A9F0F92F82
:102C400096E9BB279395F695879577956795B79500
:102C5000F111F8CFFAF4BB0F11F460FF1BC06F5FE6
:102C60007F4F8F4F9F4F16C0882311F096E911C0F8
:102C7000772321F09EE8872F762F05C0662371F019
:102C800096E8862F70E060E02AF09A95660F771F2D
:102C9000881FDAF7880F9695879597F90895990F09
:102CA0000008550FAA0BE0E8FEEF16161706E80716
:102CB000F907C0F012161306E407F50798F0621B37
:102CC000730B840B950B39F40A2661F0232B242B0C
:102CD000252B21F408950A2609F4A140A6958FEF2B
:102CE000811D811D08950E9486160C94F7160E947E
:102CF000E91638F00E94F01620F0952311F00C949C
:102D0000E0160C94E61611240C942B170E94081759
:102D100070F3959FC1F3950F50E0551F629FF0012E
:102D2000729FBB27F00DB11D639FAA27F00DB11D47
:102D3000AA1F649F6627B00DA11D661F829F2227D0
:102D4000B00DA11D621F739FB00DA11D621F839F57
:102D5000A00D611D221F749F3327A00D611D231F2D
:102D6000849F600D211D822F762F6A2F11249F577B
:102D700050409AF0F1F088234AF0EE0FFF1FBB1F7E
:102D8000661F771F881F91505040A9F79E3F51053D
:102D900080F00C94E0160C942B175F3FE4F3983E00
:102DA000D4F3869577956795B795F795E7959F5FE7
:102DB000C1F7FE2B880F911D9695879597F9089579
:102DC00097F99F6780E870E060E008959FEF80ECDE
:102DD000089500240A941616170618060906089581
:102DE00000240A9412161306140605060895092EE7
:102DF0000394000C11F4882352F0BB0F40F4BF2B56
:102E000011F460FF04C06F5F7F4F8F4F9F4F089595
:102E100057FD9058440F551F59F05F3F71F047958B
:102E2000880F97FB991F61F09F3F79F08795089570
:102E3000121613061406551FF2CF4695F1DF08C08F
:102E4000161617061806991FF1CF869571056105AC
:102E500008940895E894BB2766277727CB0197F954
:102E60000895A1E21A2EAA1BBB1BFD010DC0AA1FCB
:102E7000BB1FEE1FFF1FA217B307E407F50720F0E3
:102E8000A21BB30BE40BF50B661F771F881F991F5E
:102E90001A9469F760957095809590959B01AC01A7
:102EA000BD01CF0108952F923F924F925F926F9292
:102EB0007F928F929F92AF92BF92CF92DF92EF92CA
:102EC000FF920F931F93CF93DF93CDB7DEB7CA1B4B
:102ED000DB0B0FB6F894DEBF0FBECDBF09942A8876
:102EE000398848885F846E847D848C849B84AA841E
:102EF000B984C884DF80EE80FD800C811B81AA81AB
:102F0000B981CE0FD11D0FB6F894DEBF0FBECDBF75
:102F1000ED0108955058BB27AA270E94A2170C94D0
:102F2000F7160E94E91638F00E94F01620F039F4E6
:102F30009F3F19F426F40C94E6160EF4E095E7FB97
:102F40000C94E016E92F0E94081758F3BA1762078D
:102F500073078407950720F079F4A6F50C942A17D7
:102F60000EF4E0950B2EBA2FA02D0B01B9019001A4
:102F70000C01CA01A0011124FF27591B99F0593FE8
:102F800050F4503E68F11A16F040A22F232F342F30
:102F90004427585FF3CF469537952795A795F0407E
:102FA0005395C9F77EF41F16BA0B620B730B840B93
:102FB000BAF09150A1F0FF0FBB1F661F771F881F4B
:102FC000C2F70EC0BA0F621F731F841F48F48795A3
:102FD00077956795B795F7959E3F08F0B0CF939595
:102FE000880F08F09927EE0F9795879508950E940E
:102FF0000B180C94F7160E94F01658F00E94E91670
:1030000040F029F45F3F29F00C94E01651110C9424
:103010002B170C94E6160E94081768F39923B1F356
:10302000552391F3951B550BBB27AA2762177307EE
:10303000840738F09F5F5F4F220F331F441FAA1F82
:10304000A9F335D00E2E3AF0E0E832D0915050403E
:10305000E695001CCAF72BD0FE2F29D0660F771FEC
:10306000881FBB1F261737074807AB07B0E809F0D2
:10307000BB0B802DBF01FF2793585F4F3AF09E3F57
:10308000510578F00C94E0160C942B175F3FE4F395
:10309000983ED4F3869577956795B795F7959F5F9A
:1030A000C9F7880F911D9695879597F90895E1E0E6
:1030B000660F771F881FBB1F621773078407BA0745
:1030C00020F0621B730B840BBA0BEE1F88F7E095A0
:1030D00008950E9470186894B1110C942B170895EC
:1030E0000E94101788F09F5798F0B92F9927B75171
:1030F000B0F0E1F0660F771F881F991F1AF0BA959C
:10310000C9F714C0B13091F00E942A17B1E00895B8
:103110000C942A17672F782F8827B85F39F0B93FAA
:10312000CCF3869577956795B395D9F73EF490954E
:103130008095709561957F4F8F4F9F4F08950E94A6
:103140004F1608F48FEF08950E944F16880B990BC5
:103150000895EE0FFF1F0590F491E02D09940F9351
:103160001F93CF93DF938230910510F482E090E0BB
:10317000E0917A06F0917B0630E020E0B0E0A0E03C
:10318000309799F42115310509F44AC0281B390BF1
:1031900024303105D8F58A819B816115710589F14B
:1031A000FB0193838283FE0111C040815181028122
:1031B000138148175907E0F04817590799F41097F9
:1031C00061F012960C93129713961C933296CF01CE
:1031D000DF91CF911F910F91089500937A0610937C
:1031E0007B06F4CF2115310551F04217530738F013
:1031F000A901DB019A01BD01DF01F801C1CFEF0197
:10320000F9CF90937B0680937A06CDCFFE01E20F33
:10321000F31F819391932250310939832883D7CFAB
:103220002091780630917906232B41F420912001DA
:1032300030912101309379062093780620911E0168
:1032400030911F012115310541F42DB73EB7409152
:10325000220150912301241B350BE0917806F09157
:103260007906E217F307A0F42E1B3F0B2817390746
:1032700078F0AC014E5F5F4F2417350748F04E0FD2
:103280005F1F5093790640937806819391939FCF67
:10329000F0E0E0E09CCFCF93DF930097E9F0FC01F2
:1032A000329713821282A0917A06B0917B06ED01CB
:1032B00030E020E01097A1F420813181820F931F2C
:1032C00020917806309179062817390709F061C0F6
:1032D000F0937906E0937806DF91CF910895EA01A3
:1032E000CE17DF07E8F54A815B819E014115510544
:1032F000B1F7E901FB83EA8349915991C40FD51FC6
:10330000EC17FD0761F4808191810296840F951F6F
:10331000E90199838883828193819B838A83F0E08A
:10332000E0E012968D919C9113970097B9F52D913D
:103330003C911197CD010296820F931F2091780640
:10334000309179062817390739F6309751F51092E0
:103350007B0610927A06B0937906A0937806BCCFCC
:10336000D383C28340815181840F951FC817D90729
:1033700061F44E5F5F4F88819981480F591F5183D7
:1033800040838A819B81938382832115310509F0D3
:10339000B0CFF0937B06E0937A069ECFFD01DC016F
:1033A000C0CF13821282D7CFB0E0A0E0EAEDF9E1FE
:1033B0000C9455178C01009751F4CB010E94AF1863
:1033C0008C01C801CDB7DEB7E0E10C947117FC01A8
:1033D000E60FF71F9C0122503109E217F30708F4AA
:1033E0009DC0D901CD91DC911197C617D70798F0F0
:1033F000C530D10530F3CE0104978617970708F33F
:10340000C61BD70B2297C193D1936D937C93CF01A9
:103410000E944B19D6CF5B01AC1ABD0A4C018C0E31
:103420009D1EA0917A06B0917B06512C412CF12C67
:10343000E12C109731F580917806909179068815E6
:10344000990509F05CC04616570608F058C08091EF
:103450001E0190911F01009741F48DB79EB74091D6
:10346000220150912301841B950BE817F90708F0FE
:1034700055C0F0937906E0937806F9017183608373
:10348000A0CF8D919C91119712966C9012971396E4
:103490007C901397A815B90559F56C0142E0C40E4C
:1034A000D11CCA14DB0420F1AC014A195B09DA0112
:1034B0001296159780F06282738251834083D901FE
:1034C0006D937C93E114F10471F0D7011396FC9392
:1034D000EE93129776CF22968C0F9D1FF901918360
:1034E0008083F301EFCFF0937B06E0937A0669CFF8
:1034F0004816590608F42C017D01D3019ACFCB015F
:103500000E94AF187C01009749F0AE01B8010E94FB
:10351000911AC8010E944B19870153CF10E000E0B7
:1035200050CFFB01DC0102C001900D924150504090
:10353000D8F70895FB01DC0101900D920020E1F71E
:103540000895FB01DC014150504048F001900D927C
:103550000020C9F701C01D9241505040E0F7089586
:1035600010E0C2E6D0E004C0FE010E94A918219636
:0A357000C336D107C9F7F894FFCF66
:10357A00010101010100060708090A0B0C0D31328D
:10358A00334134353642373839432A302344000030
:10359A007C06800000004000140054000000000077
:1035AA007B01D8000801C801390117012B0100006D
:1035BA00000073054605890605013F052C051D0512
:1035CA0000000000AB026B023A0200000000FB069A
:1035DA00D8008906B6040D0A0067616C6C6F6E73B9
:1035EA0020746F20446F73653A200050756D702007
:1035FA004379636C653A20004379636C652074698A
:10360A006D653A200041202D20536574205761745E
:10361A00657220446F73650042202D20546F6767DE
:10362A006C652050756D70730043202D20526561C2
:10363A00642050480044202D20426567696E20446A
:10364A006F73696E670073656E736F72203D200039
:10365A006E616E00696E66006F766600564D445064
:10366A00565F317C315F564D4450560A00564D44E0
:10367A0050525F0020202020204175746F6D6174C4
:10368A006564002020202020204E75747269656EC2
:10369A0074002020202020417373697374616E7452
:1036AA00002020202020202028414E412900564D6C
:1036BA004450455F003A323A007C005F564D445010
:1036CA004500536565646C696E670043686F6F7384
:1036DA006520646F73696E67206C6576656C3A0065
:1036EA00313A20496E6320323A20446563004375BB
:1036FA007272656E743A00536565646C696E6731FF
:10370A000047656E20507572706F73650041676778
:10371A002047726F777468005472616E7332426C1C
:10372A006F6F6D00426C6F6F6D2652697065004550
:10373A0061726C792047726F777468004C617465A6
:10374A002047726F777468005472616E7369746986
:10375A006F6E004561726C7920426C6F6F6D004D1F
:10376A00696420426C6F6F6D004C61746520426C15
:10377A006F6F6D00526970656E0020202020202036
:10378A002020202020200053656C65637465642026
:10379A0049443A200050313A200050323A20005031
:1037AA00333A200050343A20004E756D626572201B
:1037BA006F662047616C6C6F6E73004175746F2081
:1037CA006F72204D616E75616C6C79005377697404
:1037DA006368204E75747269656E74730031202DAA
:1037EA00204175746F207C2032202D204D616E009F
:1037FA00646F7365206C6576656C3A200023206FD0
:10380A00662067616C6C6F6E733A200041202D2030
:10381A00436F6E74696E75650044202D2045786982
:10382A007400466C6F72614D6963726F20446F73E6
:10383A006564005072657373204120746F20436F72
:10384A006E74696E7565004966204D616E75616CAE
:10385A006C7920446F73696E6700466C6F726147BA
:10386A00726F20446F73656400466C6F7261426CBC
:10387A006F6F6D20446F73656400507265737320B7
:0A388A004420746F20457869740033
:00000001FF
