:100000000C9463000C948B000C948B000C948B006C
:100010000C948B000C948B000C948B000C948B0034
:100020000C948B000C948B000C948B000C948B0024
:100030000C948B000C948B000C948B000C948B0014
:100040000C94A8090C948B000C9476090C9450091C
:100050000C948B000C948B000C948B000C948B00F4
:100060000C94F2090C948B0000000000240027007F
:100070002A0000000000250028002B0000000000DE
:1000800023002600290004040404040404040202DA
:100090000202020203030303030301020408102007
:1000A0004080010204081020010204081020000012
:1000B0000008000201000003040700000000000027
:1000C0000000110BD21211241FBECFEFD8E0DEBF0B
:1000D000CDBF26E0A4E0B4E001C01D92A631B20776
:1000E000E1F714E0A0E0B1E0E6E9FFE202C005902C
:1000F0000D92A430B107D9F710E0C2E6D0E004C0F9
:100100002197FE010E94AE15C136D107C9F70E94A2
:10011000D80B0C94BE170C94000096E0899FD00178
:100120001124A956BA4F90967C936E935F9791E0F5
:1001300091969C939197E0910406F0910506909119
:100140000306992339F0309751F0811108C080914E
:10015000B3050994309719F05C968C91FACF089505
:10016000CF92DF92EF92FF920F931F9396E0899FB9
:10017000F0011124E956FA4F11A2278D30A1213048
:10018000310551F178F02230310509F451C02330A6
:10019000310509F452C01F910F91FF90EF90DF904D
:1001A000CF9008956623B9F361E070E00E948D005E
:1001B0002FB7F8948091E4049091E504A091E604AF
:1001C000B091E7042FBF8093EF059093F005A093C3
:1001D000F105B093F205DFCF9FB7F894C090E40427
:1001E000D090E504E090E604F090E7049FBF009112
:1001F000EF051091F0052091F1053091F205C01A3C
:10020000D10AE20AF30A009101061091020630E0D9
:1002100020E00C151D052E053F0550F462E070E04E
:100220001F910F91FF90EF90DF90CF900C948D0075
:100230006111B1CF63E070E0F3CF70E060E0F0CF28
:10024000AF92BF92CF92DF92EF92FF920F931F93E4
:10025000CF93DF936C017B018B01040F151FEB0122
:100260005E01AE18BF08C017D10759F06991D601D9
:10027000ED91FC910190F081E02DC6010995892B4B
:1002800079F7C501DF91CF911F910F91FF90EF900A
:10029000DF90CF90BF90AF90089508950895FC012E
:1002A000538D448D252F30E0842F90E0821B930BDB
:1002B000541710F0CF96089501970895FC01918D81
:1002C000828D981761F0A28DAE0FBF2FB11D5D9684
:1002D0008C91928D9F5F9F73928F90E008958FEF26
:1002E0009FEF0895FC01918D828D981731F0828DDA
:1002F000E80FF11D858D90E008958FEF9FEF089531
:10030000FC01918D228D892F90E0805C9F4F821B94
:1003100091098F739927089588EE94E00E948001D7
:1003200021E0892B09F420E0822F089580E090E0FD
:10033000892B29F00E948C0181110C9400000895F2
:10034000FC01A48DA80FB92FB11DA35ABF4F2C914A
:10035000848D90E001968F739927848FA689B78941
:100360002C93A089B1898C91837080648C93938D38
:10037000848D981306C00288F389E02D80818F7DDB
:1003800080830895EF92FF920F931F93CF93DF9393
:10039000EC0181E0888F9B8D8C8D98131AC0E889C1
:1003A000F989808185FF15C09FB7F894EE89FF8990
:1003B0006083E889F98980818370806480839FBF2E
:1003C00081E090E0DF91CF911F910F91FF90EF902E
:1003D0000895F62E0B8D10E00F5F1F4F0F7311273E
:1003E000E02E8C8D8E110CC00FB607FCFACFE88979
:1003F000F989808185FFF5CFCE010E94A001F1CF60
:10040000EB8DEC0FFD2FF11DE35AFF4FF0829FB7EC
:10041000F8940B8FEA89FB8980818062CFCFCF93DC
:10042000DF93EC01888D8823B9F0AA89BB89E8891C
:10043000F9898C9185FD03C0808186FD0DC00FB6C2
:1004400007FCF7CF8C9185FFF2CF808185FFEDCF40
:10045000CE010E94A001E9CFDF91CF9108958330B2
:1004600081F028F4813099F08230A9F00895873026
:10047000A9F08830C9F08430B1F4809180008F7D7C
:1004800003C0809180008F7780938000089584B5A9
:100490008F7784BD089584B58F7DFBCF8091B000A8
:1004A0008F778093B00008958091B0008F7DF9CF51
:1004B000CF93DF93282F30E0F901E255FF4F84916D
:1004C000F901E656FF4FD491F901EA57FF4FC49165
:1004D000CC23A1F081110E942F02EC2FF0E0EE0F4F
:1004E000FF1FE458FF4FA591B491EC91ED2381E0FB
:1004F00090E009F480E0DF91CF91089580E090E0F2
:10050000FACF862F0C9458021F93CF93DF93282F96
:1005100030E0F901E255FF4F8491F901E656FF4FB3
:10052000D491F901EA57FF4FC491CC23A9F0162FBB
:1005300081110E942F02EC2FF0E0EE0FFF1FEE580A
:10054000FF4FA591B4918FB7F894EC91111108C0A9
:10055000D095DE23DC938FBFDF91CF911F9108955B
:10056000DE2BF8CF862F642F0C948402CF93DF9379
:1005700090E0FC01E656FF4F24918A579F4FFC0103
:1005800084918823C9F090E0880F991FFC01E859F5
:10059000FF4FA591B491FC01EE58FF4FC591D49146
:1005A00061110DC09FB7F8948C91209582238C9394
:1005B0008881282328839FBFDF91CF9108956230DF
:1005C00051F49FB7F8943C91822F809583238C93AC
:1005D000E8812E2BEFCF8FB7F894EC912E2B2C9334
:1005E0008FBFEACF862F642F0C94B6026F927F9252
:1005F0008F929F92AF92BF92CF92DF92EF92FF9233
:100600000F931F93CF93DF9381E0809303068FB7FF
:10061000F8944091E4045091E5046091E6047091EF
:10062000E7048FBF8091F3059091F405A091F50543
:10063000B091F605481B590B6A0B7B0B8091FF05A7
:1006400090910006B0E0A0E084179507A607B707D1
:1006500008F01DC1C0E08091FD05C81760F4E0916D
:10066000F905F091FA05EC0FF11D62E080810E941E
:10067000B602CF5FF0CF712C812C912C5401839462
:100680008091FE05781608F05FC0072D10E0E0911C
:10069000FB05F091FC05E00FF11F61E080810E94F5
:1006A000B602E091FB05F091FC05E00FF11F60E060
:1006B00080810E948402D501C401072C04C0880FE8
:1006C000991FAA1FBB1F0A94D2F76C017C01E0940A
:1006D000F094612C8091FD056816F8F4C62DD0E0E9
:1006E000E091F905F091FA05EC0FFD1F80810E9461
:1006F00058022496CC0FDD1FC956DA4F892B41F4DE
:10070000888199818C299D29998388836394E2CF7C
:10071000888199818E219F21F7CFE091FB05F0918F
:10072000FC05E00FF11F61E080810E94840280914E
:10073000FB059091FC05080F191F60E0F80180810E
:100740000E94B60273949CCFC7E9D5E0FE018FEFFB
:100750009FEF278D30A1232B21F4148E968F858F48
:1007600011A2369625E0E33DF20799F7F12C96E0C9
:10077000D92E8091FD05F81608F050C0E12C0F2D00
:1007800010E0000F111F01561A4F2091FE05E216CE
:1007900008F042C0F801608171810E2C02C076958C
:1007A00067950A94E2F7F29E900111242E0D311DF7
:1007B000E7E9F5E080E0458D568D2417350709F40B
:1007C0006AC08F5F36968A30B1F760FF23C0E7E9D1
:1007D000F5E090E080E0448D411117C0E091F7050D
:1007E000F091F805E20FF31F4081D89EF001D99EE9
:1007F000F00D1124E956FA4F448F368F258F10A241
:10080000178E61E00E94B00005C0019636968A30CE
:10081000910509F7E394B9CFF394ABCF80E099A1A8
:100820009111892F2696F5E0C33DDF07C1F79FB7E9
:10083000F8944091E4045091E5046091E6047091CD
:10084000E7049FBF4093F3055093F4056093F505CB
:100850007093F6058823D9F08091B8058823B9F004
:100860008091B6059091B705019789F48091B30501
:10087000DF91CF911F910F91FF90EF90DF90CF907C
:10088000BF90AF909F908F907F906F90089510923F
:10089000030680E0EDCF6170B5CF3FB7F89480914B
:1008A000C6049091C704A091C804B091C90426B5AC
:1008B000A89B05C02F3F19F00196A11DB11D3FBF98
:1008C000BA2FA92F982F8827BC01CD01620F711D67
:1008D000811D911D42E0660F771F881F991F4A9561
:1008E000D1F708958F929F92AF92BF92CF92DF92ED
:1008F000EF92FF926B017C010E944D044B015C0161
:10090000C114D104E104F104B9F00E944D04681946
:1009100079098A099B09683E73408105910580F336
:1009200021E0C21AD108E108F10888EE880E83E0C0
:10093000981EA11CB11CE4CFFF90EF90DF90CF90E8
:10094000BF90AF909F908F900895089585ED80930C
:10095000BC008091BC0084FDFCCF1092D0040895AF
:1009600020915C04260F3327331F21323105ECF42C
:100970002091D004FC0190E080E0243069F082E016
:100980000895A0915C042191AC01445C5B4FA40FDD
:10099000B52FB11D2C930196861798F380915C04B6
:1009A000680F60935C0480E0089581E008950895E5
:1009B000E091D4048091D304E81730F4F0E0E45ED1
:1009C000FB4F808190E008958FEF9FEF0895909105
:1009D000D4048091D3042FEF3FEF981748F4E92F08
:1009E000F0E0E45EFB4F208130E09F5F9093D40401
:1009F000C90108958091D3049091D404891B990B67
:100A00000895CF92DF92EF92FF920F931F93CF93AF
:100A1000DF937C01CB018A012091A304222389F07A
:100A2000EB016B01C40ED51ECC15DD0569F0699193
:100A3000D701ED91FC910190F081E02DC70109955E
:100A4000F3CF642F0E94B004C801DF91CF911F91B2
:100A50000F91FF90EF90DF90CF900895CF93DF93A9
:100A60001F92CDB7DEB769832091A3042223F9F04A
:100A70002091D104203258F021E030E0FC01338392
:100A8000228390E080E00F90DF91CF9108958091D4
:100A9000D204E82FF0E0EC55FB4F998190838F5FF3
:100AA0008093D2048093D10481E090E0ECCF61E0A8
:100AB000CE0101960E94B004F7CFCF93FC01C48110
:100AC00021E02093A304C093C4041092D204109296
:100AD000D1048385682B85E895E00E942E059091CE
:100AE000D104913208F03FC08091D0048111FCCF35
:100AF00082E08093D00481E08093CF048FEF8093D5
:100B0000A2041092A1049093A004A4EAB4E0E0E847
:100B1000F4E080E098132FC010927F0480917F044E
:100B2000CC0FC82BC0937F048091CE04813039F55F
:100B30001092CE0480917F048093BB008091BC0012
:100B400083FDF8CF85EC8093BC008091D004823087
:100B5000E1F38091A2048F3F31F08091A2048032B2
:100B600011F08091A2041092D2041092D10410923C
:100B7000A304CF9108952D9121938F5FCBCF85EE64
:100B8000E2CF90E080E008950F931F93CF938C0104
:100B9000C62F0E945D056C2F6460C8010E945D0530
:100BA0006C2F6B7FC8010E945D0583EC90E001977C
:100BB000F1F7CF911F910F9108950F931F93CF934A
:100BC000DF938C01D62FC42F607F642B0E94C40555
:100BD00080E1D89FB00111246C2BC801DF91CF9127
:100BE0001F910F910C94C405CF93DF93CDB7DEB75F
:100BF00028970FB6F894DEBF0FBECDBF98E0E4E2B1
:100C0000F1E0DE01119601900D929A95E1F7909135
:100C10000E06961710F46FEF690F262F30E0220FA3
:100C2000331F41E050E04C0F5D1F240F351FF901C9
:100C30006081680F606840E086E096E028960FB615
:100C4000F894DEBF0FBECDBFDF91CF910C94DD05D0
:100C500040E061E086E096E00E94DD058BE39FE1E5
:100C60000197F1F7089541E00E94DD0581E090E0F1
:100C70000895FB0101900020E9F73197AF01461B71
:100C8000570BDC01ED91FC910280F381E02D09947A
:100C90008F929F92AF92BF92EF92FF920F931F930A
:100CA000CF93DF93CDB7DEB7A1970FB6F894DEBF31
:100CB0000FBECDBF7C01FA01CB0119A2223008F48E
:100CC0002AE08E010F5D1F4F822E912CB12CA12C9A
:100CD000BF01A50194010E948C15F901CA016A3077
:100CE0000CF5605DD8016E938D01232B242B252BF1
:100CF00079F790E080E0109721F0BD01C7010E94D4
:100D00003906A1960FB6F894DEBF0FBECDBFDF91B6
:100D1000CF911F910F91FF90EF90BF90AF909F9058
:100D20008F900895695CDECFCF92DF92EF92FF92B1
:100D30000F931F93CF93DF936B01770FEE08FF089C
:100D4000F7FE1FC0EC01E881F9810190F081E02DF0
:100D50006DE209958C0144275527BA014C195D09AC
:100D60006E097F092AE0CE010E944806800F911F7C
:100D7000DF91CF911F910F91FF90EF90DF90CF9077
:100D800008952AE0B701A601DF91CF911F910F913D
:100D9000FF90EF90DF90CF900C944806CF93DF93B5
:100DA000BC0188EE94E00E949406EC0166E671E0D6
:100DB00088EE94E00E9439068C0F9D1FDF91CF9141
:100DC00008950C9439068F929F92AF92BF92FF9232
:100DD0000F931F93CF93DF93F82ECB01BA01A90194
:100DE00098010E94781320E030E04AE754E40E9422
:100DF00078130E944C158B0160E08F2D0E948402B5
:100E000069E671E088EE94E00E94E1068091E204D8
:100E10009091E3040E94CE06D0E0C0E04801012E8C
:100E2000000CAA08BB088091E2049091E304C81763
:100E3000D907D4F4C501B4010E9472046BE771E0D4
:100E400088EE94E00E94E106BE0188EE94E00E94E4
:100E5000940668E871E088EE94E00E94E106C8011B
:100E60000E94CE062196DFCF61E08F2DDF91CF91DA
:100E70001F910F91FF90BF90AF909F908F900C9417
:100E800084020E94280665E971E086E096E00E94EF
:100E9000E10661E080E00E94F40568EA71E086E026
:100EA00096E00E94E10662E080E00E94F40569EBB2
:100EB00071E086E096E00E94E10663E080E00E9437
:100EC000F40565EC71E086E096E00C94E1064F9243
:100ED0005F926F927F928F929F92AF92BF92CF92CA
:100EE000DF92EF92FF920F931F93CF93DF930CE16A
:100EF00014E0C8E0D4E080E4F82EF0927C00809109
:100F00007A00806480937A0080917A0086FDFCCF1D
:100F10009091780080917900892798278927899373
:100F200099936EE170E080E090E00E9472040C17EB
:100F30001D0719F74AE154E0E8E0F4E0DF018081A1
:100F4000918112962D913C9113972817390734F40B
:100F50003183208313969C938E93129712964A178F
:100F60005B0769F7329684E0EA31F80739F7ECE07D
:100F7000F4E028E134E060E070E0CB01C190D19072
:100F80000D2C000CEE08FF086C0D7D1D8E1D9F1DA5
:100F90002E173F0799F7609304047093050480931C
:100FA0000604909307040E94171320E030E040EA03
:100FB00050E40E94781320E030E040E85AE30E94B9
:100FC000781320E030E040EC50E40E94DA1426E68A
:100FD00036E646EB50EC0E9478132AE037ED49EAFA
:100FE00051E40E946E146B017C014B015C010E9474
:100FF000280661E080E00E94F40566ED71E086E07D
:1010000096E00E94E106A7019601C701B6010E9481
:10101000871560EE71E081111AC026013701E8944E
:1010200077F82FEF3FEF4FE75FE7C301B2010E9470
:101030008715811126C02FEF3FEF4FE75FE7C30110
:10104000B2010E9412131816E4F464EE71E086E017
:1010500096E00E9439066AE070E080E090E0DF915F
:10106000CF911F910F91FF90EF90DF90CF90BF90A5
:10107000AF909F908F907F906F905F904F900C9467
:1010800072042FEF3FEF4FE75FE4C701B6010E9404
:10109000821518161CF468EE71E0D9CF2FEF3FEFE0
:1010A0004FE75FECC701B6010E94121387FDF3CF33
:1010B00020E030E0A901C701B6010E94121387FFAA
:1010C0000CC041E06DE286E096E00E94DD0546013D
:1010D0005701B7FAB094B7F8B0942AE037ED43EA75
:1010E0005BE3C501B4010E946E144B015C010E94D8
:1010F00053156B017C010E9417139B01AC01C501C4
:10110000B4010E946D144B015C012AE0B701A601F5
:1011100086E096E00E94480641E06EE286E096E0B6
:101120000E94DD0520E030E040E251E4C501B40159
:101130000E9478134B015C010E9453156B01F12C46
:10114000E12C2AE0B701A60186E096E00E9448065D
:10115000C701B6010E9417139B01AC01C501B40180
:101160000E946D1420E030E040E251E40E947813C8
:101170000E945315AB0170E060E02AE086E096E043
:101180000E94480668CF40919505509196058417B6
:10119000950700F520919105309192054150510934
:1011A0005093960540939505481B590BBC016F5F02
:1011B0007F4F620F731F820F931F0E94AF17E09142
:1011C0009105F09192058091950590919605E80F13
:1011D000F91F10820895FC0180819181009711F020
:1011E0000C94501608950F931F93CF93DF93EC0147
:1011F00088819981009759F02A813B81261737070A
:1012000030F081E0DF91CF911F910F9108958B0114
:101210006F5F7F4F0E94D916009759F0998388839A
:101220001B830A832C813D81232B59F7FC011082FB
:10123000E8CF80E0E7CFEF92FF920F931F93CF9319
:10124000DF93EC017B018A01BA010E94F308288137
:101250003981811114C02115310519F0C9010E948D
:101260005016198218821D821C821B821A82CE019E
:10127000DF91CF911F910F91FF90EF9008951D8303
:101280000C83B701C9010E94A817F1CFFB0101909F
:101290000020E9F73197AF01461B570B0C941B094F
:1012A0001F920F920FB60F9211242F933F934F93DB
:1012B0005F936F937F938F939F93AF93BF93EF93BE
:1012C000FF9388EE94E00E94A001FF91EF91BF91FF
:1012D000AF919F918F917F916F915F914F913F91CE
:1012E0002F910F900FBE0F901F9018951F920F9285
:1012F0000FB60F9211242F938F939F93EF93FF9329
:10130000E091F804F091F9048081E091FE04F091FD
:10131000FF0482FD1BC09081809101058F5F8F7358
:1013200020910205821741F0E0910105F0E0E851BB
:10133000FB4F958F80930105FF91EF919F918F91C6
:101340002F910F900FBE0F901F9018958081F4CFB2
:101350001F920F920FB60F9211242F933F938F93EA
:101360009F93AF93BF938091E4049091E504A09183
:10137000E604B091E7043091C50423E0230F2D3734
:1013800058F50196A11DB11D2093C5048093E40476
:101390009093E504A093E604B093E7048091C6041B
:1013A0009091C704A091C804B091C9040196A11DF1
:1013B000B11D8093C6049093C704A093C804B09352
:1013C000C904BF91AF919F918F913F912F910F9041
:1013D0000FBE0F901F90189526E8230F0296A11DAF
:1013E000B11DD2CF1F920F920FB60F9211242F93DF
:1013F0003F934F935F936F937F938F939F93AF939D
:10140000BF93EF93FF938091B900887F803609F4F2
:101410004AC0F0F5883209F4A7C018F5803109F404
:101420009BC0B8F4882309F4F9C0883009F494C04B
:10143000FF91EF91BF91AF919F918F917F916F91AC
:101440005F914F913F912F910F900FBE0F901F9082
:101450001895883109F488C0803251F78093A2042E
:1014600014C0803409F49DC040F48033B9F388334C
:10147000F9F68093A20485ECB0C0803509F485C0EC
:10148000883509F496C0883499F60E94A604D0CF16
:10149000883909F48CC038F5883729F050F488363B
:1014A00011F0803729F683E08093D00410927E04F7
:1014B00057C0883809F47BC0803919F0803809F0AA
:1014C000B7CF80917E04803208F071C0E0917E0435
:1014D00081E08E0F80937E048091BB00F0E0E25AA1
:1014E000FB4F80833DC0803B39F0E0F4803A09F443
:1014F00079C0883A09F09CCF84E08093D0041092A0
:101500005D0410925C04E091CC04F091CD04099547
:1015100080915C0481110FC081E080935C04109283
:101520003C0409C0803C09F4A6CF883C09F4A3CF51
:10153000883B09F07DCFE0915D0481E08E0F8093C0
:101540005D04F0E0E45CFB4F80818093BB009091F0
:101550005D0480915C0429C080917F048093BB006E
:1015600085EC8093BC0064CF9091A1048091A0048D
:10157000981758F5E091A10481E08E0F8093A104A3
:10158000F0E0E058FB4F8081E9CFE091A10481E0D9
:101590008E0F8093A1048091BB00F0E0E058FB4FD8
:1015A00080839091A1048091A0049817C8F285E8E7
:1015B000D8CFE091A10481E08E0F8093A1048091A7
:1015C000BB00F0E0E058FB4F80838091CF04811195
:1015D0005CCF81E08093CE0484EA8093BC001092BB
:1015E000D00426CF85EC8093BC001092D00480916B
:1015F0007E04803230F4E0917E04F0E0E25AFB4F4A
:10160000108260917E0470E0E091CA04F091CB04F6
:101610008EE594E0099510927E040ACF1092A20400
:1016200034CF1092EB041092EA0488EE93E0A0E02D
:10163000B0E08093EC049093ED04A093EE04B0939B
:10164000EF0420E331E03093E9042093E80425EC33
:1016500030E03093F5042093F40424EC30E0309330
:10166000F7042093F60420EC30E03093F904209343
:10167000F80421EC30E03093FB042093FA0422ECD0
:1016800030E03093FD042093FC0426EC30E03093EE
:10169000FF042093FE04109201051092020510929F
:1016A0000305109204051092880510928705809317
:1016B000890590938A05A0938B05B0938C0582E4ED
:1016C00091E090938605809385051092090610920B
:1016D00008068EE591E0909307068093060687E260
:1016E00080930A0684E180930F0684E080931006BD
:1016F000109211061092990510929D0510929C056A
:1017000010929E0584E591E090939805809397054B
:10171000E3EBF5E01082148213821582369685E0A1
:10172000EF3EF807B9F78AE091E09093FA058093CD
:10173000F90586E091E09093FC058093FB0584E039
:101740008093FD058093FE058EE091E09093F8056F
:101750008093F7058AE090E0909300068093FF0560
:1017600084EF91E0909302068093010610920506A3
:10177000109204061092F3051092F4051092F505EC
:101780001092F605109203061092920510929105A0
:10179000109294051092930510929605109295055B
:1017A00050E040E068E671E081E995E00C941B09A7
:1017B000CF93DF9300D000D000D0CDB7DEB77894C0
:1017C00084B5826084BD84B5816084BD85B5826046
:1017D00085BD85B5816085BD80916E0081608093F7
:1017E0006E00109281008091810082608093810060
:1017F0008091810081608093810080918000816070
:10180000809380008091B10084608093B1008091CA
:10181000B00081608093B00080917A0084608093F2
:101820007A0080917A00826080937A0080917A00B9
:10183000816080937A0080917A00806880937A003A
:101840001092C1001092D4041092D3041092D204CA
:101850001092D1041092D00481E08093CF041092B2
:10186000CE0461E082E10E94840261E083E10E9493
:1018700084028091B9008E7F8093B9008091B90075
:101880008D7F8093B90088E48093B80085E48093CD
:10189000BC008DE491E09093CD048093CC048EE461
:1018A00091E09093CB048093CA0410920B06809130
:1018B0001006823018F098E090930B0680930E0685
:1018C00062E370E080E090E00E9472046091110693
:1018D00086E096E00E945D0568EE73E080E090E0AF
:1018E0000E94720460E386E096E00E94C4050BE467
:1018F00016E4C8010197F1F760E386E096E00E94E4
:10190000C405C8010197F1F760E386E096E00E9404
:10191000C40583E592E00197F1F760E286E096E086
:101920000E94C40560910B06606240E086E096E08C
:101930000E94DD0584E080930C0640E06CE086E0C8
:1019400096E00E94DD050E94280612E010930D0625
:1019500040E066E086E096E00E94DD0540E062E05F
:1019600086E096E00E94DD058BE39FE10197F1F7A9
:1019700088E08093110660E086E096E00E945D05B5
:10198000E091F804F091F9041083E091F404F091EF
:10199000F5041082E091F604F091F7048FEC808357
:1019A00010920005E091FC04F091FD0486E0808334
:1019B000E091FA04F091FB04808180618083E091E2
:1019C000FA04F091FB04808188608083E091FA043E
:1019D000F091FB04808180688083E091FA04F091AB
:1019E000FB0480818F7D80836CEE71E086E096E061
:1019F0000E94E10661E080E00E94F4056BEF71E077
:101A000086E096E00E94E10662E080E00E94F40534
:101A10006AE072E086E096E00E94E10663E080E022
:101A20000E94F40569E172E086E096E00E94E1061A
:101A300061E083E00E94B60261E082E00E94B602AB
:101A400061E085E00E94B60261E084E00E94B60297
:101A500010910301612F83E00E94840260910201D2
:101A600082E00E948402612F85E00E948402612F3F
:101A700084E00E94840268EE73E080E090E00E94BF
:101A800072040E944107812C912C80EFA82E80E4E3
:101A9000B82EC12CD12C90E2E92E91E4F92E0E94AF
:101AA000F602782E882309F4A7C089831A82009150
:101AB0009505109196050F5F1F4FB80181E995E0DC
:101AC0000E94F308882399F02091910530919205A6
:101AD0008091950590919605BE016F5F7F4F820FB3
:101AE000931F0E94A817109396050093950583E213
:101AF00078128FC00E9428068091950590919605D6
:101B000001970E94C3081A8219821C821B821E82BE
:101B10001D8260919105709192056115710541F0EA
:101B20004091950550919605CE0101960E941B09A2
:101B30008D819E81892B09F443C066E272E0898120
:101B40009A810E949F17892BD9F50E94280663E08D
:101B500080E00E94F4056AE272E086E096E00E946E
:101B6000E10664E082E00E94F40561E372E086E051
:101B700096E00E94E1069AE029163104FCF41092E6
:101B8000110660E086E096E00E945D0562E370E089
:101B900080E090E00E947204A8E0A093110660E04B
:101BA00086E096E00E945D0562E370E080E090E0F0
:101BB0000E947204BFEF2B1A3B0ADDCF0E94280659
:101BC000CE0101960E94EB08409195055091960533
:101BD000609191057091920588EE94E00E94200139
:101BE00066E671E088EE94E00E94390668E671E0EE
:101BF00081E995E00E944609A0E0B0E0AB2B09F432
:101C00004ECF0E948C01882309F449CF0E94000026
:101C100046CF81E47812DEC00E9428060E94F602B8
:101C2000782E1A8219821C821B821E821D8248E035
:101C300050E06BE372E0CE0101960E941B0901E0C7
:101C400010E094E4791609F4BEC00E94F602782EE2
:101C500060E080E00E94F40564E472E086E096E0D3
:101C60000E94E10661E080E00E94F40569E572E00F
:101C700086E096E00E94E10662E080E00E94F405C2
:101C800067E672E086E096E00E94E106772009F4BC
:101C90005FC0A1E37A121BC00D30110509F48AC0A0
:101CA0000F5F1F4FF8013297EC30F10508F5E55A48
:101CB000F14F0C94AE15B50EBC0EBF0EC20EC50E84
:101CC000C80ECB0ECE0ED10ED40ED70EDA0EB2E366
:101CD0007B1206C00130110559F001501109E2CF05
:101CE00083E27812DFCF1093050100930401DACF6D
:101CF00060E772E0CE0101960E94460901E010E023
:101D000062E088E00E94F40563EF72E086E096E00E
:101D10000E94E10662E088E00E94F4054D815E8148
:101D200069817A8186E096E00E94200163E080E08C
:101D30000E94F40560E073E086E096E00E94E10610
:101D4000609104017091050186E096E00E9494067E
:101D500080910401909105010E94CE066AE070E036
:101D600080E090E00E9472046CCF6AE772E0CE01DE
:101D700001960E944609C4CF66E872E0F8CF61E997
:101D800072E0F5CF6DE972E0F2CF6BE372E0EFCF76
:101D900068EA72E0ECCF65EB72E0E9CF61EC72E0EB
:101DA000E6CF6CEC72E0E3CF68ED72E0E0CF62EE7C
:101DB00072E0DDCF6DEE72E0CE0101960E94460921
:101DC0000DE010E09DCF0E944107CE0101960E94D8
:101DD000EB0812CF92E47912FFC00E9428060E94FD
:101DE000F602182F60E080E00E94F4056CEA71E0D2
:101DF00086E096E00E94E10661E080E00E94F40542
:101E00006EE073E086E096E00E94E10661E085E026
:101E10000E94F4056091030101E0602770E086E014
:101E200096E00E94940661E087E00E94F40563E179
:101E300073E086E096E00E94E10661E08BE00E949C
:101E4000F40560910201602770E086E096E00E9450
:101E5000940662E080E00E94F40568E173E086E0A9
:101E600096E00E94E10662E085E00E94F405609140
:101E70000101602770E086E096E00E94940662E02F
:101E800087E00E94F4056DE173E086E096E00E9431
:101E9000E10662E08BE00E94F4056091000160279A
:101EA00070E086E096E00E949406772473941434E0
:101EB00009F418C30E94F602182F8823D9F381333E
:101EC00031F5809103018823C9F01092030160E08D
:101ED00083E00E94840270E060E088EE94E00E945B
:101EE000940661E085E00E94F4056091030160279B
:101EF00070E086E096E00E949406DCCF70920301C9
:101F000061E083E00E94840261E070E0E6CF82330A
:101F100001F580910201882399F01092020160E09E
:101F200082E00E94840270E060E088EE94E00E940B
:101F3000940661E08BE00E94F40560910201D7CF26
:101F40007092020161E082E00E94840261E070E030
:101F5000ECCF833309F01FC380910101882399F0EE
:101F60001092010160E085E00E94840270E060E070
:101F700088EE94E00E94940662E085E00E94F405F9
:101F800060910101B4CF7092010161E085E00E948F
:101F9000840261E070E0ECCF80910001882399F029
:101FA0001092000160E084E00E94840270E060E032
:101FB00088EE94E00E94940662E08BE00E94F405B3
:101FC0006091000194CF7092000161E084E00E9472
:101FD000840261E070E0ECCFA3E47A12C7C00E94F3
:101FE00067070E94F602182F0E9467071434C9F78A
:101FF0000E9441070E9428060E94F602782E68E699
:1020000071E081E995E00E94460984E4781609F4BC
:1020100069C20E94F602782E60E080E00E94F4051A
:1020200062E273E086E096E00E94E10661E080E013
:102030000E94F40561E771E086E096E00E94E10607
:1020400061E089E00E94F405772019F379821A8211
:1020500000919505109196050F5F1F4FB80181E91A
:1020600095E00E94F308882399F020919105309122
:1020700092058091950590919605BE016F5F7F4F07
:10208000820F931F0E94A817109396050093950541
:10209000409195055091960560919105709192053A
:1020A00086E096E00E94200193E27912AECF809103
:1020B00095059091960501970E94C308809191051E
:1020C00090919205009709F455C00E94D612709322
:1020D000E3046093E20468E671E081E995E00E9420
:1020E00046090E9428060E94F60260E080E00E94F5
:1020F000F40564E373E086E096E00E94E10661E0A7
:1021000080E00E94F40565E473E086E096E00E94BA
:10211000E10662E080E00E94F40566E573E086E097
:1021200096E00E94E1060E94F6028823E1F38133E3
:1021300029F581E08093E104E0910401F09105012B
:102140003197ED30F10508F0C6C0E755FF4E0C940D
:10215000AE15C310E010E510FE1017113011351147
:102160004A11531175128A12A312B412B4E47B12ED
:1021700043CD40CF60E070E0CB01A9CF823399F628
:102180001092E104D9CF80E090E0A0EABFE3809311
:10219000D5049093D604A093D704B093D804809329
:1021A000D9049093DA04A093DB04B093DC04809309
:1021B000DD049093DE04A093DF04B093E0048BC0B1
:1021C00080E090E0A0EAB0E4E2CF80E090E0A0E719
:1021D000B1E48093D5049093D604A093D704B09330
:1021E000D804C092D904D092DA04E092DB04F092D1
:1021F000DC0480E090E0A0EAB0E4D9CFC092D5043E
:10220000D092D604E092D704F092D804C092D904B8
:10221000D092DA04E092DB04F092DC04C092DD0498
:10222000D092DE04E092DF04F092E00454C080E03B
:1022300090E0A0EAB0E48093D5049093D604A093F4
:10224000D704B093D804C092D904D092DA04E092B3
:10225000DB04F092DC0480E090E0A0E7B1E4A7CFDB
:1022600080E090E0A0E2B0E492CF8092D50490921A
:10227000D604A092D704B092D804C092D904D092C8
:10228000DA04E092DB04F092DC0480E090E0A0E26B
:10229000B0E48DCFC092D504D092D604E092D7049A
:1022A000F092D8049ECF8092D5049092D604A0924A
:1022B000D704B092D8048092D9049092DA04A09204
:1022C000DB04B092DC048092DD049092DE04A092E4
:1022D000DF04B092E0040E9428060E94F602182F44
:1022E00060E080E00E94F40569E673E086E096E035
:1022F0000E94E106609104017091050186E096E07C
:102300000E94940661E080E00E94F40566E773E0B5
:1023100086E096E00E94E1066091E2047091E30499
:1023200086E096E00E94940662E080E00E94F40558
:1023300065E873E086E096E00E94E10663E080E0F5
:102340000E94F40562E973E086E096E00E94E106EF
:10235000143409F4C7C00E94F602182F8134C1F763
:102360004090D5045090D6046090D7047090D80463
:102370002FE632E143E85AE3C301B2010E9482151D
:10238000181654F49301820149E25CE56FE47FE39F
:1023900082E090E00E94E3060E9428066BE973E069
:1023A00086E096E00E94E10661E080E00E94F4058C
:1023B0006CEA73E086E096E00E94E10662E080E06D
:1023C0000E94F40560EC73E086E096E00E94E1066E
:1023D0008091E104882309F4D4C068EE73E080E0C2
:1023E00090E00E9472044090D9045090DA0460900A
:1023F000DB047090DC042FE632E143E85AE3C301CA
:10240000B2010E948215181654F49301820149E228
:102410005CE56FE47FE385E090E00E94E3060E94C4
:10242000280663ED73E086E096E00E94E10661E035
:1024300080E00E94F4056CEA73E086E096E00E947A
:10244000E10662E080E00E94F40560EC73E086E063
:1024500096E00E94E1068091E104882309F496C089
:1024600068EE73E080E090E00E9472044090DD042A
:102470005090DE046090DF047090E0042FE632E1BB
:1024800043E85AE3C301B2010E948215181654F4BE
:102490009301820141E75DE36AE47FE384E090E039
:1024A0000E94E3060E94280664E670E080E090E067
:1024B0000E94720460E080E00E94F40562EE73E026
:1024C00086E096E00E94E10661E080E00E94F4056B
:1024D00063EF73E086E096E00E94E1060E94F60258
:1024E0008434E1F70E94410787CB8092D504909213
:1024F000D604A092D704B092D80480E090E0A0E285
:10250000B0E48093D9049093DA04A093DB04B093F1
:10251000DC0484CE8092D5049092D604A092D70495
:10252000B092D80480E090E0A0E2B0E48093D904B7
:102530009093DA04A093DB04B093DC0480E090E095
:10254000A8E4B1E434CE8092D5049092D604A0924F
:10255000D704B092D8041092D9041092DA041092E1
:10256000DB041092DC0477CE80E090E0A0EAB0E4D7
:102570008093D5049093D604A093D704B093D80445
:10258000EACF0E94F6028134E1F72DCF0E94F602D5
:102590008134E1F76BCF843309F4FECC843409F441
:1025A000A1CF85CC81E995E00C94EB081F93FC0149
:1025B00099278827BC01E89411911032E9F319306A
:1025C00010F01E30C8F31B3251F01D3249F46894EC
:1025D00006C00E94FD12610F711D811D911D119198
:1025E00010531A30B0F33EF4909580957095619534
:1025F0007F4F8F4F9F4F1F910895592F482F372F8F
:10260000262F660F771F881F991F660F771F881F59
:10261000991F620F731F841F951F660F771F881FF6
:10262000991F08950E94541308F481E00895E894D6
:1026300009C097FB3EF490958095709561957F4F0A
:102640008F4F9F4F9923A9F0F92F96E9BB279395B8
:10265000F695879577956795B795F111F8CFFAF4C8
:10266000BB0F11F460FF1BC06F5F7F4F8F4F9F4FF9
:1026700016C0882311F096E911C0772321F09EE857
:10268000872F762F05C0662371F096E8862F70E0BD
:1026900060E02AF09A95660F771F881FDAF7880F97
:1026A0009695879597F90895990F0008550FAA0BED
:1026B000E0E8FEEF16161706E807F907C0F0121655
:1026C0001306E407F50798F0621B730B840B950B58
:1026D00039F40A2661F0232B242B252B21F40895AD
:1026E0000A2609F4A140A6958FEF811D811D08954A
:1026F0000E948B130C94FC130E94EE1338F00E947E
:10270000F51320F0952311F00C94E5130C94EB13C2
:1027100011240C9430140E940D1470F3959FC1F392
:10272000950F50E0551F629FF001729FBB27F00D7F
:10273000B11D639FAA27F00DB11DAA1F649F6627D4
:10274000B00DA11D661F829F2227B00DA11D621F23
:10275000739FB00DA11D621F839FA00D611D221FDD
:10276000749F3327A00D611D231F849F600D211DC1
:10277000822F762F6A2F11249F5750409AF0F1F044
:1027800088234AF0EE0FFF1FBB1F661F771F881FAD
:1027900091505040A9F79E3F510580F00C94E513ED
:1027A0000C9430145F3FE4F3983ED4F3869577950C
:1027B0006795B795F795E7959F5FC1F7FE2B880F53
:1027C000911D9695879597F9089597F99F6780E8E9
:1027D00070E060E008959FEF80EC089500240A9473
:1027E0001616170618060906089500240A941216EC
:1027F0001306140605060895092E0394000C11F41F
:10280000882352F0BB0F40F4BF2B11F460FF04C0CB
:102810006F5F7F4F8F4F9F4F089557FD9058440F24
:10282000551F59F05F3F71F04795880F97FB991F2F
:1028300061F09F3F79F087950895121613061406EC
:10284000551FF2CF4695F1DF08C016161706180679
:10285000991FF1CF86957105610508940895E89454
:10286000BB2766277727CB0197F908952F923F92D0
:102870004F925F926F927F928F929F92AF92BF9290
:10288000CF92DF92EF92FF920F931F93CF93DF933C
:10289000CDB7DEB7CA1BDB0B0FB6F894DEBF0FBE99
:1028A000CDBF09942A88398848885F846E847D84E6
:1028B0008C849B84AA84B984C884DF80EE80FD80E8
:1028C0000C811B81AA81B981CE0FD11D0FB6F8945E
:1028D000DEBF0FBECDBFED0108955058BB27AA271C
:1028E0000E9485140C94FC130E94EE1338F00E9491
:1028F000F51320F039F49F3F19F426F40C94EB13F0
:102900000EF4E095E7FB0C94E513E92F0E940D14FB
:1029100058F3BA17620773078407950720F079F414
:10292000A6F50C942F140EF4E0950B2EBA2FA02DC3
:102930000B01B90190010C01CA01A0011124FF276C
:10294000591B99F0593F50F4503E68F11A16F04067
:10295000A22F232F342F4427585FF3CF4695379566
:102960002795A795F0405395C9F77EF41F16BA0B2B
:10297000620B730B840BBAF09150A1F0FF0FBB1FD9
:10298000661F771F881FC2F70EC0BA0F621F731F22
:10299000841F48F4879577956795B795F7959E3F7F
:1029A00008F0B0CF9395880F08F09927EE0F979510
:1029B000879508950E94EE140C94FC130E94F51361
:1029C00058F00E94EE1340F029F45F3F29F00C9478
:1029D000E51351110C9430140C94EB130E940D1458
:1029E00068F39923B1F3552391F3951B550BBB273E
:1029F000AA2762177307840738F09F5F5F4F220F83
:102A0000331F441FAA1FA9F335D00E2E3AF0E0E879
:102A100032D091505040E695001CCAF72BD0FE2FC3
:102A200029D0660F771F881FBB1F26173707480757
:102A3000AB07B0E809F0BB0B802DBF01FF2793580F
:102A40005F4F3AF09E3F510578F00C94E5130C94DB
:102A500030145F3FE4F3983ED4F3869577956795FD
:102A6000B795F7959F5FC9F7880F911D9695879544
:102A700097F90895E1E0660F771F881FBB1F621763
:102A800073078407BA0720F0621B730B840BBA0B21
:102A9000EE1F88F7E09508950E9453156894B111D0
:102AA0000C94301408950E94151488F09F5798F0E4
:102AB000B92F9927B751B0F0E1F0660F771F881F43
:102AC000991F1AF0BA95C9F714C0B13091F00E945D
:102AD0002F14B1E008950C942F14672F782F8827B6
:102AE000B85F39F0B93FCCF3869577956795B39584
:102AF000D9F73EF490958095709561957F4F8F4FF3
:102B00009F4F08950E94541308F48FEF08950E9478
:102B10005413880B990B0895A1E21A2EAA1BBB1B14
:102B2000FD010DC0AA1FBB1FEE1FFF1FA217B30799
:102B3000E407F50720F0A21BB30BE40BF50B661FAF
:102B4000771F881F991F1A9469F760957095809573
:102B500090959B01AC01BD01CF010895EE0FFF1FC1
:102B60000590F491E02D09940F931F93CF93DF9379
:102B70008230910510F482E090E0E0911406F0912B
:102B8000150630E020E0B0E0A0E0309799F4211580
:102B9000310509F44AC0281B390B24303105D8F51A
:102BA0008A819B816115710589F1FB019383828381
:102BB000FE0111C0408151810281138148175907DC
:102BC000E0F04817590799F4109761F012960C93AA
:102BD000129713961C933296CF01DF91CF911F91DC
:102BE0000F9108950093140610931506F4CF211544
:102BF000310551F04217530738F0A901DB019A0162
:102C0000BD01DF01F801C1CFEF01F9CF90931506A7
:102C100080931406CDCFFE01E20FF31F81939193B1
:102C20002250310939832883D7CF20911206309161
:102C30001306232B41F42091200130912101309380
:102C400013062093120620911E0130911F012115B9
:102C5000310541F42DB73EB7409122015091230137
:102C6000241B350BE0911206F0911306E217F307CF
:102C7000A0F42E1B3F0B2817390778F0AC014E5FEC
:102C80005F4F2417350748F04E0F5F1F5093130610
:102C900040931206819391939FCFF0E0E0E09CCFA8
:102CA000CF93DF930097E9F0FC01329713821282F1
:102CB000A0911406B0911506ED0130E020E01097C8
:102CC000A1F420813181820F931F2091120630914F
:102CD00013062817390709F061C0F0931306E09333
:102CE0001206DF91CF910895EA01CE17DF07E8F5CC
:102CF0004A815B819E0141155105B1F7E901FB83D2
:102D0000EA8349915991C40FD51FEC17FD0761F46F
:102D1000808191810296840F951FE90199838883B0
:102D2000828193819B838A83F0E0E0E012968D910B
:102D30009C9113970097B9F52D913C911197CD0176
:102D40000296820F931F20911206309113062817C6
:102D5000390739F6309751F510921506109214067E
:102D6000B0931306A0931206BCCFD383C2834081D5
:102D70005181840F951FC817D90761F44E5F5F4FCB
:102D800088819981480F591F518340838A819B8193
:102D9000938382832115310509F0B0CFF093150696
:102DA000E09314069ECFFD01DC01C0CF1382128296
:102DB000D7CFB0E0A0E0EFEDF6E10C9438148C0131
:102DC000009751F4CB010E94B4158C01C801CDB716
:102DD000DEB7E0E10C945414FC01E60FF71F9C01F0
:102DE00022503109E217F30708F49DC0D901CD91B3
:102DF000DC911197C617D70798F0C530D10530F38D
:102E0000CE0104978617970708F3C61BD70B2297A6
:102E1000C193D1936D937C93CF010E945016D6CF6E
:102E20005B01AC1ABD0A4C018C0E9D1EA0911406CC
:102E3000B0911506512C412CF12CE12C109731F555
:102E400080911206909113068815990509F05CC0CF
:102E50004616570608F058C080911E0190911F0138
:102E6000009741F48DB79EB7409122015091230104
:102E7000841B950BE817F90708F055C0F09313066B
:102E8000E0931206F90171836083A0CF8D919C912C
:102E9000119712966C90129713967C901397A81521
:102EA000B90559F56C0142E0C40ED11CCA14DB040B
:102EB00020F1AC014A195B09DA011296159780F0EE
:102EC0006282738251834083D9016D937C93E114B4
:102ED000F10471F0D7011396FC93EE93129776CF1D
:102EE00022968C0F9D1FF90191838083F301EFCF10
:102EF000F0931506E093140669CF4816590608F4B6
:102F00002C017D01D3019ACFCB010E94B4157C0125
:102F1000009749F0AE01B8010E949617C8010E94BF
:102F20005016870153CF10E000E050CFFB01DC01C9
:102F300002C001900D9241505040D8F70895FB0116
:102F4000DC018D91019080190110D9F3990B08953E
:102F5000FB01DC0101900D920020E1F70895FB01D7
:102F6000DC014150504048F001900D920020C9F71B
:102F700001C01D9241505040E0F7089510E0C2E6B4
:102F8000D0E004C0FE010E94AE152196C336D107E1
:062F9000C9F7F894FFCF21
:102F9600010101010100060708090A0B0C0D313277
:102FA600334134353642373839432A30234400001A
:102FB60016068000000040001400540000000000C7
:102FC600C20120014F010F0280015E017201000063
:102FD60000002E050105C105D704FA04E704D8044C
:102FE60000000000F202B202810200000000330677
:102FF6002001C105A5040D0A0067616C6C6F6E7334
:1030060020746F20446F73653A200050756D7020F0
:103016004379636C653A20004379636C6520746973
:103026006D653A200041202D205365742057617448
:10303600657220446F73650042202D20546F6767C8
:103046006C652050756D70730043202D20526561AC
:10305600642050480044202D20426567696E204454
:103066006F73696E670073656E736F72203D200023
:103076006E616E00696E66006F7666002020202005
:10308600204175746F6D61746564002020202020D6
:10309600204E75747269656E7400202020202041D0
:1030A6007373697374616E740020202020202020C1
:1030B60028414E412900313137005441594C4F5275
:1030C6000055205220474159595900536565646C93
:1030D600696E670043686F6F736520646F73696E0E
:1030E60067206C6576656C3A00313A20496E63203C
:1030F600323A204465630043757272656E743A0015
:10310600536565646C696E67310047656E2050755E
:1031160072706F7365004167672047726F777468D6
:10312600005472616E7332426C6F6F6D00426C6F49
:103136006F6D2652697065004561726C7920477221
:103146006F777468004C6174652047726F77746896
:10315600005472616E736974696F6E004561726CBA
:103166007920426C6F6F6D004D696420426C6F6F01
:103176006D004C61746520426C6F6F6D0052697012
:10318600656E0020202020202020202020202000E6
:1031960053656C65637465642049443A2000503178
:1031A6003A200050323A200050333A200050343A48
:1031B60020004E756D626572206F662047616C6CEB
:1031C6006F6E73004175746F206F72204D616E755E
:1031D600616C6C7900537769746368204E757472FC
:1031E60069656E74730031202D204175746F207CE3
:1031F6002032202D204D616E00646F7365206C6552
:1032060076656C3A200023206F662067616C6C6FD0
:103216006E733A200041202D20436F6E74696E75DF
:10322600650044202D204578697400466C6F7261F4
:103236004D6963726F20446F7365640050726573E5
:1032460073204120746F20436F6E74696E7565003C
:103256004966204D616E75616C6C7920446F7369A7
:103266006E6700466C6F726147726F20446F7365BC
:103276006400466C6F7261426C6F6F6D20446F73B1
:103286006564005072657373204420746F2045781E
:043296006974000057
:107E0000112484B714BE81FFF0D085E080938100F7
:107E100082E08093C00088E18093C10086E0809377
:107E2000C20080E18093C4008EE0C9D0259A86E02C
:107E300020E33CEF91E0309385002093840096BBD3
:107E4000B09BFECF1D9AA8958150A9F7CC24DD24C4
:107E500088248394B5E0AB2EA1E19A2EF3E0BF2EE7
:107E6000A2D0813461F49FD0082FAFD0023811F036
:107E7000013811F484E001C083E08DD089C08234E0
:107E800011F484E103C0853419F485E0A6D080C0E4
:107E9000853579F488D0E82EFF2485D0082F10E0AE
:107EA000102F00270E291F29000F111F8ED06801E7
:107EB0006FC0863521F484E090D080E0DECF843638
:107EC00009F040C070D06FD0082F6DD080E0C81688
:107ED00080E7D80618F4F601B7BEE895C0E0D1E017
:107EE00062D089930C17E1F7F0E0CF16F0E7DF06D8
:107EF00018F0F601B7BEE89568D007B600FCFDCFD4
:107F0000A601A0E0B1E02C9130E011968C91119780
:107F100090E0982F8827822B932B1296FA010C0160
:107F200087BEE89511244E5F5F4FF1E0A038BF0790
:107F300051F7F601A7BEE89507B600FCFDCF97BE46
:107F4000E89526C08437B1F42ED02DD0F82E2BD052
:107F50003CD0F601EF2C8F010F5F1F4F84911BD097
:107F6000EA94F801C1F70894C11CD11CFA94CF0C13
:107F7000D11C0EC0853739F428D08EE10CD085E9AC
:107F80000AD08FE07ACF813511F488E018D01DD067
:107F900080E101D065CF982F8091C00085FFFCCF94
:107FA0009093C60008958091C00087FFFCCF809118
:107FB000C00084FD01C0A8958091C6000895E0E648
:107FC000F0E098E1908380830895EDDF803219F02E
:107FD00088E0F5DFFFCF84E1DECF1F93182FE3DFCA
:107FE0001150E9F7F2DF1F91089580E0E8DFEE27F6
:047FF000FF270994CA
:027FFE00040479
:0400000300007E007B
:00000001FF